{"abi":[{"inputs":[{"internalType":"uint256","name":"_minimumAmount","type":"uint256"},{"internalType":"string","name":"_recipientName","type":"string"},{"internalType":"string","name":"_fundraisingReason","type":"string"},{"internalType":"string","name":"_description","type":"string"},{"internalType":"address","name":"_creator","type":"address"}],"stateMutability":"nonpayable","type":"constructor"},{"inputs":[{"internalType":"uint256","name":"_index","type":"uint256"}],"name":"approveSpendRequest","outputs":[],"stateMutability":"nonpayable","type":"function"},{"inputs":[{"internalType":"address","name":"","type":"address"}],"name":"approvers","outputs":[{"internalType":"bool","name":"","type":"bool"}],"stateMutability":"view","type":"function"},{"inputs":[],"name":"approversCount","outputs":[{"internalType":"uint256","name":"","type":"uint256"}],"stateMutability":"view","type":"function"},{"inputs":[],"name":"contribute","outputs":[],"stateMutability":"payable","type":"function"},{"inputs":[{"internalType":"string","name":"_description","type":"string"},{"internalType":"uint256","name":"_value","type":"uint256"}],"name":"createSpendRequest","outputs":[],"stateMutability":"nonpayable","type":"function"},{"inputs":[],"name":"description","outputs":[{"internalType":"string","name":"","type":"string"}],"stateMutability":"view","type":"function"},{"inputs":[{"internalType":"uint256","name":"_index","type":"uint256"}],"name":"endSpendRequest","outputs":[],"stateMutability":"nonpayable","type":"function"},{"inputs":[],"name":"fundraisingReason","outputs":[{"internalType":"string","name":"","type":"string"}],"stateMutability":"view","type":"function"},{"inputs":[],"name":"getSpendRequestsCount","outputs":[{"internalType":"uint256","name":"","type":"uint256"}],"stateMutability":"view","type":"function"},{"inputs":[],"name":"getSummary","outputs":[{"internalType":"string","name":"","type":"string"},{"internalType":"string","name":"","type":"string"},{"internalType":"string","name":"","type":"string"},{"internalType":"uint256","name":"","type":"uint256"},{"internalType":"uint256","name":"","type":"uint256"},{"internalType":"uint256","name":"","type":"uint256"},{"internalType":"uint256","name":"","type":"uint256"},{"internalType":"address","name":"","type":"address"}],"stateMutability":"view","type":"function"},{"inputs":[],"name":"minimumContribution","outputs":[{"internalType":"uint256","name":"","type":"uint256"}],"stateMutability":"view","type":"function"},{"inputs":[],"name":"recipient","outputs":[{"internalType":"address","name":"","type":"address"}],"stateMutability":"view","type":"function"},{"inputs":[],"name":"recipientName","outputs":[{"internalType":"string","name":"","type":"string"}],"stateMutability":"view","type":"function"},{"inputs":[{"internalType":"uint256","name":"","type":"uint256"}],"name":"spendRequests","outputs":[{"internalType":"string","name":"description","type":"string"},{"internalType":"uint256","name":"value","type":"uint256"},{"internalType":"bool","name":"finish","type":"bool"},{"internalType":"uint256","name":"approvalCount","type":"uint256"}],"stateMutability":"view","type":"function"}],"devdoc":{"kind":"dev","methods":{},"version":1},"evm":{"assembly":"    /* \"Donate.sol\":711:3551  contract Donate {... */\n  mstore(0x40, 0x80)\n    /* \"Donate.sol\":1284:1726  constructor(... */\n  callvalue\n  dup1\n  iszero\n  tag_1\n  jumpi\n  0x00\n  dup1\n  revert\ntag_1:\n  pop\n  mload(0x40)\n  sub(codesize, bytecodeSize)\n  dup1\n  bytecodeSize\n  dup4\n  codecopy\n  dup2\n  dup2\n  add\n  0x40\n  mstore\n  dup2\n  add\n  swap1\n  tag_2\n  swap2\n  swap1\n  tag_3\n  jump\t// in\ntag_2:\n    /* \"Donate.sol\":1505:1519  _minimumAmount */\n  dup5\n    /* \"Donate.sol\":1483:1502  minimumContribution */\n  0x02\n    /* \"Donate.sol\":1483:1519  minimumContribution = _minimumAmount */\n  dup2\n  swap1\n  sstore\n  pop\n    /* \"Donate.sol\":1545:1559  _recipientName */\n  dup4\n    /* \"Donate.sol\":1529:1542  recipientName */\n  0x03\n    /* \"Donate.sol\":1529:1559  recipientName = _recipientName */\n  swap1\n  dup2\n  tag_6\n  swap2\n  swap1\n  tag_7\n  jump\t// in\ntag_6:\n  pop\n    /* \"Donate.sol\":1589:1607  _fundraisingReason */\n  dup3\n    /* \"Donate.sol\":1569:1586  fundraisingReason */\n  0x04\n    /* \"Donate.sol\":1569:1607  fundraisingReason = _fundraisingReason */\n  swap1\n  dup2\n  tag_8\n  swap2\n  swap1\n  tag_7\n  jump\t// in\ntag_8:\n  pop\n    /* \"Donate.sol\":1631:1643  _description */\n  dup2\n    /* \"Donate.sol\":1617:1628  description */\n  0x05\n    /* \"Donate.sol\":1617:1643  description = _description */\n  swap1\n  dup2\n  tag_9\n  swap2\n  swap1\n  tag_7\n  jump\t// in\ntag_9:\n  pop\n    /* \"Donate.sol\":1675:1689  _minimumAmount */\n  dup5\n    /* \"Donate.sol\":1653:1672  minimumContribution */\n  0x02\n    /* \"Donate.sol\":1653:1689  minimumContribution = _minimumAmount */\n  dup2\n  swap1\n  sstore\n  pop\n    /* \"Donate.sol\":1711:1719  _creator */\n  dup1\n    /* \"Donate.sol\":1699:1708  recipient */\n  0x01\n  0x00\n    /* \"Donate.sol\":1699:1719  recipient = _creator */\n  0x0100\n  exp\n  dup2\n  sload\n  dup2\n  0xffffffffffffffffffffffffffffffffffffffff\n  mul\n  not\n  and\n  swap1\n  dup4\n  0xffffffffffffffffffffffffffffffffffffffff\n  and\n  mul\n  or\n  swap1\n  sstore\n  pop\n    /* \"Donate.sol\":1284:1726  constructor(... */\n  pop\n  pop\n  pop\n  pop\n  pop\n    /* \"Donate.sol\":711:3551  contract Donate {... */\n  jump(tag_10)\n    /* \"#utility.yul\":7:82   */\ntag_11:\n    /* \"#utility.yul\":40:46   */\n  0x00\n    /* \"#utility.yul\":73:75   */\n  0x40\n    /* \"#utility.yul\":67:76   */\n  mload\n    /* \"#utility.yul\":57:76   */\n  swap1\n  pop\n    /* \"#utility.yul\":7:82   */\n  swap1\n  jump\t// out\n    /* \"#utility.yul\":88:205   */\ntag_12:\n    /* \"#utility.yul\":197:198   */\n  0x00\n    /* \"#utility.yul\":194:195   */\n  dup1\n    /* \"#utility.yul\":187:199   */\n  revert\n    /* \"#utility.yul\":211:328   */\ntag_13:\n    /* \"#utility.yul\":320:321   */\n  0x00\n    /* \"#utility.yul\":317:318   */\n  dup1\n    /* \"#utility.yul\":310:322   */\n  revert\n    /* \"#utility.yul\":334:411   */\ntag_14:\n    /* \"#utility.yul\":371:378   */\n  0x00\n    /* \"#utility.yul\":400:405   */\n  dup2\n    /* \"#utility.yul\":389:405   */\n  swap1\n  pop\n    /* \"#utility.yul\":334:411   */\n  swap2\n  swap1\n  pop\n  jump\t// out\n    /* \"#utility.yul\":417:539   */\ntag_15:\n    /* \"#utility.yul\":490:514   */\n  tag_55\n    /* \"#utility.yul\":508:513   */\n  dup2\n    /* \"#utility.yul\":490:514   */\n  tag_14\n  jump\t// in\ntag_55:\n    /* \"#utility.yul\":483:488   */\n  dup2\n    /* \"#utility.yul\":480:515   */\n  eq\n    /* \"#utility.yul\":470:533   */\n  tag_56\n  jumpi\n    /* \"#utility.yul\":529:530   */\n  0x00\n    /* \"#utility.yul\":526:527   */\n  dup1\n    /* \"#utility.yul\":519:531   */\n  revert\n    /* \"#utility.yul\":470:533   */\ntag_56:\n    /* \"#utility.yul\":417:539   */\n  pop\n  jump\t// out\n    /* \"#utility.yul\":545:688   */\ntag_16:\n    /* \"#utility.yul\":602:607   */\n  0x00\n    /* \"#utility.yul\":633:639   */\n  dup2\n    /* \"#utility.yul\":627:640   */\n  mload\n    /* \"#utility.yul\":618:640   */\n  swap1\n  pop\n    /* \"#utility.yul\":649:682   */\n  tag_58\n    /* \"#utility.yul\":676:681   */\n  dup2\n    /* \"#utility.yul\":649:682   */\n  tag_15\n  jump\t// in\ntag_58:\n    /* \"#utility.yul\":545:688   */\n  swap3\n  swap2\n  pop\n  pop\n  jump\t// out\n    /* \"#utility.yul\":694:811   */\ntag_17:\n    /* \"#utility.yul\":803:804   */\n  0x00\n    /* \"#utility.yul\":800:801   */\n  dup1\n    /* \"#utility.yul\":793:805   */\n  revert\n    /* \"#utility.yul\":817:934   */\ntag_18:\n    /* \"#utility.yul\":926:927   */\n  0x00\n    /* \"#utility.yul\":923:924   */\n  dup1\n    /* \"#utility.yul\":916:928   */\n  revert\n    /* \"#utility.yul\":940:1042   */\ntag_19:\n    /* \"#utility.yul\":981:987   */\n  0x00\n    /* \"#utility.yul\":1032:1034   */\n  0x1f\n    /* \"#utility.yul\":1028:1035   */\n  not\n    /* \"#utility.yul\":1023:1025   */\n  0x1f\n    /* \"#utility.yul\":1016:1021   */\n  dup4\n    /* \"#utility.yul\":1012:1026   */\n  add\n    /* \"#utility.yul\":1008:1036   */\n  and\n    /* \"#utility.yul\":998:1036   */\n  swap1\n  pop\n    /* \"#utility.yul\":940:1042   */\n  swap2\n  swap1\n  pop\n  jump\t// out\n    /* \"#utility.yul\":1048:1228   */\ntag_20:\n    /* \"#utility.yul\":1096:1173   */\n  0x4e487b7100000000000000000000000000000000000000000000000000000000\n    /* \"#utility.yul\":1093:1094   */\n  0x00\n    /* \"#utility.yul\":1086:1174   */\n  mstore\n    /* \"#utility.yul\":1193:1197   */\n  0x41\n    /* \"#utility.yul\":1190:1191   */\n  0x04\n    /* \"#utility.yul\":1183:1198   */\n  mstore\n    /* \"#utility.yul\":1217:1221   */\n  0x24\n    /* \"#utility.yul\":1214:1215   */\n  0x00\n    /* \"#utility.yul\":1207:1222   */\n  revert\n    /* \"#utility.yul\":1234:1515   */\ntag_21:\n    /* \"#utility.yul\":1317:1344   */\n  tag_64\n    /* \"#utility.yul\":1339:1343   */\n  dup3\n    /* \"#utility.yul\":1317:1344   */\n  tag_19\n  jump\t// in\ntag_64:\n    /* \"#utility.yul\":1309:1315   */\n  dup2\n    /* \"#utility.yul\":1305:1345   */\n  add\n    /* \"#utility.yul\":1447:1453   */\n  dup2\n    /* \"#utility.yul\":1435:1445   */\n  dup2\n    /* \"#utility.yul\":1432:1454   */\n  lt\n    /* \"#utility.yul\":1411:1429   */\n  0xffffffffffffffff\n    /* \"#utility.yul\":1399:1409   */\n  dup3\n    /* \"#utility.yul\":1396:1430   */\n  gt\n    /* \"#utility.yul\":1393:1455   */\n  or\n    /* \"#utility.yul\":1390:1478   */\n  iszero\n  tag_65\n  jumpi\n    /* \"#utility.yul\":1458:1476   */\n  tag_66\n  tag_20\n  jump\t// in\ntag_66:\n    /* \"#utility.yul\":1390:1478   */\ntag_65:\n    /* \"#utility.yul\":1498:1508   */\n  dup1\n    /* \"#utility.yul\":1494:1496   */\n  0x40\n    /* \"#utility.yul\":1487:1509   */\n  mstore\n    /* \"#utility.yul\":1277:1515   */\n  pop\n    /* \"#utility.yul\":1234:1515   */\n  pop\n  pop\n  jump\t// out\n    /* \"#utility.yul\":1521:1650   */\ntag_22:\n    /* \"#utility.yul\":1555:1561   */\n  0x00\n    /* \"#utility.yul\":1582:1602   */\n  tag_68\n  tag_11\n  jump\t// in\ntag_68:\n    /* \"#utility.yul\":1572:1602   */\n  swap1\n  pop\n    /* \"#utility.yul\":1611:1644   */\n  tag_69\n    /* \"#utility.yul\":1639:1643   */\n  dup3\n    /* \"#utility.yul\":1631:1637   */\n  dup3\n    /* \"#utility.yul\":1611:1644   */\n  tag_21\n  jump\t// in\ntag_69:\n    /* \"#utility.yul\":1521:1650   */\n  swap2\n  swap1\n  pop\n  jump\t// out\n    /* \"#utility.yul\":1656:1964   */\ntag_23:\n    /* \"#utility.yul\":1718:1722   */\n  0x00\n    /* \"#utility.yul\":1808:1826   */\n  0xffffffffffffffff\n    /* \"#utility.yul\":1800:1806   */\n  dup3\n    /* \"#utility.yul\":1797:1827   */\n  gt\n    /* \"#utility.yul\":1794:1850   */\n  iszero\n  tag_71\n  jumpi\n    /* \"#utility.yul\":1830:1848   */\n  tag_72\n  tag_20\n  jump\t// in\ntag_72:\n    /* \"#utility.yul\":1794:1850   */\ntag_71:\n    /* \"#utility.yul\":1868:1897   */\n  tag_73\n    /* \"#utility.yul\":1890:1896   */\n  dup3\n    /* \"#utility.yul\":1868:1897   */\n  tag_19\n  jump\t// in\ntag_73:\n    /* \"#utility.yul\":1860:1897   */\n  swap1\n  pop\n    /* \"#utility.yul\":1952:1956   */\n  0x20\n    /* \"#utility.yul\":1946:1950   */\n  dup2\n    /* \"#utility.yul\":1942:1957   */\n  add\n    /* \"#utility.yul\":1934:1957   */\n  swap1\n  pop\n    /* \"#utility.yul\":1656:1964   */\n  swap2\n  swap1\n  pop\n  jump\t// out\n    /* \"#utility.yul\":1970:2216   */\ntag_24:\n    /* \"#utility.yul\":2051:2052   */\n  0x00\n    /* \"#utility.yul\":2061:2174   */\ntag_75:\n    /* \"#utility.yul\":2075:2081   */\n  dup4\n    /* \"#utility.yul\":2072:2073   */\n  dup2\n    /* \"#utility.yul\":2069:2082   */\n  lt\n    /* \"#utility.yul\":2061:2174   */\n  iszero\n  tag_77\n  jumpi\n    /* \"#utility.yul\":2160:2161   */\n  dup1\n    /* \"#utility.yul\":2155:2158   */\n  dup3\n    /* \"#utility.yul\":2151:2162   */\n  add\n    /* \"#utility.yul\":2145:2163   */\n  mload\n    /* \"#utility.yul\":2141:2142   */\n  dup2\n    /* \"#utility.yul\":2136:2139   */\n  dup5\n    /* \"#utility.yul\":2132:2143   */\n  add\n    /* \"#utility.yul\":2125:2164   */\n  mstore\n    /* \"#utility.yul\":2097:2099   */\n  0x20\n    /* \"#utility.yul\":2094:2095   */\n  dup2\n    /* \"#utility.yul\":2090:2100   */\n  add\n    /* \"#utility.yul\":2085:2100   */\n  swap1\n  pop\n    /* \"#utility.yul\":2061:2174   */\n  jump(tag_75)\ntag_77:\n    /* \"#utility.yul\":2208:2209   */\n  0x00\n    /* \"#utility.yul\":2199:2205   */\n  dup5\n    /* \"#utility.yul\":2194:2197   */\n  dup5\n    /* \"#utility.yul\":2190:2206   */\n  add\n    /* \"#utility.yul\":2183:2210   */\n  mstore\n    /* \"#utility.yul\":2032:2216   */\n  pop\n    /* \"#utility.yul\":1970:2216   */\n  pop\n  pop\n  pop\n  jump\t// out\n    /* \"#utility.yul\":2222:2656   */\ntag_25:\n    /* \"#utility.yul\":2311:2316   */\n  0x00\n    /* \"#utility.yul\":2336:2402   */\n  tag_79\n    /* \"#utility.yul\":2352:2401   */\n  tag_80\n    /* \"#utility.yul\":2394:2400   */\n  dup5\n    /* \"#utility.yul\":2352:2401   */\n  tag_23\n  jump\t// in\ntag_80:\n    /* \"#utility.yul\":2336:2402   */\n  tag_22\n  jump\t// in\ntag_79:\n    /* \"#utility.yul\":2327:2402   */\n  swap1\n  pop\n    /* \"#utility.yul\":2425:2431   */\n  dup3\n    /* \"#utility.yul\":2418:2423   */\n  dup2\n    /* \"#utility.yul\":2411:2432   */\n  mstore\n    /* \"#utility.yul\":2463:2467   */\n  0x20\n    /* \"#utility.yul\":2456:2461   */\n  dup2\n    /* \"#utility.yul\":2452:2468   */\n  add\n    /* \"#utility.yul\":2501:2504   */\n  dup5\n    /* \"#utility.yul\":2492:2498   */\n  dup5\n    /* \"#utility.yul\":2487:2490   */\n  dup5\n    /* \"#utility.yul\":2483:2499   */\n  add\n    /* \"#utility.yul\":2480:2505   */\n  gt\n    /* \"#utility.yul\":2477:2589   */\n  iszero\n  tag_81\n  jumpi\n    /* \"#utility.yul\":2508:2587   */\n  tag_82\n  tag_18\n  jump\t// in\ntag_82:\n    /* \"#utility.yul\":2477:2589   */\ntag_81:\n    /* \"#utility.yul\":2598:2650   */\n  tag_83\n    /* \"#utility.yul\":2643:2649   */\n  dup5\n    /* \"#utility.yul\":2638:2641   */\n  dup3\n    /* \"#utility.yul\":2633:2636   */\n  dup6\n    /* \"#utility.yul\":2598:2650   */\n  tag_24\n  jump\t// in\ntag_83:\n    /* \"#utility.yul\":2317:2656   */\n  pop\n    /* \"#utility.yul\":2222:2656   */\n  swap4\n  swap3\n  pop\n  pop\n  pop\n  jump\t// out\n    /* \"#utility.yul\":2676:3031   */\ntag_26:\n    /* \"#utility.yul\":2743:2748   */\n  0x00\n    /* \"#utility.yul\":2792:2795   */\n  dup3\n    /* \"#utility.yul\":2785:2789   */\n  0x1f\n    /* \"#utility.yul\":2777:2783   */\n  dup4\n    /* \"#utility.yul\":2773:2790   */\n  add\n    /* \"#utility.yul\":2769:2796   */\n  slt\n    /* \"#utility.yul\":2759:2881   */\n  tag_85\n  jumpi\n    /* \"#utility.yul\":2800:2879   */\n  tag_86\n  tag_17\n  jump\t// in\ntag_86:\n    /* \"#utility.yul\":2759:2881   */\ntag_85:\n    /* \"#utility.yul\":2910:2916   */\n  dup2\n    /* \"#utility.yul\":2904:2917   */\n  mload\n    /* \"#utility.yul\":2935:3025   */\n  tag_87\n    /* \"#utility.yul\":3021:3024   */\n  dup5\n    /* \"#utility.yul\":3013:3019   */\n  dup3\n    /* \"#utility.yul\":3006:3010   */\n  0x20\n    /* \"#utility.yul\":2998:3004   */\n  dup7\n    /* \"#utility.yul\":2994:3011   */\n  add\n    /* \"#utility.yul\":2935:3025   */\n  tag_25\n  jump\t// in\ntag_87:\n    /* \"#utility.yul\":2926:3025   */\n  swap2\n  pop\n    /* \"#utility.yul\":2749:3031   */\n  pop\n    /* \"#utility.yul\":2676:3031   */\n  swap3\n  swap2\n  pop\n  pop\n  jump\t// out\n    /* \"#utility.yul\":3037:3163   */\ntag_27:\n    /* \"#utility.yul\":3074:3081   */\n  0x00\n    /* \"#utility.yul\":3114:3156   */\n  0xffffffffffffffffffffffffffffffffffffffff\n    /* \"#utility.yul\":3107:3112   */\n  dup3\n    /* \"#utility.yul\":3103:3157   */\n  and\n    /* \"#utility.yul\":3092:3157   */\n  swap1\n  pop\n    /* \"#utility.yul\":3037:3163   */\n  swap2\n  swap1\n  pop\n  jump\t// out\n    /* \"#utility.yul\":3169:3265   */\ntag_28:\n    /* \"#utility.yul\":3206:3213   */\n  0x00\n    /* \"#utility.yul\":3235:3259   */\n  tag_90\n    /* \"#utility.yul\":3253:3258   */\n  dup3\n    /* \"#utility.yul\":3235:3259   */\n  tag_27\n  jump\t// in\ntag_90:\n    /* \"#utility.yul\":3224:3259   */\n  swap1\n  pop\n    /* \"#utility.yul\":3169:3265   */\n  swap2\n  swap1\n  pop\n  jump\t// out\n    /* \"#utility.yul\":3271:3393   */\ntag_29:\n    /* \"#utility.yul\":3344:3368   */\n  tag_92\n    /* \"#utility.yul\":3362:3367   */\n  dup2\n    /* \"#utility.yul\":3344:3368   */\n  tag_28\n  jump\t// in\ntag_92:\n    /* \"#utility.yul\":3337:3342   */\n  dup2\n    /* \"#utility.yul\":3334:3369   */\n  eq\n    /* \"#utility.yul\":3324:3387   */\n  tag_93\n  jumpi\n    /* \"#utility.yul\":3383:3384   */\n  0x00\n    /* \"#utility.yul\":3380:3381   */\n  dup1\n    /* \"#utility.yul\":3373:3385   */\n  revert\n    /* \"#utility.yul\":3324:3387   */\ntag_93:\n    /* \"#utility.yul\":3271:3393   */\n  pop\n  jump\t// out\n    /* \"#utility.yul\":3399:3542   */\ntag_30:\n    /* \"#utility.yul\":3456:3461   */\n  0x00\n    /* \"#utility.yul\":3487:3493   */\n  dup2\n    /* \"#utility.yul\":3481:3494   */\n  mload\n    /* \"#utility.yul\":3472:3494   */\n  swap1\n  pop\n    /* \"#utility.yul\":3503:3536   */\n  tag_95\n    /* \"#utility.yul\":3530:3535   */\n  dup2\n    /* \"#utility.yul\":3503:3536   */\n  tag_29\n  jump\t// in\ntag_95:\n    /* \"#utility.yul\":3399:3542   */\n  swap3\n  swap2\n  pop\n  pop\n  jump\t// out\n    /* \"#utility.yul\":3548:5044   */\ntag_3:\n    /* \"#utility.yul\":3684:3690   */\n  0x00\n    /* \"#utility.yul\":3692:3698   */\n  dup1\n    /* \"#utility.yul\":3700:3706   */\n  0x00\n    /* \"#utility.yul\":3708:3714   */\n  dup1\n    /* \"#utility.yul\":3716:3722   */\n  0x00\n    /* \"#utility.yul\":3765:3768   */\n  0xa0\n    /* \"#utility.yul\":3753:3762   */\n  dup7\n    /* \"#utility.yul\":3744:3751   */\n  dup9\n    /* \"#utility.yul\":3740:3763   */\n  sub\n    /* \"#utility.yul\":3736:3769   */\n  slt\n    /* \"#utility.yul\":3733:3853   */\n  iszero\n  tag_97\n  jumpi\n    /* \"#utility.yul\":3772:3851   */\n  tag_98\n  tag_12\n  jump\t// in\ntag_98:\n    /* \"#utility.yul\":3733:3853   */\ntag_97:\n    /* \"#utility.yul\":3892:3893   */\n  0x00\n    /* \"#utility.yul\":3917:3981   */\n  tag_99\n    /* \"#utility.yul\":3973:3980   */\n  dup9\n    /* \"#utility.yul\":3964:3970   */\n  dup3\n    /* \"#utility.yul\":3953:3962   */\n  dup10\n    /* \"#utility.yul\":3949:3971   */\n  add\n    /* \"#utility.yul\":3917:3981   */\n  tag_16\n  jump\t// in\ntag_99:\n    /* \"#utility.yul\":3907:3981   */\n  swap6\n  pop\n    /* \"#utility.yul\":3863:3991   */\n  pop\n    /* \"#utility.yul\":4051:4053   */\n  0x20\n    /* \"#utility.yul\":4040:4049   */\n  dup7\n    /* \"#utility.yul\":4036:4054   */\n  add\n    /* \"#utility.yul\":4030:4055   */\n  mload\n    /* \"#utility.yul\":4082:4100   */\n  0xffffffffffffffff\n    /* \"#utility.yul\":4074:4080   */\n  dup2\n    /* \"#utility.yul\":4071:4101   */\n  gt\n    /* \"#utility.yul\":4068:4185   */\n  iszero\n  tag_100\n  jumpi\n    /* \"#utility.yul\":4104:4183   */\n  tag_101\n  tag_13\n  jump\t// in\ntag_101:\n    /* \"#utility.yul\":4068:4185   */\ntag_100:\n    /* \"#utility.yul\":4209:4283   */\n  tag_102\n    /* \"#utility.yul\":4275:4282   */\n  dup9\n    /* \"#utility.yul\":4266:4272   */\n  dup3\n    /* \"#utility.yul\":4255:4264   */\n  dup10\n    /* \"#utility.yul\":4251:4273   */\n  add\n    /* \"#utility.yul\":4209:4283   */\n  tag_26\n  jump\t// in\ntag_102:\n    /* \"#utility.yul\":4199:4283   */\n  swap5\n  pop\n    /* \"#utility.yul\":4001:4293   */\n  pop\n    /* \"#utility.yul\":4353:4355   */\n  0x40\n    /* \"#utility.yul\":4342:4351   */\n  dup7\n    /* \"#utility.yul\":4338:4356   */\n  add\n    /* \"#utility.yul\":4332:4357   */\n  mload\n    /* \"#utility.yul\":4384:4402   */\n  0xffffffffffffffff\n    /* \"#utility.yul\":4376:4382   */\n  dup2\n    /* \"#utility.yul\":4373:4403   */\n  gt\n    /* \"#utility.yul\":4370:4487   */\n  iszero\n  tag_103\n  jumpi\n    /* \"#utility.yul\":4406:4485   */\n  tag_104\n  tag_13\n  jump\t// in\ntag_104:\n    /* \"#utility.yul\":4370:4487   */\ntag_103:\n    /* \"#utility.yul\":4511:4585   */\n  tag_105\n    /* \"#utility.yul\":4577:4584   */\n  dup9\n    /* \"#utility.yul\":4568:4574   */\n  dup3\n    /* \"#utility.yul\":4557:4566   */\n  dup10\n    /* \"#utility.yul\":4553:4575   */\n  add\n    /* \"#utility.yul\":4511:4585   */\n  tag_26\n  jump\t// in\ntag_105:\n    /* \"#utility.yul\":4501:4585   */\n  swap4\n  pop\n    /* \"#utility.yul\":4303:4595   */\n  pop\n    /* \"#utility.yul\":4655:4657   */\n  0x60\n    /* \"#utility.yul\":4644:4653   */\n  dup7\n    /* \"#utility.yul\":4640:4658   */\n  add\n    /* \"#utility.yul\":4634:4659   */\n  mload\n    /* \"#utility.yul\":4686:4704   */\n  0xffffffffffffffff\n    /* \"#utility.yul\":4678:4684   */\n  dup2\n    /* \"#utility.yul\":4675:4705   */\n  gt\n    /* \"#utility.yul\":4672:4789   */\n  iszero\n  tag_106\n  jumpi\n    /* \"#utility.yul\":4708:4787   */\n  tag_107\n  tag_13\n  jump\t// in\ntag_107:\n    /* \"#utility.yul\":4672:4789   */\ntag_106:\n    /* \"#utility.yul\":4813:4887   */\n  tag_108\n    /* \"#utility.yul\":4879:4886   */\n  dup9\n    /* \"#utility.yul\":4870:4876   */\n  dup3\n    /* \"#utility.yul\":4859:4868   */\n  dup10\n    /* \"#utility.yul\":4855:4877   */\n  add\n    /* \"#utility.yul\":4813:4887   */\n  tag_26\n  jump\t// in\ntag_108:\n    /* \"#utility.yul\":4803:4887   */\n  swap3\n  pop\n    /* \"#utility.yul\":4605:4897   */\n  pop\n    /* \"#utility.yul\":4936:4939   */\n  0x80\n    /* \"#utility.yul\":4963:5027   */\n  tag_109\n    /* \"#utility.yul\":5019:5026   */\n  dup9\n    /* \"#utility.yul\":5010:5016   */\n  dup3\n    /* \"#utility.yul\":4999:5008   */\n  dup10\n    /* \"#utility.yul\":4995:5017   */\n  add\n    /* \"#utility.yul\":4963:5027   */\n  tag_30\n  jump\t// in\ntag_109:\n    /* \"#utility.yul\":4953:5027   */\n  swap2\n  pop\n    /* \"#utility.yul\":4907:5037   */\n  pop\n    /* \"#utility.yul\":3548:5044   */\n  swap3\n  swap6\n  pop\n  swap3\n  swap6\n  swap1\n  swap4\n  pop\n  jump\t// out\n    /* \"#utility.yul\":5050:5149   */\ntag_31:\n    /* \"#utility.yul\":5102:5108   */\n  0x00\n    /* \"#utility.yul\":5136:5141   */\n  dup2\n    /* \"#utility.yul\":5130:5142   */\n  mload\n    /* \"#utility.yul\":5120:5142   */\n  swap1\n  pop\n    /* \"#utility.yul\":5050:5149   */\n  swap2\n  swap1\n  pop\n  jump\t// out\n    /* \"#utility.yul\":5155:5335   */\ntag_32:\n    /* \"#utility.yul\":5203:5280   */\n  0x4e487b7100000000000000000000000000000000000000000000000000000000\n    /* \"#utility.yul\":5200:5201   */\n  0x00\n    /* \"#utility.yul\":5193:5281   */\n  mstore\n    /* \"#utility.yul\":5300:5304   */\n  0x22\n    /* \"#utility.yul\":5297:5298   */\n  0x04\n    /* \"#utility.yul\":5290:5305   */\n  mstore\n    /* \"#utility.yul\":5324:5328   */\n  0x24\n    /* \"#utility.yul\":5321:5322   */\n  0x00\n    /* \"#utility.yul\":5314:5329   */\n  revert\n    /* \"#utility.yul\":5341:5661   */\ntag_33:\n    /* \"#utility.yul\":5385:5391   */\n  0x00\n    /* \"#utility.yul\":5422:5423   */\n  0x02\n    /* \"#utility.yul\":5416:5420   */\n  dup3\n    /* \"#utility.yul\":5412:5424   */\n  div\n    /* \"#utility.yul\":5402:5424   */\n  swap1\n  pop\n    /* \"#utility.yul\":5469:5470   */\n  0x01\n    /* \"#utility.yul\":5463:5467   */\n  dup3\n    /* \"#utility.yul\":5459:5471   */\n  and\n    /* \"#utility.yul\":5490:5508   */\n  dup1\n    /* \"#utility.yul\":5480:5561   */\n  tag_113\n  jumpi\n    /* \"#utility.yul\":5546:5550   */\n  0x7f\n    /* \"#utility.yul\":5538:5544   */\n  dup3\n    /* \"#utility.yul\":5534:5551   */\n  and\n    /* \"#utility.yul\":5524:5551   */\n  swap2\n  pop\n    /* \"#utility.yul\":5480:5561   */\ntag_113:\n    /* \"#utility.yul\":5608:5610   */\n  0x20\n    /* \"#utility.yul\":5600:5606   */\n  dup3\n    /* \"#utility.yul\":5597:5611   */\n  lt\n    /* \"#utility.yul\":5577:5595   */\n  dup2\n    /* \"#utility.yul\":5574:5612   */\n  sub\n    /* \"#utility.yul\":5571:5655   */\n  tag_114\n  jumpi\n    /* \"#utility.yul\":5627:5645   */\n  tag_115\n  tag_32\n  jump\t// in\ntag_115:\n    /* \"#utility.yul\":5571:5655   */\ntag_114:\n    /* \"#utility.yul\":5392:5661   */\n  pop\n    /* \"#utility.yul\":5341:5661   */\n  swap2\n  swap1\n  pop\n  jump\t// out\n    /* \"#utility.yul\":5667:5808   */\ntag_34:\n    /* \"#utility.yul\":5716:5720   */\n  0x00\n    /* \"#utility.yul\":5739:5742   */\n  dup2\n    /* \"#utility.yul\":5731:5742   */\n  swap1\n  pop\n    /* \"#utility.yul\":5762:5765   */\n  dup2\n    /* \"#utility.yul\":5759:5760   */\n  0x00\n    /* \"#utility.yul\":5752:5766   */\n  mstore\n    /* \"#utility.yul\":5796:5800   */\n  0x20\n    /* \"#utility.yul\":5793:5794   */\n  0x00\n    /* \"#utility.yul\":5783:5801   */\n  keccak256\n    /* \"#utility.yul\":5775:5801   */\n  swap1\n  pop\n    /* \"#utility.yul\":5667:5808   */\n  swap2\n  swap1\n  pop\n  jump\t// out\n    /* \"#utility.yul\":5814:5907   */\ntag_35:\n    /* \"#utility.yul\":5851:5857   */\n  0x00\n    /* \"#utility.yul\":5898:5900   */\n  0x20\n    /* \"#utility.yul\":5893:5895   */\n  0x1f\n    /* \"#utility.yul\":5886:5891   */\n  dup4\n    /* \"#utility.yul\":5882:5896   */\n  add\n    /* \"#utility.yul\":5878:5901   */\n  div\n    /* \"#utility.yul\":5868:5901   */\n  swap1\n  pop\n    /* \"#utility.yul\":5814:5907   */\n  swap2\n  swap1\n  pop\n  jump\t// out\n    /* \"#utility.yul\":5913:6020   */\ntag_36:\n    /* \"#utility.yul\":5957:5965   */\n  0x00\n    /* \"#utility.yul\":6007:6012   */\n  dup3\n    /* \"#utility.yul\":6001:6005   */\n  dup3\n    /* \"#utility.yul\":5997:6013   */\n  shl\n    /* \"#utility.yul\":5976:6013   */\n  swap1\n  pop\n    /* \"#utility.yul\":5913:6020   */\n  swap3\n  swap2\n  pop\n  pop\n  jump\t// out\n    /* \"#utility.yul\":6026:6419   */\ntag_37:\n    /* \"#utility.yul\":6095:6101   */\n  0x00\n    /* \"#utility.yul\":6145:6146   */\n  0x08\n    /* \"#utility.yul\":6133:6143   */\n  dup4\n    /* \"#utility.yul\":6129:6147   */\n  mul\n    /* \"#utility.yul\":6168:6265   */\n  tag_120\n    /* \"#utility.yul\":6198:6264   */\n  0xffffffffffffffffffffffffffffffffffffffffffffffffffffffffffffffff\n    /* \"#utility.yul\":6187:6196   */\n  dup3\n    /* \"#utility.yul\":6168:6265   */\n  tag_36\n  jump\t// in\ntag_120:\n    /* \"#utility.yul\":6286:6325   */\n  tag_121\n    /* \"#utility.yul\":6316:6324   */\n  dup7\n    /* \"#utility.yul\":6305:6314   */\n  dup4\n    /* \"#utility.yul\":6286:6325   */\n  tag_36\n  jump\t// in\ntag_121:\n    /* \"#utility.yul\":6274:6325   */\n  swap6\n  pop\n    /* \"#utility.yul\":6358:6362   */\n  dup1\n    /* \"#utility.yul\":6354:6363   */\n  not\n    /* \"#utility.yul\":6347:6352   */\n  dup5\n    /* \"#utility.yul\":6343:6364   */\n  and\n    /* \"#utility.yul\":6334:6364   */\n  swap4\n  pop\n    /* \"#utility.yul\":6407:6411   */\n  dup1\n    /* \"#utility.yul\":6397:6405   */\n  dup7\n    /* \"#utility.yul\":6393:6412   */\n  and\n    /* \"#utility.yul\":6386:6391   */\n  dup5\n    /* \"#utility.yul\":6383:6413   */\n  or\n    /* \"#utility.yul\":6373:6413   */\n  swap3\n  pop\n    /* \"#utility.yul\":6102:6419   */\n  pop\n  pop\n    /* \"#utility.yul\":6026:6419   */\n  swap4\n  swap3\n  pop\n  pop\n  pop\n  jump\t// out\n    /* \"#utility.yul\":6425:6485   */\ntag_38:\n    /* \"#utility.yul\":6453:6456   */\n  0x00\n    /* \"#utility.yul\":6474:6479   */\n  dup2\n    /* \"#utility.yul\":6467:6479   */\n  swap1\n  pop\n    /* \"#utility.yul\":6425:6485   */\n  swap2\n  swap1\n  pop\n  jump\t// out\n    /* \"#utility.yul\":6491:6633   */\ntag_39:\n    /* \"#utility.yul\":6541:6550   */\n  0x00\n    /* \"#utility.yul\":6574:6627   */\n  tag_124\n    /* \"#utility.yul\":6592:6626   */\n  tag_125\n    /* \"#utility.yul\":6601:6625   */\n  tag_126\n    /* \"#utility.yul\":6619:6624   */\n  dup5\n    /* \"#utility.yul\":6601:6625   */\n  tag_14\n  jump\t// in\ntag_126:\n    /* \"#utility.yul\":6592:6626   */\n  tag_38\n  jump\t// in\ntag_125:\n    /* \"#utility.yul\":6574:6627   */\n  tag_14\n  jump\t// in\ntag_124:\n    /* \"#utility.yul\":6561:6627   */\n  swap1\n  pop\n    /* \"#utility.yul\":6491:6633   */\n  swap2\n  swap1\n  pop\n  jump\t// out\n    /* \"#utility.yul\":6639:6714   */\ntag_40:\n    /* \"#utility.yul\":6682:6685   */\n  0x00\n    /* \"#utility.yul\":6703:6708   */\n  dup2\n    /* \"#utility.yul\":6696:6708   */\n  swap1\n  pop\n    /* \"#utility.yul\":6639:6714   */\n  swap2\n  swap1\n  pop\n  jump\t// out\n    /* \"#utility.yul\":6720:6989   */\ntag_41:\n    /* \"#utility.yul\":6830:6869   */\n  tag_129\n    /* \"#utility.yul\":6861:6868   */\n  dup4\n    /* \"#utility.yul\":6830:6869   */\n  tag_39\n  jump\t// in\ntag_129:\n    /* \"#utility.yul\":6891:6982   */\n  tag_130\n    /* \"#utility.yul\":6940:6981   */\n  tag_131\n    /* \"#utility.yul\":6964:6980   */\n  dup3\n    /* \"#utility.yul\":6940:6981   */\n  tag_40\n  jump\t// in\ntag_131:\n    /* \"#utility.yul\":6932:6938   */\n  dup5\n    /* \"#utility.yul\":6925:6929   */\n  dup5\n    /* \"#utility.yul\":6919:6930   */\n  sload\n    /* \"#utility.yul\":6891:6982   */\n  tag_37\n  jump\t// in\ntag_130:\n    /* \"#utility.yul\":6885:6889   */\n  dup3\n    /* \"#utility.yul\":6878:6983   */\n  sstore\n    /* \"#utility.yul\":6796:6989   */\n  pop\n    /* \"#utility.yul\":6720:6989   */\n  pop\n  pop\n  pop\n  jump\t// out\n    /* \"#utility.yul\":6995:7068   */\ntag_42:\n    /* \"#utility.yul\":7040:7043   */\n  0x00\n    /* \"#utility.yul\":6995:7068   */\n  swap1\n  jump\t// out\n    /* \"#utility.yul\":7074:7263   */\ntag_43:\n    /* \"#utility.yul\":7151:7183   */\n  tag_134\n  tag_42\n  jump\t// in\ntag_134:\n    /* \"#utility.yul\":7192:7257   */\n  tag_135\n    /* \"#utility.yul\":7250:7256   */\n  dup2\n    /* \"#utility.yul\":7242:7248   */\n  dup5\n    /* \"#utility.yul\":7236:7240   */\n  dup5\n    /* \"#utility.yul\":7192:7257   */\n  tag_41\n  jump\t// in\ntag_135:\n    /* \"#utility.yul\":7127:7263   */\n  pop\n    /* \"#utility.yul\":7074:7263   */\n  pop\n  pop\n  jump\t// out\n    /* \"#utility.yul\":7269:7455   */\ntag_44:\n    /* \"#utility.yul\":7329:7449   */\ntag_137:\n    /* \"#utility.yul\":7346:7349   */\n  dup2\n    /* \"#utility.yul\":7339:7344   */\n  dup2\n    /* \"#utility.yul\":7336:7350   */\n  lt\n    /* \"#utility.yul\":7329:7449   */\n  iszero\n  tag_139\n  jumpi\n    /* \"#utility.yul\":7400:7439   */\n  tag_140\n    /* \"#utility.yul\":7437:7438   */\n  0x00\n    /* \"#utility.yul\":7430:7435   */\n  dup3\n    /* \"#utility.yul\":7400:7439   */\n  tag_43\n  jump\t// in\ntag_140:\n    /* \"#utility.yul\":7373:7374   */\n  0x01\n    /* \"#utility.yul\":7366:7371   */\n  dup2\n    /* \"#utility.yul\":7362:7375   */\n  add\n    /* \"#utility.yul\":7353:7375   */\n  swap1\n  pop\n    /* \"#utility.yul\":7329:7449   */\n  jump(tag_137)\ntag_139:\n    /* \"#utility.yul\":7269:7455   */\n  pop\n  pop\n  jump\t// out\n    /* \"#utility.yul\":7461:8004   */\ntag_45:\n    /* \"#utility.yul\":7562:7564   */\n  0x1f\n    /* \"#utility.yul\":7557:7560   */\n  dup3\n    /* \"#utility.yul\":7554:7565   */\n  gt\n    /* \"#utility.yul\":7551:7997   */\n  iszero\n  tag_142\n  jumpi\n    /* \"#utility.yul\":7596:7634   */\n  tag_143\n    /* \"#utility.yul\":7628:7633   */\n  dup2\n    /* \"#utility.yul\":7596:7634   */\n  tag_34\n  jump\t// in\ntag_143:\n    /* \"#utility.yul\":7680:7709   */\n  tag_144\n    /* \"#utility.yul\":7698:7708   */\n  dup5\n    /* \"#utility.yul\":7680:7709   */\n  tag_35\n  jump\t// in\ntag_144:\n    /* \"#utility.yul\":7670:7678   */\n  dup2\n    /* \"#utility.yul\":7666:7710   */\n  add\n    /* \"#utility.yul\":7863:7865   */\n  0x20\n    /* \"#utility.yul\":7851:7861   */\n  dup6\n    /* \"#utility.yul\":7848:7866   */\n  lt\n    /* \"#utility.yul\":7845:7894   */\n  iszero\n  tag_145\n  jumpi\n    /* \"#utility.yul\":7884:7892   */\n  dup2\n    /* \"#utility.yul\":7869:7892   */\n  swap1\n  pop\n    /* \"#utility.yul\":7845:7894   */\ntag_145:\n    /* \"#utility.yul\":7907:7987   */\n  tag_146\n    /* \"#utility.yul\":7963:7985   */\n  tag_147\n    /* \"#utility.yul\":7981:7984   */\n  dup6\n    /* \"#utility.yul\":7963:7985   */\n  tag_35\n  jump\t// in\ntag_147:\n    /* \"#utility.yul\":7953:7961   */\n  dup4\n    /* \"#utility.yul\":7949:7986   */\n  add\n    /* \"#utility.yul\":7936:7947   */\n  dup3\n    /* \"#utility.yul\":7907:7987   */\n  tag_44\n  jump\t// in\ntag_146:\n    /* \"#utility.yul\":7566:7997   */\n  pop\n  pop\n    /* \"#utility.yul\":7551:7997   */\ntag_142:\n    /* \"#utility.yul\":7461:8004   */\n  pop\n  pop\n  pop\n  jump\t// out\n    /* \"#utility.yul\":8010:8127   */\ntag_46:\n    /* \"#utility.yul\":8064:8072   */\n  0x00\n    /* \"#utility.yul\":8114:8119   */\n  dup3\n    /* \"#utility.yul\":8108:8112   */\n  dup3\n    /* \"#utility.yul\":8104:8120   */\n  shr\n    /* \"#utility.yul\":8083:8120   */\n  swap1\n  pop\n    /* \"#utility.yul\":8010:8127   */\n  swap3\n  swap2\n  pop\n  pop\n  jump\t// out\n    /* \"#utility.yul\":8133:8302   */\ntag_47:\n    /* \"#utility.yul\":8177:8183   */\n  0x00\n    /* \"#utility.yul\":8210:8261   */\n  tag_150\n    /* \"#utility.yul\":8258:8259   */\n  0x00\n    /* \"#utility.yul\":8254:8260   */\n  not\n    /* \"#utility.yul\":8246:8251   */\n  dup5\n    /* \"#utility.yul\":8243:8244   */\n  0x08\n    /* \"#utility.yul\":8239:8252   */\n  mul\n    /* \"#utility.yul\":8210:8261   */\n  tag_46\n  jump\t// in\ntag_150:\n    /* \"#utility.yul\":8206:8262   */\n  not\n    /* \"#utility.yul\":8291:8295   */\n  dup1\n    /* \"#utility.yul\":8285:8289   */\n  dup4\n    /* \"#utility.yul\":8281:8296   */\n  and\n    /* \"#utility.yul\":8271:8296   */\n  swap2\n  pop\n    /* \"#utility.yul\":8184:8302   */\n  pop\n    /* \"#utility.yul\":8133:8302   */\n  swap3\n  swap2\n  pop\n  pop\n  jump\t// out\n    /* \"#utility.yul\":8307:8602   */\ntag_48:\n    /* \"#utility.yul\":8383:8387   */\n  0x00\n    /* \"#utility.yul\":8529:8558   */\n  tag_152\n    /* \"#utility.yul\":8554:8557   */\n  dup4\n    /* \"#utility.yul\":8548:8552   */\n  dup4\n    /* \"#utility.yul\":8529:8558   */\n  tag_47\n  jump\t// in\ntag_152:\n    /* \"#utility.yul\":8521:8558   */\n  swap2\n  pop\n    /* \"#utility.yul\":8591:8594   */\n  dup3\n    /* \"#utility.yul\":8588:8589   */\n  0x02\n    /* \"#utility.yul\":8584:8595   */\n  mul\n    /* \"#utility.yul\":8578:8582   */\n  dup3\n    /* \"#utility.yul\":8575:8596   */\n  or\n    /* \"#utility.yul\":8567:8596   */\n  swap1\n  pop\n    /* \"#utility.yul\":8307:8602   */\n  swap3\n  swap2\n  pop\n  pop\n  jump\t// out\n    /* \"#utility.yul\":8607:10002   */\ntag_7:\n    /* \"#utility.yul\":8724:8761   */\n  tag_154\n    /* \"#utility.yul\":8757:8760   */\n  dup3\n    /* \"#utility.yul\":8724:8761   */\n  tag_31\n  jump\t// in\ntag_154:\n    /* \"#utility.yul\":8826:8844   */\n  0xffffffffffffffff\n    /* \"#utility.yul\":8818:8824   */\n  dup2\n    /* \"#utility.yul\":8815:8845   */\n  gt\n    /* \"#utility.yul\":8812:8868   */\n  iszero\n  tag_155\n  jumpi\n    /* \"#utility.yul\":8848:8866   */\n  tag_156\n  tag_20\n  jump\t// in\ntag_156:\n    /* \"#utility.yul\":8812:8868   */\ntag_155:\n    /* \"#utility.yul\":8892:8930   */\n  tag_157\n    /* \"#utility.yul\":8924:8928   */\n  dup3\n    /* \"#utility.yul\":8918:8929   */\n  sload\n    /* \"#utility.yul\":8892:8930   */\n  tag_33\n  jump\t// in\ntag_157:\n    /* \"#utility.yul\":8977:9044   */\n  tag_158\n    /* \"#utility.yul\":9037:9043   */\n  dup3\n    /* \"#utility.yul\":9029:9035   */\n  dup3\n    /* \"#utility.yul\":9023:9027   */\n  dup6\n    /* \"#utility.yul\":8977:9044   */\n  tag_45\n  jump\t// in\ntag_158:\n    /* \"#utility.yul\":9071:9072   */\n  0x00\n    /* \"#utility.yul\":9095:9099   */\n  0x20\n    /* \"#utility.yul\":9082:9099   */\n  swap1\n  pop\n    /* \"#utility.yul\":9127:9129   */\n  0x1f\n    /* \"#utility.yul\":9119:9125   */\n  dup4\n    /* \"#utility.yul\":9116:9130   */\n  gt\n    /* \"#utility.yul\":9144:9145   */\n  0x01\n    /* \"#utility.yul\":9139:9757   */\n  dup2\n  eq\n  tag_160\n  jumpi\n    /* \"#utility.yul\":9801:9802   */\n  0x00\n    /* \"#utility.yul\":9818:9824   */\n  dup5\n    /* \"#utility.yul\":9815:9892   */\n  iszero\n  tag_161\n  jumpi\n    /* \"#utility.yul\":9867:9876   */\n  dup3\n    /* \"#utility.yul\":9862:9865   */\n  dup8\n    /* \"#utility.yul\":9858:9877   */\n  add\n    /* \"#utility.yul\":9852:9878   */\n  mload\n    /* \"#utility.yul\":9843:9878   */\n  swap1\n  pop\n    /* \"#utility.yul\":9815:9892   */\ntag_161:\n    /* \"#utility.yul\":9918:9985   */\n  tag_162\n    /* \"#utility.yul\":9978:9984   */\n  dup6\n    /* \"#utility.yul\":9971:9976   */\n  dup3\n    /* \"#utility.yul\":9918:9985   */\n  tag_48\n  jump\t// in\ntag_162:\n    /* \"#utility.yul\":9912:9916   */\n  dup7\n    /* \"#utility.yul\":9905:9986   */\n  sstore\n    /* \"#utility.yul\":9774:9996   */\n  pop\n    /* \"#utility.yul\":9109:9996   */\n  jump(tag_159)\n    /* \"#utility.yul\":9139:9757   */\ntag_160:\n    /* \"#utility.yul\":9191:9195   */\n  0x1f\n    /* \"#utility.yul\":9187:9196   */\n  not\n    /* \"#utility.yul\":9179:9185   */\n  dup5\n    /* \"#utility.yul\":9175:9197   */\n  and\n    /* \"#utility.yul\":9225:9262   */\n  tag_163\n    /* \"#utility.yul\":9257:9261   */\n  dup7\n    /* \"#utility.yul\":9225:9262   */\n  tag_34\n  jump\t// in\ntag_163:\n    /* \"#utility.yul\":9284:9285   */\n  0x00\n    /* \"#utility.yul\":9298:9506   */\ntag_164:\n    /* \"#utility.yul\":9312:9319   */\n  dup3\n    /* \"#utility.yul\":9309:9310   */\n  dup2\n    /* \"#utility.yul\":9306:9320   */\n  lt\n    /* \"#utility.yul\":9298:9506   */\n  iszero\n  tag_166\n  jumpi\n    /* \"#utility.yul\":9391:9400   */\n  dup5\n    /* \"#utility.yul\":9386:9389   */\n  dup10\n    /* \"#utility.yul\":9382:9401   */\n  add\n    /* \"#utility.yul\":9376:9402   */\n  mload\n    /* \"#utility.yul\":9368:9374   */\n  dup3\n    /* \"#utility.yul\":9361:9403   */\n  sstore\n    /* \"#utility.yul\":9442:9443   */\n  0x01\n    /* \"#utility.yul\":9434:9440   */\n  dup3\n    /* \"#utility.yul\":9430:9444   */\n  add\n    /* \"#utility.yul\":9420:9444   */\n  swap2\n  pop\n    /* \"#utility.yul\":9489:9491   */\n  0x20\n    /* \"#utility.yul\":9478:9487   */\n  dup6\n    /* \"#utility.yul\":9474:9492   */\n  add\n    /* \"#utility.yul\":9461:9492   */\n  swap5\n  pop\n    /* \"#utility.yul\":9335:9339   */\n  0x20\n    /* \"#utility.yul\":9332:9333   */\n  dup2\n    /* \"#utility.yul\":9328:9340   */\n  add\n    /* \"#utility.yul\":9323:9340   */\n  swap1\n  pop\n    /* \"#utility.yul\":9298:9506   */\n  jump(tag_164)\ntag_166:\n    /* \"#utility.yul\":9534:9540   */\n  dup7\n    /* \"#utility.yul\":9525:9532   */\n  dup4\n    /* \"#utility.yul\":9522:9541   */\n  lt\n    /* \"#utility.yul\":9519:9698   */\n  iszero\n  tag_167\n  jumpi\n    /* \"#utility.yul\":9592:9601   */\n  dup5\n    /* \"#utility.yul\":9587:9590   */\n  dup10\n    /* \"#utility.yul\":9583:9602   */\n  add\n    /* \"#utility.yul\":9577:9603   */\n  mload\n    /* \"#utility.yul\":9635:9683   */\n  tag_168\n    /* \"#utility.yul\":9677:9681   */\n  0x1f\n    /* \"#utility.yul\":9669:9675   */\n  dup10\n    /* \"#utility.yul\":9665:9682   */\n  and\n    /* \"#utility.yul\":9654:9663   */\n  dup3\n    /* \"#utility.yul\":9635:9683   */\n  tag_47\n  jump\t// in\ntag_168:\n    /* \"#utility.yul\":9627:9633   */\n  dup4\n    /* \"#utility.yul\":9620:9684   */\n  sstore\n    /* \"#utility.yul\":9542:9698   */\n  pop\n    /* \"#utility.yul\":9519:9698   */\ntag_167:\n    /* \"#utility.yul\":9744:9745   */\n  0x01\n    /* \"#utility.yul\":9740:9741   */\n  0x02\n    /* \"#utility.yul\":9732:9738   */\n  dup9\n    /* \"#utility.yul\":9728:9742   */\n  mul\n    /* \"#utility.yul\":9724:9746   */\n  add\n    /* \"#utility.yul\":9718:9722   */\n  dup9\n    /* \"#utility.yul\":9711:9747   */\n  sstore\n    /* \"#utility.yul\":9146:9757   */\n  pop\n  pop\n  pop\n    /* \"#utility.yul\":9109:9996   */\ntag_159:\n  pop\n    /* \"#utility.yul\":8699:10002   */\n  pop\n  pop\n  pop\n    /* \"#utility.yul\":8607:10002   */\n  pop\n  pop\n  jump\t// out\n    /* \"Donate.sol\":711:3551  contract Donate {... */\ntag_10:\n  dataSize(sub_0)\n  dup1\n  dataOffset(sub_0)\n  0x00\n  codecopy\n  0x00\n  return\nstop\n\nsub_0: assembly {\n        /* \"Donate.sol\":711:3551  contract Donate {... */\n      mstore(0x40, 0x80)\n      jumpi(tag_1, lt(calldatasize, 0x04))\n      shr(0xe0, calldataload(0x00))\n      dup1\n      0x82fde093\n      gt\n      tag_16\n      jumpi\n      dup1\n      0xa9c31840\n      gt\n      tag_17\n      jumpi\n      dup1\n      0xa9c31840\n      eq\n      tag_12\n      jumpi\n      dup1\n      0xd7bb99ba\n      eq\n      tag_13\n      jumpi\n      dup1\n      0xdfd693ad\n      eq\n      tag_14\n      jumpi\n      dup1\n      0xf9ade79a\n      eq\n      tag_15\n      jumpi\n      jump(tag_1)\n    tag_17:\n      dup1\n      0x82fde093\n      eq\n      tag_9\n      jumpi\n      dup1\n      0x937e09b1\n      eq\n      tag_10\n      jumpi\n      dup1\n      0xa578182c\n      eq\n      tag_11\n      jumpi\n      jump(tag_1)\n    tag_16:\n      dup1\n      0x496c8ada\n      gt\n      tag_18\n      jumpi\n      dup1\n      0x496c8ada\n      eq\n      tag_5\n      jumpi\n      dup1\n      0x564d45cb\n      eq\n      tag_6\n      jumpi\n      dup1\n      0x66d003ac\n      eq\n      tag_7\n      jumpi\n      dup1\n      0x7284e416\n      eq\n      tag_8\n      jumpi\n      jump(tag_1)\n    tag_18:\n      dup1\n      0x0a144391\n      eq\n      tag_2\n      jumpi\n      dup1\n      0x0db56ccd\n      eq\n      tag_3\n      jumpi\n      dup1\n      0x4051ddac\n      eq\n      tag_4\n      jumpi\n    tag_1:\n      0x00\n      dup1\n      revert\n        /* \"Donate.sol\":1116:1157  mapping(address => bool) public approvers */\n    tag_2:\n      callvalue\n      dup1\n      iszero\n      tag_19\n      jumpi\n      0x00\n      dup1\n      revert\n    tag_19:\n      pop\n      tag_20\n      0x04\n      dup1\n      calldatasize\n      sub\n      dup2\n      add\n      swap1\n      tag_21\n      swap2\n      swap1\n      tag_22\n      jump\t// in\n    tag_21:\n      tag_23\n      jump\t// in\n    tag_20:\n      mload(0x40)\n      tag_24\n      swap2\n      swap1\n      tag_25\n      jump\t// in\n    tag_24:\n      mload(0x40)\n      dup1\n      swap2\n      sub\n      swap1\n      return\n        /* \"Donate.sol\":2576:2908  function endSpendRequest(uint _index) public restricted {... */\n    tag_3:\n      callvalue\n      dup1\n      iszero\n      tag_26\n      jumpi\n      0x00\n      dup1\n      revert\n    tag_26:\n      pop\n      tag_27\n      0x04\n      dup1\n      calldatasize\n      sub\n      dup2\n      add\n      swap1\n      tag_28\n      swap2\n      swap1\n      tag_29\n      jump\t// in\n    tag_28:\n      tag_30\n      jump\t// in\n    tag_27:\n      stop\n        /* \"Donate.sol\":2914:3439  function getSummary()... */\n    tag_4:\n      callvalue\n      dup1\n      iszero\n      tag_31\n      jumpi\n      0x00\n      dup1\n      revert\n    tag_31:\n      pop\n      tag_32\n      tag_33\n      jump\t// in\n    tag_32:\n      mload(0x40)\n      tag_34\n      swap9\n      swap8\n      swap7\n      swap6\n      swap5\n      swap4\n      swap3\n      swap2\n      swap1\n      tag_35\n      jump\t// in\n    tag_34:\n      mload(0x40)\n      dup1\n      swap2\n      sub\n      swap1\n      return\n        /* \"Donate.sol\":907:942  SpendRequest[] public spendRequests */\n    tag_5:\n      callvalue\n      dup1\n      iszero\n      tag_36\n      jumpi\n      0x00\n      dup1\n      revert\n    tag_36:\n      pop\n      tag_37\n      0x04\n      dup1\n      calldatasize\n      sub\n      dup2\n      add\n      swap1\n      tag_38\n      swap2\n      swap1\n      tag_29\n      jump\t// in\n    tag_38:\n      tag_39\n      jump\t// in\n    tag_37:\n      mload(0x40)\n      tag_40\n      swap5\n      swap4\n      swap3\n      swap2\n      swap1\n      tag_41\n      jump\t// in\n    tag_40:\n      mload(0x40)\n      dup1\n      swap2\n      sub\n      swap1\n      return\n        /* \"Donate.sol\":1015:1042  string public recipientName */\n    tag_6:\n      callvalue\n      dup1\n      iszero\n      tag_42\n      jumpi\n      0x00\n      dup1\n      revert\n    tag_42:\n      pop\n      tag_43\n      tag_44\n      jump\t// in\n    tag_43:\n      mload(0x40)\n      tag_45\n      swap2\n      swap1\n      tag_46\n      jump\t// in\n    tag_45:\n      mload(0x40)\n      dup1\n      swap2\n      sub\n      swap1\n      return\n        /* \"Donate.sol\":948:972  address public recipient */\n    tag_7:\n      callvalue\n      dup1\n      iszero\n      tag_47\n      jumpi\n      0x00\n      dup1\n      revert\n    tag_47:\n      pop\n      tag_48\n      tag_49\n      jump\t// in\n    tag_48:\n      mload(0x40)\n      tag_50\n      swap2\n      swap1\n      tag_51\n      jump\t// in\n    tag_50:\n      mload(0x40)\n      dup1\n      swap2\n      sub\n      swap1\n      return\n        /* \"Donate.sol\":1085:1110  string public description */\n    tag_8:\n      callvalue\n      dup1\n      iszero\n      tag_52\n      jumpi\n      0x00\n      dup1\n      revert\n    tag_52:\n      pop\n      tag_53\n      tag_54\n      jump\t// in\n    tag_53:\n      mload(0x40)\n      tag_55\n      swap2\n      swap1\n      tag_46\n      jump\t// in\n    tag_55:\n      mload(0x40)\n      dup1\n      swap2\n      sub\n      swap1\n      return\n        /* \"Donate.sol\":1163:1189  uint public approversCount */\n    tag_9:\n      callvalue\n      dup1\n      iszero\n      tag_56\n      jumpi\n      0x00\n      dup1\n      revert\n    tag_56:\n      pop\n      tag_57\n      tag_58\n      jump\t// in\n    tag_57:\n      mload(0x40)\n      tag_59\n      swap2\n      swap1\n      tag_60\n      jump\t// in\n    tag_59:\n      mload(0x40)\n      dup1\n      swap2\n      sub\n      swap1\n      return\n        /* \"Donate.sol\":978:1009  uint public minimumContribution */\n    tag_10:\n      callvalue\n      dup1\n      iszero\n      tag_61\n      jumpi\n      0x00\n      dup1\n      revert\n    tag_61:\n      pop\n      tag_62\n      tag_63\n      jump\t// in\n    tag_62:\n      mload(0x40)\n      tag_64\n      swap2\n      swap1\n      tag_60\n      jump\t// in\n    tag_64:\n      mload(0x40)\n      dup1\n      swap2\n      sub\n      swap1\n      return\n        /* \"Donate.sol\":2262:2570  function approveSpendRequest(uint _index) public {... */\n    tag_11:\n      callvalue\n      dup1\n      iszero\n      tag_65\n      jumpi\n      0x00\n      dup1\n      revert\n    tag_65:\n      pop\n      tag_66\n      0x04\n      dup1\n      calldatasize\n      sub\n      dup2\n      add\n      swap1\n      tag_67\n      swap2\n      swap1\n      tag_29\n      jump\t// in\n    tag_67:\n      tag_68\n      jump\t// in\n    tag_66:\n      stop\n        /* \"Donate.sol\":3445:3549  function getSpendRequestsCount() public view returns (uint) {... */\n    tag_12:\n      callvalue\n      dup1\n      iszero\n      tag_69\n      jumpi\n      0x00\n      dup1\n      revert\n    tag_69:\n      pop\n      tag_70\n      tag_71\n      jump\t// in\n    tag_70:\n      mload(0x40)\n      tag_72\n      swap2\n      swap1\n      tag_60\n      jump\t// in\n    tag_72:\n      mload(0x40)\n      dup1\n      swap2\n      sub\n      swap1\n      return\n        /* \"Donate.sol\":1732:1890  function contribute() public payable {... */\n    tag_13:\n      tag_73\n      tag_74\n      jump\t// in\n    tag_73:\n      stop\n        /* \"Donate.sol\":1048:1079  string public fundraisingReason */\n    tag_14:\n      callvalue\n      dup1\n      iszero\n      tag_75\n      jumpi\n      0x00\n      dup1\n      revert\n    tag_75:\n      pop\n      tag_76\n      tag_77\n      jump\t// in\n    tag_76:\n      mload(0x40)\n      tag_78\n      swap2\n      swap1\n      tag_46\n      jump\t// in\n    tag_78:\n      mload(0x40)\n      dup1\n      swap2\n      sub\n      swap1\n      return\n        /* \"Donate.sol\":1896:2256  function createSpendRequest(... */\n    tag_15:\n      callvalue\n      dup1\n      iszero\n      tag_79\n      jumpi\n      0x00\n      dup1\n      revert\n    tag_79:\n      pop\n      tag_80\n      0x04\n      dup1\n      calldatasize\n      sub\n      dup2\n      add\n      swap1\n      tag_81\n      swap2\n      swap1\n      tag_82\n      jump\t// in\n    tag_81:\n      tag_83\n      jump\t// in\n    tag_80:\n      stop\n        /* \"Donate.sol\":1116:1157  mapping(address => bool) public approvers */\n    tag_23:\n      mstore(0x20, 0x06)\n      dup1\n      0x00\n      mstore\n      keccak256(0x00, 0x40)\n      0x00\n      swap2\n      pop\n      sload\n      swap1\n      0x0100\n      exp\n      swap1\n      div\n      0xff\n      and\n      dup2\n      jump\t// out\n        /* \"Donate.sol\":2576:2908  function endSpendRequest(uint _index) public restricted {... */\n    tag_30:\n        /* \"Donate.sol\":1250:1259  recipient */\n      0x01\n      0x00\n      swap1\n      sload\n      swap1\n      0x0100\n      exp\n      swap1\n      div\n      0xffffffffffffffffffffffffffffffffffffffff\n      and\n        /* \"Donate.sol\":1236:1259  msg.sender == recipient */\n      0xffffffffffffffffffffffffffffffffffffffff\n      and\n        /* \"Donate.sol\":1236:1246  msg.sender */\n      caller\n        /* \"Donate.sol\":1236:1259  msg.sender == recipient */\n      0xffffffffffffffffffffffffffffffffffffffff\n      and\n      eq\n        /* \"Donate.sol\":1228:1260  require(msg.sender == recipient) */\n      tag_85\n      jumpi\n      0x00\n      dup1\n      revert\n    tag_85:\n        /* \"Donate.sol\":2642:2675  SpendRequest storage spendRequest */\n      0x00\n        /* \"Donate.sol\":2678:2691  spendRequests */\n      dup1\n        /* \"Donate.sol\":2692:2698  _index */\n      dup3\n        /* \"Donate.sol\":2678:2699  spendRequests[_index] */\n      dup2\n      sload\n      dup2\n      lt\n      tag_87\n      jumpi\n      tag_88\n      tag_89\n      jump\t// in\n    tag_88:\n    tag_87:\n      swap1\n      0x00\n      mstore\n      keccak256(0x00, 0x20)\n      swap1\n      0x05\n      mul\n      add\n        /* \"Donate.sol\":2642:2699  SpendRequest storage spendRequest = spendRequests[_index] */\n      swap1\n      pop\n        /* \"Donate.sol\":2765:2766  2 */\n      0x02\n        /* \"Donate.sol\":2748:2762  approversCount */\n      sload(0x07)\n        /* \"Donate.sol\":2748:2766  approversCount / 2 */\n      tag_91\n      swap2\n      swap1\n      tag_92\n      jump\t// in\n    tag_91:\n        /* \"Donate.sol\":2718:2730  spendRequest */\n      dup2\n        /* \"Donate.sol\":2718:2744  spendRequest.approvalCount */\n      0x03\n      add\n      sload\n        /* \"Donate.sol\":2718:2767  spendRequest.approvalCount > (approversCount / 2) */\n      gt\n        /* \"Donate.sol\":2710:2768  require(spendRequest.approvalCount > (approversCount / 2)) */\n      tag_93\n      jumpi\n      0x00\n      dup1\n      revert\n    tag_93:\n        /* \"Donate.sol\":2787:2799  spendRequest */\n      dup1\n        /* \"Donate.sol\":2787:2806  spendRequest.finish */\n      0x02\n      add\n      0x00\n      swap1\n      sload\n      swap1\n      0x0100\n      exp\n      swap1\n      div\n      0xff\n      and\n        /* \"Donate.sol\":2786:2806  !spendRequest.finish */\n      iszero\n        /* \"Donate.sol\":2778:2807  require(!spendRequest.finish) */\n      tag_94\n      jumpi\n      0x00\n      dup1\n      revert\n    tag_94:\n        /* \"Donate.sol\":2826:2835  recipient */\n      0x01\n      0x00\n      swap1\n      sload\n      swap1\n      0x0100\n      exp\n      swap1\n      div\n      0xffffffffffffffffffffffffffffffffffffffff\n      and\n        /* \"Donate.sol\":2818:2845  payable(recipient).transfer */\n      0xffffffffffffffffffffffffffffffffffffffff\n      and\n        /* \"Donate.sol\":2818:2865  payable(recipient).transfer(spendRequest.value) */\n      0x08fc\n        /* \"Donate.sol\":2846:2858  spendRequest */\n      dup3\n        /* \"Donate.sol\":2846:2864  spendRequest.value */\n      0x01\n      add\n      sload\n        /* \"Donate.sol\":2818:2865  payable(recipient).transfer(spendRequest.value) */\n      swap1\n      dup2\n      iszero\n      mul\n      swap1\n      mload(0x40)\n      0x00\n      mload(0x40)\n      dup1\n      dup4\n      sub\n      dup2\n      dup6\n      dup9\n      dup9\n      call\n      swap4\n      pop\n      pop\n      pop\n      pop\n      iszero\n      dup1\n      iszero\n      tag_96\n      jumpi\n      returndatasize\n      0x00\n      dup1\n      returndatacopy\n      revert(0x00, returndatasize)\n    tag_96:\n      pop\n        /* \"Donate.sol\":2897:2901  true */\n      0x01\n        /* \"Donate.sol\":2875:2887  spendRequest */\n      dup2\n        /* \"Donate.sol\":2875:2894  spendRequest.finish */\n      0x02\n      add\n      0x00\n        /* \"Donate.sol\":2875:2901  spendRequest.finish = true */\n      0x0100\n      exp\n      dup2\n      sload\n      dup2\n      0xff\n      mul\n      not\n      and\n      swap1\n      dup4\n      iszero\n      iszero\n      mul\n      or\n      swap1\n      sstore\n      pop\n        /* \"Donate.sol\":2632:2908  {... */\n      pop\n        /* \"Donate.sol\":2576:2908  function endSpendRequest(uint _index) public restricted {... */\n      pop\n      jump\t// out\n        /* \"Donate.sol\":2914:3439  function getSummary()... */\n    tag_33:\n        /* \"Donate.sol\":2994:3007  string memory */\n      0x60\n        /* \"Donate.sol\":3021:3034  string memory */\n      dup1\n        /* \"Donate.sol\":3048:3061  string memory */\n      0x60\n        /* \"Donate.sol\":3075:3079  uint */\n      0x00\n        /* \"Donate.sol\":3093:3097  uint */\n      dup1\n        /* \"Donate.sol\":3111:3115  uint */\n      0x00\n        /* \"Donate.sol\":3129:3133  uint */\n      dup1\n        /* \"Donate.sol\":3147:3154  address */\n      0x00\n        /* \"Donate.sol\":3200:3213  recipientName */\n      0x03\n        /* \"Donate.sol\":3227:3244  fundraisingReason */\n      0x04\n        /* \"Donate.sol\":3258:3269  description */\n      0x05\n        /* \"Donate.sol\":3283:3302  minimumContribution */\n      sload(0x02)\n        /* \"Donate.sol\":3316:3337  address(this).balance */\n      selfbalance\n        /* \"Donate.sol\":3351:3364  spendRequests */\n      0x00\n        /* \"Donate.sol\":3351:3371  spendRequests.length */\n      dup1\n      sload\n      swap1\n      pop\n        /* \"Donate.sol\":3385:3399  approversCount */\n      sload(0x07)\n        /* \"Donate.sol\":3413:3422  recipient */\n      0x01\n      0x00\n      swap1\n      sload\n      swap1\n      0x0100\n      exp\n      swap1\n      div\n      0xffffffffffffffffffffffffffffffffffffffff\n      and\n        /* \"Donate.sol\":3179:3432  return (... */\n      dup8\n      dup1\n      sload\n      tag_98\n      swap1\n      tag_99\n      jump\t// in\n    tag_98:\n      dup1\n      0x1f\n      add\n      0x20\n      dup1\n      swap2\n      div\n      mul\n      0x20\n      add\n      mload(0x40)\n      swap1\n      dup2\n      add\n      0x40\n      mstore\n      dup1\n      swap3\n      swap2\n      swap1\n      dup2\n      dup2\n      mstore\n      0x20\n      add\n      dup3\n      dup1\n      sload\n      tag_100\n      swap1\n      tag_99\n      jump\t// in\n    tag_100:\n      dup1\n      iszero\n      tag_101\n      jumpi\n      dup1\n      0x1f\n      lt\n      tag_102\n      jumpi\n      0x0100\n      dup1\n      dup4\n      sload\n      div\n      mul\n      dup4\n      mstore\n      swap2\n      0x20\n      add\n      swap2\n      jump(tag_101)\n    tag_102:\n      dup3\n      add\n      swap2\n      swap1\n      0x00\n      mstore\n      keccak256(0x00, 0x20)\n      swap1\n    tag_103:\n      dup2\n      sload\n      dup2\n      mstore\n      swap1\n      0x01\n      add\n      swap1\n      0x20\n      add\n      dup1\n      dup4\n      gt\n      tag_103\n      jumpi\n      dup3\n      swap1\n      sub\n      0x1f\n      and\n      dup3\n      add\n      swap2\n    tag_101:\n      pop\n      pop\n      pop\n      pop\n      pop\n      swap8\n      pop\n      dup7\n      dup1\n      sload\n      tag_104\n      swap1\n      tag_99\n      jump\t// in\n    tag_104:\n      dup1\n      0x1f\n      add\n      0x20\n      dup1\n      swap2\n      div\n      mul\n      0x20\n      add\n      mload(0x40)\n      swap1\n      dup2\n      add\n      0x40\n      mstore\n      dup1\n      swap3\n      swap2\n      swap1\n      dup2\n      dup2\n      mstore\n      0x20\n      add\n      dup3\n      dup1\n      sload\n      tag_105\n      swap1\n      tag_99\n      jump\t// in\n    tag_105:\n      dup1\n      iszero\n      tag_106\n      jumpi\n      dup1\n      0x1f\n      lt\n      tag_107\n      jumpi\n      0x0100\n      dup1\n      dup4\n      sload\n      div\n      mul\n      dup4\n      mstore\n      swap2\n      0x20\n      add\n      swap2\n      jump(tag_106)\n    tag_107:\n      dup3\n      add\n      swap2\n      swap1\n      0x00\n      mstore\n      keccak256(0x00, 0x20)\n      swap1\n    tag_108:\n      dup2\n      sload\n      dup2\n      mstore\n      swap1\n      0x01\n      add\n      swap1\n      0x20\n      add\n      dup1\n      dup4\n      gt\n      tag_108\n      jumpi\n      dup3\n      swap1\n      sub\n      0x1f\n      and\n      dup3\n      add\n      swap2\n    tag_106:\n      pop\n      pop\n      pop\n      pop\n      pop\n      swap7\n      pop\n      dup6\n      dup1\n      sload\n      tag_109\n      swap1\n      tag_99\n      jump\t// in\n    tag_109:\n      dup1\n      0x1f\n      add\n      0x20\n      dup1\n      swap2\n      div\n      mul\n      0x20\n      add\n      mload(0x40)\n      swap1\n      dup2\n      add\n      0x40\n      mstore\n      dup1\n      swap3\n      swap2\n      swap1\n      dup2\n      dup2\n      mstore\n      0x20\n      add\n      dup3\n      dup1\n      sload\n      tag_110\n      swap1\n      tag_99\n      jump\t// in\n    tag_110:\n      dup1\n      iszero\n      tag_111\n      jumpi\n      dup1\n      0x1f\n      lt\n      tag_112\n      jumpi\n      0x0100\n      dup1\n      dup4\n      sload\n      div\n      mul\n      dup4\n      mstore\n      swap2\n      0x20\n      add\n      swap2\n      jump(tag_111)\n    tag_112:\n      dup3\n      add\n      swap2\n      swap1\n      0x00\n      mstore\n      keccak256(0x00, 0x20)\n      swap1\n    tag_113:\n      dup2\n      sload\n      dup2\n      mstore\n      swap1\n      0x01\n      add\n      swap1\n      0x20\n      add\n      dup1\n      dup4\n      gt\n      tag_113\n      jumpi\n      dup3\n      swap1\n      sub\n      0x1f\n      and\n      dup3\n      add\n      swap2\n    tag_111:\n      pop\n      pop\n      pop\n      pop\n      pop\n      swap6\n      pop\n      swap8\n      pop\n      swap8\n      pop\n      swap8\n      pop\n      swap8\n      pop\n      swap8\n      pop\n      swap8\n      pop\n      swap8\n      pop\n      swap8\n      pop\n        /* \"Donate.sol\":2914:3439  function getSummary()... */\n      swap1\n      swap2\n      swap3\n      swap4\n      swap5\n      swap6\n      swap7\n      swap8\n      jump\t// out\n        /* \"Donate.sol\":907:942  SpendRequest[] public spendRequests */\n    tag_39:\n      0x00\n      dup2\n      dup2\n      sload\n      dup2\n      lt\n      tag_114\n      jumpi\n      0x00\n      dup1\n      revert\n    tag_114:\n      swap1\n      0x00\n      mstore\n      keccak256(0x00, 0x20)\n      swap1\n      0x05\n      mul\n      add\n      0x00\n      swap2\n      pop\n      swap1\n      pop\n      dup1\n      0x00\n      add\n      dup1\n      sload\n      tag_116\n      swap1\n      tag_99\n      jump\t// in\n    tag_116:\n      dup1\n      0x1f\n      add\n      0x20\n      dup1\n      swap2\n      div\n      mul\n      0x20\n      add\n      mload(0x40)\n      swap1\n      dup2\n      add\n      0x40\n      mstore\n      dup1\n      swap3\n      swap2\n      swap1\n      dup2\n      dup2\n      mstore\n      0x20\n      add\n      dup3\n      dup1\n      sload\n      tag_117\n      swap1\n      tag_99\n      jump\t// in\n    tag_117:\n      dup1\n      iszero\n      tag_118\n      jumpi\n      dup1\n      0x1f\n      lt\n      tag_119\n      jumpi\n      0x0100\n      dup1\n      dup4\n      sload\n      div\n      mul\n      dup4\n      mstore\n      swap2\n      0x20\n      add\n      swap2\n      jump(tag_118)\n    tag_119:\n      dup3\n      add\n      swap2\n      swap1\n      0x00\n      mstore\n      keccak256(0x00, 0x20)\n      swap1\n    tag_120:\n      dup2\n      sload\n      dup2\n      mstore\n      swap1\n      0x01\n      add\n      swap1\n      0x20\n      add\n      dup1\n      dup4\n      gt\n      tag_120\n      jumpi\n      dup3\n      swap1\n      sub\n      0x1f\n      and\n      dup3\n      add\n      swap2\n    tag_118:\n      pop\n      pop\n      pop\n      pop\n      pop\n      swap1\n      dup1\n      0x01\n      add\n      sload\n      swap1\n      dup1\n      0x02\n      add\n      0x00\n      swap1\n      sload\n      swap1\n      0x0100\n      exp\n      swap1\n      div\n      0xff\n      and\n      swap1\n      dup1\n      0x03\n      add\n      sload\n      swap1\n      pop\n      dup5\n      jump\t// out\n        /* \"Donate.sol\":1015:1042  string public recipientName */\n    tag_44:\n      0x03\n      dup1\n      sload\n      tag_121\n      swap1\n      tag_99\n      jump\t// in\n    tag_121:\n      dup1\n      0x1f\n      add\n      0x20\n      dup1\n      swap2\n      div\n      mul\n      0x20\n      add\n      mload(0x40)\n      swap1\n      dup2\n      add\n      0x40\n      mstore\n      dup1\n      swap3\n      swap2\n      swap1\n      dup2\n      dup2\n      mstore\n      0x20\n      add\n      dup3\n      dup1\n      sload\n      tag_122\n      swap1\n      tag_99\n      jump\t// in\n    tag_122:\n      dup1\n      iszero\n      tag_123\n      jumpi\n      dup1\n      0x1f\n      lt\n      tag_124\n      jumpi\n      0x0100\n      dup1\n      dup4\n      sload\n      div\n      mul\n      dup4\n      mstore\n      swap2\n      0x20\n      add\n      swap2\n      jump(tag_123)\n    tag_124:\n      dup3\n      add\n      swap2\n      swap1\n      0x00\n      mstore\n      keccak256(0x00, 0x20)\n      swap1\n    tag_125:\n      dup2\n      sload\n      dup2\n      mstore\n      swap1\n      0x01\n      add\n      swap1\n      0x20\n      add\n      dup1\n      dup4\n      gt\n      tag_125\n      jumpi\n      dup3\n      swap1\n      sub\n      0x1f\n      and\n      dup3\n      add\n      swap2\n    tag_123:\n      pop\n      pop\n      pop\n      pop\n      pop\n      dup2\n      jump\t// out\n        /* \"Donate.sol\":948:972  address public recipient */\n    tag_49:\n      0x01\n      0x00\n      swap1\n      sload\n      swap1\n      0x0100\n      exp\n      swap1\n      div\n      0xffffffffffffffffffffffffffffffffffffffff\n      and\n      dup2\n      jump\t// out\n        /* \"Donate.sol\":1085:1110  string public description */\n    tag_54:\n      0x05\n      dup1\n      sload\n      tag_126\n      swap1\n      tag_99\n      jump\t// in\n    tag_126:\n      dup1\n      0x1f\n      add\n      0x20\n      dup1\n      swap2\n      div\n      mul\n      0x20\n      add\n      mload(0x40)\n      swap1\n      dup2\n      add\n      0x40\n      mstore\n      dup1\n      swap3\n      swap2\n      swap1\n      dup2\n      dup2\n      mstore\n      0x20\n      add\n      dup3\n      dup1\n      sload\n      tag_127\n      swap1\n      tag_99\n      jump\t// in\n    tag_127:\n      dup1\n      iszero\n      tag_128\n      jumpi\n      dup1\n      0x1f\n      lt\n      tag_129\n      jumpi\n      0x0100\n      dup1\n      dup4\n      sload\n      div\n      mul\n      dup4\n      mstore\n      swap2\n      0x20\n      add\n      swap2\n      jump(tag_128)\n    tag_129:\n      dup3\n      add\n      swap2\n      swap1\n      0x00\n      mstore\n      keccak256(0x00, 0x20)\n      swap1\n    tag_130:\n      dup2\n      sload\n      dup2\n      mstore\n      swap1\n      0x01\n      add\n      swap1\n      0x20\n      add\n      dup1\n      dup4\n      gt\n      tag_130\n      jumpi\n      dup3\n      swap1\n      sub\n      0x1f\n      and\n      dup3\n      add\n      swap2\n    tag_128:\n      pop\n      pop\n      pop\n      pop\n      pop\n      dup2\n      jump\t// out\n        /* \"Donate.sol\":1163:1189  uint public approversCount */\n    tag_58:\n      sload(0x07)\n      dup2\n      jump\t// out\n        /* \"Donate.sol\":978:1009  uint public minimumContribution */\n    tag_63:\n      sload(0x02)\n      dup2\n      jump\t// out\n        /* \"Donate.sol\":2262:2570  function approveSpendRequest(uint _index) public {... */\n    tag_68:\n        /* \"Donate.sol\":2321:2354  SpendRequest storage spendRequest */\n      0x00\n        /* \"Donate.sol\":2357:2370  spendRequests */\n      dup1\n        /* \"Donate.sol\":2371:2377  _index */\n      dup3\n        /* \"Donate.sol\":2357:2378  spendRequests[_index] */\n      dup2\n      sload\n      dup2\n      lt\n      tag_132\n      jumpi\n      tag_133\n      tag_89\n      jump\t// in\n    tag_133:\n    tag_132:\n      swap1\n      0x00\n      mstore\n      keccak256(0x00, 0x20)\n      swap1\n      0x05\n      mul\n      add\n        /* \"Donate.sol\":2321:2378  SpendRequest storage spendRequest = spendRequests[_index] */\n      swap1\n      pop\n        /* \"Donate.sol\":2397:2406  approvers */\n      0x06\n        /* \"Donate.sol\":2397:2418  approvers[msg.sender] */\n      0x00\n        /* \"Donate.sol\":2407:2417  msg.sender */\n      caller\n        /* \"Donate.sol\":2397:2418  approvers[msg.sender] */\n      0xffffffffffffffffffffffffffffffffffffffff\n      and\n      0xffffffffffffffffffffffffffffffffffffffff\n      and\n      dup2\n      mstore\n      0x20\n      add\n      swap1\n      dup2\n      mstore\n      0x20\n      add\n      0x00\n      keccak256\n      0x00\n      swap1\n      sload\n      swap1\n      0x0100\n      exp\n      swap1\n      div\n      0xff\n      and\n        /* \"Donate.sol\":2389:2419  require(approvers[msg.sender]) */\n      tag_135\n      jumpi\n      0x00\n      dup1\n      revert\n    tag_135:\n        /* \"Donate.sol\":2438:2450  spendRequest */\n      dup1\n        /* \"Donate.sol\":2438:2460  spendRequest.approvals */\n      0x04\n      add\n        /* \"Donate.sol\":2438:2472  spendRequest.approvals[msg.sender] */\n      0x00\n        /* \"Donate.sol\":2461:2471  msg.sender */\n      caller\n        /* \"Donate.sol\":2438:2472  spendRequest.approvals[msg.sender] */\n      0xffffffffffffffffffffffffffffffffffffffff\n      and\n      0xffffffffffffffffffffffffffffffffffffffff\n      and\n      dup2\n      mstore\n      0x20\n      add\n      swap1\n      dup2\n      mstore\n      0x20\n      add\n      0x00\n      keccak256\n      0x00\n      swap1\n      sload\n      swap1\n      0x0100\n      exp\n      swap1\n      div\n      0xff\n      and\n        /* \"Donate.sol\":2437:2472  !spendRequest.approvals[msg.sender] */\n      iszero\n        /* \"Donate.sol\":2429:2473  require(!spendRequest.approvals[msg.sender]) */\n      tag_136\n      jumpi\n      0x00\n      dup1\n      revert\n    tag_136:\n        /* \"Donate.sol\":2521:2525  true */\n      0x01\n        /* \"Donate.sol\":2484:2496  spendRequest */\n      dup2\n        /* \"Donate.sol\":2484:2506  spendRequest.approvals */\n      0x04\n      add\n        /* \"Donate.sol\":2484:2518  spendRequest.approvals[msg.sender] */\n      0x00\n        /* \"Donate.sol\":2507:2517  msg.sender */\n      caller\n        /* \"Donate.sol\":2484:2518  spendRequest.approvals[msg.sender] */\n      0xffffffffffffffffffffffffffffffffffffffff\n      and\n      0xffffffffffffffffffffffffffffffffffffffff\n      and\n      dup2\n      mstore\n      0x20\n      add\n      swap1\n      dup2\n      mstore\n      0x20\n      add\n      0x00\n      keccak256\n      0x00\n        /* \"Donate.sol\":2484:2525  spendRequest.approvals[msg.sender] = true */\n      0x0100\n      exp\n      dup2\n      sload\n      dup2\n      0xff\n      mul\n      not\n      and\n      swap1\n      dup4\n      iszero\n      iszero\n      mul\n      or\n      swap1\n      sstore\n      pop\n        /* \"Donate.sol\":2535:2547  spendRequest */\n      dup1\n        /* \"Donate.sol\":2535:2561  spendRequest.approvalCount */\n      0x03\n      add\n      0x00\n        /* \"Donate.sol\":2535:2563  spendRequest.approvalCount++ */\n      dup2\n      sload\n      dup1\n      swap3\n      swap2\n      swap1\n      tag_137\n      swap1\n      tag_138\n      jump\t// in\n    tag_137:\n      swap2\n      swap1\n      pop\n      sstore\n      pop\n        /* \"Donate.sol\":2311:2570  {... */\n      pop\n        /* \"Donate.sol\":2262:2570  function approveSpendRequest(uint _index) public {... */\n      pop\n      jump\t// out\n        /* \"Donate.sol\":3445:3549  function getSpendRequestsCount() public view returns (uint) {... */\n    tag_71:\n        /* \"Donate.sol\":3499:3503  uint */\n      0x00\n        /* \"Donate.sol\":3522:3535  spendRequests */\n      dup1\n        /* \"Donate.sol\":3522:3542  spendRequests.length */\n      dup1\n      sload\n      swap1\n      pop\n        /* \"Donate.sol\":3515:3542  return spendRequests.length */\n      swap1\n      pop\n        /* \"Donate.sol\":3445:3549  function getSpendRequestsCount() public view returns (uint) {... */\n      swap1\n      jump\t// out\n        /* \"Donate.sol\":1732:1890  function contribute() public payable {... */\n    tag_74:\n        /* \"Donate.sol\":1799:1818  minimumContribution */\n      sload(0x02)\n        /* \"Donate.sol\":1787:1796  msg.value */\n      callvalue\n        /* \"Donate.sol\":1787:1818  msg.value > minimumContribution */\n      gt\n        /* \"Donate.sol\":1779:1819  require(msg.value > minimumContribution) */\n      tag_141\n      jumpi\n      0x00\n      dup1\n      revert\n    tag_141:\n        /* \"Donate.sol\":1853:1857  true */\n      0x01\n        /* \"Donate.sol\":1829:1838  approvers */\n      0x06\n        /* \"Donate.sol\":1829:1850  approvers[msg.sender] */\n      0x00\n        /* \"Donate.sol\":1839:1849  msg.sender */\n      caller\n        /* \"Donate.sol\":1829:1850  approvers[msg.sender] */\n      0xffffffffffffffffffffffffffffffffffffffff\n      and\n      0xffffffffffffffffffffffffffffffffffffffff\n      and\n      dup2\n      mstore\n      0x20\n      add\n      swap1\n      dup2\n      mstore\n      0x20\n      add\n      0x00\n      keccak256\n      0x00\n        /* \"Donate.sol\":1829:1857  approvers[msg.sender] = true */\n      0x0100\n      exp\n      dup2\n      sload\n      dup2\n      0xff\n      mul\n      not\n      and\n      swap1\n      dup4\n      iszero\n      iszero\n      mul\n      or\n      swap1\n      sstore\n      pop\n        /* \"Donate.sol\":1867:1881  approversCount */\n      0x07\n      0x00\n        /* \"Donate.sol\":1867:1883  approversCount++ */\n      dup2\n      sload\n      dup1\n      swap3\n      swap2\n      swap1\n      tag_142\n      swap1\n      tag_138\n      jump\t// in\n    tag_142:\n      swap2\n      swap1\n      pop\n      sstore\n      pop\n        /* \"Donate.sol\":1732:1890  function contribute() public payable {... */\n      jump\t// out\n        /* \"Donate.sol\":1048:1079  string public fundraisingReason */\n    tag_77:\n      0x04\n      dup1\n      sload\n      tag_143\n      swap1\n      tag_99\n      jump\t// in\n    tag_143:\n      dup1\n      0x1f\n      add\n      0x20\n      dup1\n      swap2\n      div\n      mul\n      0x20\n      add\n      mload(0x40)\n      swap1\n      dup2\n      add\n      0x40\n      mstore\n      dup1\n      swap3\n      swap2\n      swap1\n      dup2\n      dup2\n      mstore\n      0x20\n      add\n      dup3\n      dup1\n      sload\n      tag_144\n      swap1\n      tag_99\n      jump\t// in\n    tag_144:\n      dup1\n      iszero\n      tag_145\n      jumpi\n      dup1\n      0x1f\n      lt\n      tag_146\n      jumpi\n      0x0100\n      dup1\n      dup4\n      sload\n      div\n      mul\n      dup4\n      mstore\n      swap2\n      0x20\n      add\n      swap2\n      jump(tag_145)\n    tag_146:\n      dup3\n      add\n      swap2\n      swap1\n      0x00\n      mstore\n      keccak256(0x00, 0x20)\n      swap1\n    tag_147:\n      dup2\n      sload\n      dup2\n      mstore\n      swap1\n      0x01\n      add\n      swap1\n      0x20\n      add\n      dup1\n      dup4\n      gt\n      tag_147\n      jumpi\n      dup3\n      swap1\n      sub\n      0x1f\n      and\n      dup3\n      add\n      swap2\n    tag_145:\n      pop\n      pop\n      pop\n      pop\n      pop\n      dup2\n      jump\t// out\n        /* \"Donate.sol\":1896:2256  function createSpendRequest(... */\n    tag_83:\n        /* \"Donate.sol\":1250:1259  recipient */\n      0x01\n      0x00\n      swap1\n      sload\n      swap1\n      0x0100\n      exp\n      swap1\n      div\n      0xffffffffffffffffffffffffffffffffffffffff\n      and\n        /* \"Donate.sol\":1236:1259  msg.sender == recipient */\n      0xffffffffffffffffffffffffffffffffffffffff\n      and\n        /* \"Donate.sol\":1236:1246  msg.sender */\n      caller\n        /* \"Donate.sol\":1236:1259  msg.sender == recipient */\n      0xffffffffffffffffffffffffffffffffffffffff\n      and\n      eq\n        /* \"Donate.sol\":1228:1260  require(msg.sender == recipient) */\n      tag_149\n      jumpi\n      0x00\n      dup1\n      revert\n    tag_149:\n        /* \"Donate.sol\":2015:2051  SpendRequest storage newSpendRequest */\n      0x00\n        /* \"Donate.sol\":2054:2067  spendRequests */\n      dup1\n        /* \"Donate.sol\":2054:2074  spendRequests.push() */\n      0x01\n      dup2\n      0x01\n      dup2\n      sload\n      add\n      dup1\n      dup3\n      sstore\n      dup1\n      swap2\n      pop\n      pop\n      sub\n      swap1\n      0x00\n      mstore\n      keccak256(0x00, 0x20)\n      swap1\n      0x05\n      mul\n      add\n        /* \"Donate.sol\":2015:2074  SpendRequest storage newSpendRequest = spendRequests.push() */\n      swap1\n      pop\n        /* \"Donate.sol\":2114:2126  _description */\n      dup3\n        /* \"Donate.sol\":2084:2099  newSpendRequest */\n      dup2\n        /* \"Donate.sol\":2084:2111  newSpendRequest.description */\n      0x00\n      add\n        /* \"Donate.sol\":2084:2126  newSpendRequest.description = _description */\n      swap1\n      dup2\n      tag_152\n      swap2\n      swap1\n      tag_153\n      jump\t// in\n    tag_152:\n      pop\n        /* \"Donate.sol\":2160:2166  _value */\n      dup2\n        /* \"Donate.sol\":2136:2151  newSpendRequest */\n      dup2\n        /* \"Donate.sol\":2136:2157  newSpendRequest.value */\n      0x01\n      add\n        /* \"Donate.sol\":2136:2166  newSpendRequest.value = _value */\n      dup2\n      swap1\n      sstore\n      pop\n        /* \"Donate.sol\":2201:2206  false */\n      0x00\n        /* \"Donate.sol\":2176:2191  newSpendRequest */\n      dup2\n        /* \"Donate.sol\":2176:2198  newSpendRequest.finish */\n      0x02\n      add\n      0x00\n        /* \"Donate.sol\":2176:2206  newSpendRequest.finish = false */\n      0x0100\n      exp\n      dup2\n      sload\n      dup2\n      0xff\n      mul\n      not\n      and\n      swap1\n      dup4\n      iszero\n      iszero\n      mul\n      or\n      swap1\n      sstore\n      pop\n        /* \"Donate.sol\":2248:2249  0 */\n      0x00\n        /* \"Donate.sol\":2216:2231  newSpendRequest */\n      dup2\n        /* \"Donate.sol\":2216:2245  newSpendRequest.approvalCount */\n      0x03\n      add\n        /* \"Donate.sol\":2216:2249  newSpendRequest.approvalCount = 0 */\n      dup2\n      swap1\n      sstore\n      pop\n        /* \"Donate.sol\":2005:2256  {... */\n      pop\n        /* \"Donate.sol\":1896:2256  function createSpendRequest(... */\n      pop\n      pop\n      jump\t// out\n        /* \"#utility.yul\":7:82   */\n    tag_154:\n        /* \"#utility.yul\":40:46   */\n      0x00\n        /* \"#utility.yul\":73:75   */\n      0x40\n        /* \"#utility.yul\":67:76   */\n      mload\n        /* \"#utility.yul\":57:76   */\n      swap1\n      pop\n        /* \"#utility.yul\":7:82   */\n      swap1\n      jump\t// out\n        /* \"#utility.yul\":88:205   */\n    tag_155:\n        /* \"#utility.yul\":197:198   */\n      0x00\n        /* \"#utility.yul\":194:195   */\n      dup1\n        /* \"#utility.yul\":187:199   */\n      revert\n        /* \"#utility.yul\":211:328   */\n    tag_156:\n        /* \"#utility.yul\":320:321   */\n      0x00\n        /* \"#utility.yul\":317:318   */\n      dup1\n        /* \"#utility.yul\":310:322   */\n      revert\n        /* \"#utility.yul\":334:460   */\n    tag_157:\n        /* \"#utility.yul\":371:378   */\n      0x00\n        /* \"#utility.yul\":411:453   */\n      0xffffffffffffffffffffffffffffffffffffffff\n        /* \"#utility.yul\":404:409   */\n      dup3\n        /* \"#utility.yul\":400:454   */\n      and\n        /* \"#utility.yul\":389:454   */\n      swap1\n      pop\n        /* \"#utility.yul\":334:460   */\n      swap2\n      swap1\n      pop\n      jump\t// out\n        /* \"#utility.yul\":466:562   */\n    tag_158:\n        /* \"#utility.yul\":503:510   */\n      0x00\n        /* \"#utility.yul\":532:556   */\n      tag_206\n        /* \"#utility.yul\":550:555   */\n      dup3\n        /* \"#utility.yul\":532:556   */\n      tag_157\n      jump\t// in\n    tag_206:\n        /* \"#utility.yul\":521:556   */\n      swap1\n      pop\n        /* \"#utility.yul\":466:562   */\n      swap2\n      swap1\n      pop\n      jump\t// out\n        /* \"#utility.yul\":568:690   */\n    tag_159:\n        /* \"#utility.yul\":641:665   */\n      tag_208\n        /* \"#utility.yul\":659:664   */\n      dup2\n        /* \"#utility.yul\":641:665   */\n      tag_158\n      jump\t// in\n    tag_208:\n        /* \"#utility.yul\":634:639   */\n      dup2\n        /* \"#utility.yul\":631:666   */\n      eq\n        /* \"#utility.yul\":621:684   */\n      tag_209\n      jumpi\n        /* \"#utility.yul\":680:681   */\n      0x00\n        /* \"#utility.yul\":677:678   */\n      dup1\n        /* \"#utility.yul\":670:682   */\n      revert\n        /* \"#utility.yul\":621:684   */\n    tag_209:\n        /* \"#utility.yul\":568:690   */\n      pop\n      jump\t// out\n        /* \"#utility.yul\":696:835   */\n    tag_160:\n        /* \"#utility.yul\":742:747   */\n      0x00\n        /* \"#utility.yul\":780:786   */\n      dup2\n        /* \"#utility.yul\":767:787   */\n      calldataload\n        /* \"#utility.yul\":758:787   */\n      swap1\n      pop\n        /* \"#utility.yul\":796:829   */\n      tag_211\n        /* \"#utility.yul\":823:828   */\n      dup2\n        /* \"#utility.yul\":796:829   */\n      tag_159\n      jump\t// in\n    tag_211:\n        /* \"#utility.yul\":696:835   */\n      swap3\n      swap2\n      pop\n      pop\n      jump\t// out\n        /* \"#utility.yul\":841:1170   */\n    tag_22:\n        /* \"#utility.yul\":900:906   */\n      0x00\n        /* \"#utility.yul\":949:951   */\n      0x20\n        /* \"#utility.yul\":937:946   */\n      dup3\n        /* \"#utility.yul\":928:935   */\n      dup5\n        /* \"#utility.yul\":924:947   */\n      sub\n        /* \"#utility.yul\":920:952   */\n      slt\n        /* \"#utility.yul\":917:1036   */\n      iszero\n      tag_213\n      jumpi\n        /* \"#utility.yul\":955:1034   */\n      tag_214\n      tag_155\n      jump\t// in\n    tag_214:\n        /* \"#utility.yul\":917:1036   */\n    tag_213:\n        /* \"#utility.yul\":1075:1076   */\n      0x00\n        /* \"#utility.yul\":1100:1153   */\n      tag_215\n        /* \"#utility.yul\":1145:1152   */\n      dup5\n        /* \"#utility.yul\":1136:1142   */\n      dup3\n        /* \"#utility.yul\":1125:1134   */\n      dup6\n        /* \"#utility.yul\":1121:1143   */\n      add\n        /* \"#utility.yul\":1100:1153   */\n      tag_160\n      jump\t// in\n    tag_215:\n        /* \"#utility.yul\":1090:1153   */\n      swap2\n      pop\n        /* \"#utility.yul\":1046:1163   */\n      pop\n        /* \"#utility.yul\":841:1170   */\n      swap3\n      swap2\n      pop\n      pop\n      jump\t// out\n        /* \"#utility.yul\":1176:1266   */\n    tag_161:\n        /* \"#utility.yul\":1210:1217   */\n      0x00\n        /* \"#utility.yul\":1253:1258   */\n      dup2\n        /* \"#utility.yul\":1246:1259   */\n      iszero\n        /* \"#utility.yul\":1239:1260   */\n      iszero\n        /* \"#utility.yul\":1228:1260   */\n      swap1\n      pop\n        /* \"#utility.yul\":1176:1266   */\n      swap2\n      swap1\n      pop\n      jump\t// out\n        /* \"#utility.yul\":1272:1381   */\n    tag_162:\n        /* \"#utility.yul\":1353:1374   */\n      tag_218\n        /* \"#utility.yul\":1368:1373   */\n      dup2\n        /* \"#utility.yul\":1353:1374   */\n      tag_161\n      jump\t// in\n    tag_218:\n        /* \"#utility.yul\":1348:1351   */\n      dup3\n        /* \"#utility.yul\":1341:1375   */\n      mstore\n        /* \"#utility.yul\":1272:1381   */\n      pop\n      pop\n      jump\t// out\n        /* \"#utility.yul\":1387:1597   */\n    tag_25:\n        /* \"#utility.yul\":1474:1478   */\n      0x00\n        /* \"#utility.yul\":1512:1514   */\n      0x20\n        /* \"#utility.yul\":1501:1510   */\n      dup3\n        /* \"#utility.yul\":1497:1515   */\n      add\n        /* \"#utility.yul\":1489:1515   */\n      swap1\n      pop\n        /* \"#utility.yul\":1525:1590   */\n      tag_220\n        /* \"#utility.yul\":1587:1588   */\n      0x00\n        /* \"#utility.yul\":1576:1585   */\n      dup4\n        /* \"#utility.yul\":1572:1589   */\n      add\n        /* \"#utility.yul\":1563:1569   */\n      dup5\n        /* \"#utility.yul\":1525:1590   */\n      tag_162\n      jump\t// in\n    tag_220:\n        /* \"#utility.yul\":1387:1597   */\n      swap3\n      swap2\n      pop\n      pop\n      jump\t// out\n        /* \"#utility.yul\":1603:1680   */\n    tag_163:\n        /* \"#utility.yul\":1640:1647   */\n      0x00\n        /* \"#utility.yul\":1669:1674   */\n      dup2\n        /* \"#utility.yul\":1658:1674   */\n      swap1\n      pop\n        /* \"#utility.yul\":1603:1680   */\n      swap2\n      swap1\n      pop\n      jump\t// out\n        /* \"#utility.yul\":1686:1808   */\n    tag_164:\n        /* \"#utility.yul\":1759:1783   */\n      tag_223\n        /* \"#utility.yul\":1777:1782   */\n      dup2\n        /* \"#utility.yul\":1759:1783   */\n      tag_163\n      jump\t// in\n    tag_223:\n        /* \"#utility.yul\":1752:1757   */\n      dup2\n        /* \"#utility.yul\":1749:1784   */\n      eq\n        /* \"#utility.yul\":1739:1802   */\n      tag_224\n      jumpi\n        /* \"#utility.yul\":1798:1799   */\n      0x00\n        /* \"#utility.yul\":1795:1796   */\n      dup1\n        /* \"#utility.yul\":1788:1800   */\n      revert\n        /* \"#utility.yul\":1739:1802   */\n    tag_224:\n        /* \"#utility.yul\":1686:1808   */\n      pop\n      jump\t// out\n        /* \"#utility.yul\":1814:1953   */\n    tag_165:\n        /* \"#utility.yul\":1860:1865   */\n      0x00\n        /* \"#utility.yul\":1898:1904   */\n      dup2\n        /* \"#utility.yul\":1885:1905   */\n      calldataload\n        /* \"#utility.yul\":1876:1905   */\n      swap1\n      pop\n        /* \"#utility.yul\":1914:1947   */\n      tag_226\n        /* \"#utility.yul\":1941:1946   */\n      dup2\n        /* \"#utility.yul\":1914:1947   */\n      tag_164\n      jump\t// in\n    tag_226:\n        /* \"#utility.yul\":1814:1953   */\n      swap3\n      swap2\n      pop\n      pop\n      jump\t// out\n        /* \"#utility.yul\":1959:2288   */\n    tag_29:\n        /* \"#utility.yul\":2018:2024   */\n      0x00\n        /* \"#utility.yul\":2067:2069   */\n      0x20\n        /* \"#utility.yul\":2055:2064   */\n      dup3\n        /* \"#utility.yul\":2046:2053   */\n      dup5\n        /* \"#utility.yul\":2042:2065   */\n      sub\n        /* \"#utility.yul\":2038:2070   */\n      slt\n        /* \"#utility.yul\":2035:2154   */\n      iszero\n      tag_228\n      jumpi\n        /* \"#utility.yul\":2073:2152   */\n      tag_229\n      tag_155\n      jump\t// in\n    tag_229:\n        /* \"#utility.yul\":2035:2154   */\n    tag_228:\n        /* \"#utility.yul\":2193:2194   */\n      0x00\n        /* \"#utility.yul\":2218:2271   */\n      tag_230\n        /* \"#utility.yul\":2263:2270   */\n      dup5\n        /* \"#utility.yul\":2254:2260   */\n      dup3\n        /* \"#utility.yul\":2243:2252   */\n      dup6\n        /* \"#utility.yul\":2239:2261   */\n      add\n        /* \"#utility.yul\":2218:2271   */\n      tag_165\n      jump\t// in\n    tag_230:\n        /* \"#utility.yul\":2208:2271   */\n      swap2\n      pop\n        /* \"#utility.yul\":2164:2281   */\n      pop\n        /* \"#utility.yul\":1959:2288   */\n      swap3\n      swap2\n      pop\n      pop\n      jump\t// out\n        /* \"#utility.yul\":2294:2393   */\n    tag_166:\n        /* \"#utility.yul\":2346:2352   */\n      0x00\n        /* \"#utility.yul\":2380:2385   */\n      dup2\n        /* \"#utility.yul\":2374:2386   */\n      mload\n        /* \"#utility.yul\":2364:2386   */\n      swap1\n      pop\n        /* \"#utility.yul\":2294:2393   */\n      swap2\n      swap1\n      pop\n      jump\t// out\n        /* \"#utility.yul\":2399:2568   */\n    tag_167:\n        /* \"#utility.yul\":2483:2494   */\n      0x00\n        /* \"#utility.yul\":2517:2523   */\n      dup3\n        /* \"#utility.yul\":2512:2515   */\n      dup3\n        /* \"#utility.yul\":2505:2524   */\n      mstore\n        /* \"#utility.yul\":2557:2561   */\n      0x20\n        /* \"#utility.yul\":2552:2555   */\n      dup3\n        /* \"#utility.yul\":2548:2562   */\n      add\n        /* \"#utility.yul\":2533:2562   */\n      swap1\n      pop\n        /* \"#utility.yul\":2399:2568   */\n      swap3\n      swap2\n      pop\n      pop\n      jump\t// out\n        /* \"#utility.yul\":2574:2820   */\n    tag_168:\n        /* \"#utility.yul\":2655:2656   */\n      0x00\n        /* \"#utility.yul\":2665:2778   */\n    tag_234:\n        /* \"#utility.yul\":2679:2685   */\n      dup4\n        /* \"#utility.yul\":2676:2677   */\n      dup2\n        /* \"#utility.yul\":2673:2686   */\n      lt\n        /* \"#utility.yul\":2665:2778   */\n      iszero\n      tag_236\n      jumpi\n        /* \"#utility.yul\":2764:2765   */\n      dup1\n        /* \"#utility.yul\":2759:2762   */\n      dup3\n        /* \"#utility.yul\":2755:2766   */\n      add\n        /* \"#utility.yul\":2749:2767   */\n      mload\n        /* \"#utility.yul\":2745:2746   */\n      dup2\n        /* \"#utility.yul\":2740:2743   */\n      dup5\n        /* \"#utility.yul\":2736:2747   */\n      add\n        /* \"#utility.yul\":2729:2768   */\n      mstore\n        /* \"#utility.yul\":2701:2703   */\n      0x20\n        /* \"#utility.yul\":2698:2699   */\n      dup2\n        /* \"#utility.yul\":2694:2704   */\n      add\n        /* \"#utility.yul\":2689:2704   */\n      swap1\n      pop\n        /* \"#utility.yul\":2665:2778   */\n      jump(tag_234)\n    tag_236:\n        /* \"#utility.yul\":2812:2813   */\n      0x00\n        /* \"#utility.yul\":2803:2809   */\n      dup5\n        /* \"#utility.yul\":2798:2801   */\n      dup5\n        /* \"#utility.yul\":2794:2810   */\n      add\n        /* \"#utility.yul\":2787:2814   */\n      mstore\n        /* \"#utility.yul\":2636:2820   */\n      pop\n        /* \"#utility.yul\":2574:2820   */\n      pop\n      pop\n      pop\n      jump\t// out\n        /* \"#utility.yul\":2826:2928   */\n    tag_169:\n        /* \"#utility.yul\":2867:2873   */\n      0x00\n        /* \"#utility.yul\":2918:2920   */\n      0x1f\n        /* \"#utility.yul\":2914:2921   */\n      not\n        /* \"#utility.yul\":2909:2911   */\n      0x1f\n        /* \"#utility.yul\":2902:2907   */\n      dup4\n        /* \"#utility.yul\":2898:2912   */\n      add\n        /* \"#utility.yul\":2894:2922   */\n      and\n        /* \"#utility.yul\":2884:2922   */\n      swap1\n      pop\n        /* \"#utility.yul\":2826:2928   */\n      swap2\n      swap1\n      pop\n      jump\t// out\n        /* \"#utility.yul\":2934:3311   */\n    tag_170:\n        /* \"#utility.yul\":3022:3025   */\n      0x00\n        /* \"#utility.yul\":3050:3089   */\n      tag_239\n        /* \"#utility.yul\":3083:3088   */\n      dup3\n        /* \"#utility.yul\":3050:3089   */\n      tag_166\n      jump\t// in\n    tag_239:\n        /* \"#utility.yul\":3105:3176   */\n      tag_240\n        /* \"#utility.yul\":3169:3175   */\n      dup2\n        /* \"#utility.yul\":3164:3167   */\n      dup6\n        /* \"#utility.yul\":3105:3176   */\n      tag_167\n      jump\t// in\n    tag_240:\n        /* \"#utility.yul\":3098:3176   */\n      swap4\n      pop\n        /* \"#utility.yul\":3185:3250   */\n      tag_241\n        /* \"#utility.yul\":3243:3249   */\n      dup2\n        /* \"#utility.yul\":3238:3241   */\n      dup6\n        /* \"#utility.yul\":3231:3235   */\n      0x20\n        /* \"#utility.yul\":3224:3229   */\n      dup7\n        /* \"#utility.yul\":3220:3236   */\n      add\n        /* \"#utility.yul\":3185:3250   */\n      tag_168\n      jump\t// in\n    tag_241:\n        /* \"#utility.yul\":3275:3304   */\n      tag_242\n        /* \"#utility.yul\":3297:3303   */\n      dup2\n        /* \"#utility.yul\":3275:3304   */\n      tag_169\n      jump\t// in\n    tag_242:\n        /* \"#utility.yul\":3270:3273   */\n      dup5\n        /* \"#utility.yul\":3266:3305   */\n      add\n        /* \"#utility.yul\":3259:3305   */\n      swap2\n      pop\n        /* \"#utility.yul\":3026:3311   */\n      pop\n        /* \"#utility.yul\":2934:3311   */\n      swap3\n      swap2\n      pop\n      pop\n      jump\t// out\n        /* \"#utility.yul\":3317:3435   */\n    tag_171:\n        /* \"#utility.yul\":3404:3428   */\n      tag_244\n        /* \"#utility.yul\":3422:3427   */\n      dup2\n        /* \"#utility.yul\":3404:3428   */\n      tag_163\n      jump\t// in\n    tag_244:\n        /* \"#utility.yul\":3399:3402   */\n      dup3\n        /* \"#utility.yul\":3392:3429   */\n      mstore\n        /* \"#utility.yul\":3317:3435   */\n      pop\n      pop\n      jump\t// out\n        /* \"#utility.yul\":3441:3559   */\n    tag_172:\n        /* \"#utility.yul\":3528:3552   */\n      tag_246\n        /* \"#utility.yul\":3546:3551   */\n      dup2\n        /* \"#utility.yul\":3528:3552   */\n      tag_158\n      jump\t// in\n    tag_246:\n        /* \"#utility.yul\":3523:3526   */\n      dup3\n        /* \"#utility.yul\":3516:3553   */\n      mstore\n        /* \"#utility.yul\":3441:3559   */\n      pop\n      pop\n      jump\t// out\n        /* \"#utility.yul\":3565:4835   */\n    tag_35:\n        /* \"#utility.yul\":3914:3918   */\n      0x00\n        /* \"#utility.yul\":3952:3955   */\n      0x0100\n        /* \"#utility.yul\":3941:3950   */\n      dup3\n        /* \"#utility.yul\":3937:3956   */\n      add\n        /* \"#utility.yul\":3929:3956   */\n      swap1\n      pop\n        /* \"#utility.yul\":4002:4011   */\n      dup2\n        /* \"#utility.yul\":3996:4000   */\n      dup2\n        /* \"#utility.yul\":3992:4012   */\n      sub\n        /* \"#utility.yul\":3988:3989   */\n      0x00\n        /* \"#utility.yul\":3977:3986   */\n      dup4\n        /* \"#utility.yul\":3973:3990   */\n      add\n        /* \"#utility.yul\":3966:4013   */\n      mstore\n        /* \"#utility.yul\":4030:4108   */\n      tag_248\n        /* \"#utility.yul\":4103:4107   */\n      dup2\n        /* \"#utility.yul\":4094:4100   */\n      dup12\n        /* \"#utility.yul\":4030:4108   */\n      tag_170\n      jump\t// in\n    tag_248:\n        /* \"#utility.yul\":4022:4108   */\n      swap1\n      pop\n        /* \"#utility.yul\":4155:4164   */\n      dup2\n        /* \"#utility.yul\":4149:4153   */\n      dup2\n        /* \"#utility.yul\":4145:4165   */\n      sub\n        /* \"#utility.yul\":4140:4142   */\n      0x20\n        /* \"#utility.yul\":4129:4138   */\n      dup4\n        /* \"#utility.yul\":4125:4143   */\n      add\n        /* \"#utility.yul\":4118:4166   */\n      mstore\n        /* \"#utility.yul\":4183:4261   */\n      tag_249\n        /* \"#utility.yul\":4256:4260   */\n      dup2\n        /* \"#utility.yul\":4247:4253   */\n      dup11\n        /* \"#utility.yul\":4183:4261   */\n      tag_170\n      jump\t// in\n    tag_249:\n        /* \"#utility.yul\":4175:4261   */\n      swap1\n      pop\n        /* \"#utility.yul\":4308:4317   */\n      dup2\n        /* \"#utility.yul\":4302:4306   */\n      dup2\n        /* \"#utility.yul\":4298:4318   */\n      sub\n        /* \"#utility.yul\":4293:4295   */\n      0x40\n        /* \"#utility.yul\":4282:4291   */\n      dup4\n        /* \"#utility.yul\":4278:4296   */\n      add\n        /* \"#utility.yul\":4271:4319   */\n      mstore\n        /* \"#utility.yul\":4336:4414   */\n      tag_250\n        /* \"#utility.yul\":4409:4413   */\n      dup2\n        /* \"#utility.yul\":4400:4406   */\n      dup10\n        /* \"#utility.yul\":4336:4414   */\n      tag_170\n      jump\t// in\n    tag_250:\n        /* \"#utility.yul\":4328:4414   */\n      swap1\n      pop\n        /* \"#utility.yul\":4424:4496   */\n      tag_251\n        /* \"#utility.yul\":4492:4494   */\n      0x60\n        /* \"#utility.yul\":4481:4490   */\n      dup4\n        /* \"#utility.yul\":4477:4495   */\n      add\n        /* \"#utility.yul\":4468:4474   */\n      dup9\n        /* \"#utility.yul\":4424:4496   */\n      tag_171\n      jump\t// in\n    tag_251:\n        /* \"#utility.yul\":4506:4579   */\n      tag_252\n        /* \"#utility.yul\":4574:4577   */\n      0x80\n        /* \"#utility.yul\":4563:4572   */\n      dup4\n        /* \"#utility.yul\":4559:4578   */\n      add\n        /* \"#utility.yul\":4550:4556   */\n      dup8\n        /* \"#utility.yul\":4506:4579   */\n      tag_171\n      jump\t// in\n    tag_252:\n        /* \"#utility.yul\":4589:4662   */\n      tag_253\n        /* \"#utility.yul\":4657:4660   */\n      0xa0\n        /* \"#utility.yul\":4646:4655   */\n      dup4\n        /* \"#utility.yul\":4642:4661   */\n      add\n        /* \"#utility.yul\":4633:4639   */\n      dup7\n        /* \"#utility.yul\":4589:4662   */\n      tag_171\n      jump\t// in\n    tag_253:\n        /* \"#utility.yul\":4672:4745   */\n      tag_254\n        /* \"#utility.yul\":4740:4743   */\n      0xc0\n        /* \"#utility.yul\":4729:4738   */\n      dup4\n        /* \"#utility.yul\":4725:4744   */\n      add\n        /* \"#utility.yul\":4716:4722   */\n      dup6\n        /* \"#utility.yul\":4672:4745   */\n      tag_171\n      jump\t// in\n    tag_254:\n        /* \"#utility.yul\":4755:4828   */\n      tag_255\n        /* \"#utility.yul\":4823:4826   */\n      0xe0\n        /* \"#utility.yul\":4812:4821   */\n      dup4\n        /* \"#utility.yul\":4808:4827   */\n      add\n        /* \"#utility.yul\":4799:4805   */\n      dup5\n        /* \"#utility.yul\":4755:4828   */\n      tag_172\n      jump\t// in\n    tag_255:\n        /* \"#utility.yul\":3565:4835   */\n      swap10\n      swap9\n      pop\n      pop\n      pop\n      pop\n      pop\n      pop\n      pop\n      pop\n      pop\n      jump\t// out\n        /* \"#utility.yul\":4841:5473   */\n    tag_41:\n        /* \"#utility.yul\":5032:5036   */\n      0x00\n        /* \"#utility.yul\":5070:5073   */\n      0x80\n        /* \"#utility.yul\":5059:5068   */\n      dup3\n        /* \"#utility.yul\":5055:5074   */\n      add\n        /* \"#utility.yul\":5047:5074   */\n      swap1\n      pop\n        /* \"#utility.yul\":5120:5129   */\n      dup2\n        /* \"#utility.yul\":5114:5118   */\n      dup2\n        /* \"#utility.yul\":5110:5130   */\n      sub\n        /* \"#utility.yul\":5106:5107   */\n      0x00\n        /* \"#utility.yul\":5095:5104   */\n      dup4\n        /* \"#utility.yul\":5091:5108   */\n      add\n        /* \"#utility.yul\":5084:5131   */\n      mstore\n        /* \"#utility.yul\":5148:5226   */\n      tag_257\n        /* \"#utility.yul\":5221:5225   */\n      dup2\n        /* \"#utility.yul\":5212:5218   */\n      dup8\n        /* \"#utility.yul\":5148:5226   */\n      tag_170\n      jump\t// in\n    tag_257:\n        /* \"#utility.yul\":5140:5226   */\n      swap1\n      pop\n        /* \"#utility.yul\":5236:5308   */\n      tag_258\n        /* \"#utility.yul\":5304:5306   */\n      0x20\n        /* \"#utility.yul\":5293:5302   */\n      dup4\n        /* \"#utility.yul\":5289:5307   */\n      add\n        /* \"#utility.yul\":5280:5286   */\n      dup7\n        /* \"#utility.yul\":5236:5308   */\n      tag_171\n      jump\t// in\n    tag_258:\n        /* \"#utility.yul\":5318:5384   */\n      tag_259\n        /* \"#utility.yul\":5380:5382   */\n      0x40\n        /* \"#utility.yul\":5369:5378   */\n      dup4\n        /* \"#utility.yul\":5365:5383   */\n      add\n        /* \"#utility.yul\":5356:5362   */\n      dup6\n        /* \"#utility.yul\":5318:5384   */\n      tag_162\n      jump\t// in\n    tag_259:\n        /* \"#utility.yul\":5394:5466   */\n      tag_260\n        /* \"#utility.yul\":5462:5464   */\n      0x60\n        /* \"#utility.yul\":5451:5460   */\n      dup4\n        /* \"#utility.yul\":5447:5465   */\n      add\n        /* \"#utility.yul\":5438:5444   */\n      dup5\n        /* \"#utility.yul\":5394:5466   */\n      tag_171\n      jump\t// in\n    tag_260:\n        /* \"#utility.yul\":4841:5473   */\n      swap6\n      swap5\n      pop\n      pop\n      pop\n      pop\n      pop\n      jump\t// out\n        /* \"#utility.yul\":5479:5792   */\n    tag_46:\n        /* \"#utility.yul\":5592:5596   */\n      0x00\n        /* \"#utility.yul\":5630:5632   */\n      0x20\n        /* \"#utility.yul\":5619:5628   */\n      dup3\n        /* \"#utility.yul\":5615:5633   */\n      add\n        /* \"#utility.yul\":5607:5633   */\n      swap1\n      pop\n        /* \"#utility.yul\":5679:5688   */\n      dup2\n        /* \"#utility.yul\":5673:5677   */\n      dup2\n        /* \"#utility.yul\":5669:5689   */\n      sub\n        /* \"#utility.yul\":5665:5666   */\n      0x00\n        /* \"#utility.yul\":5654:5663   */\n      dup4\n        /* \"#utility.yul\":5650:5667   */\n      add\n        /* \"#utility.yul\":5643:5690   */\n      mstore\n        /* \"#utility.yul\":5707:5785   */\n      tag_262\n        /* \"#utility.yul\":5780:5784   */\n      dup2\n        /* \"#utility.yul\":5771:5777   */\n      dup5\n        /* \"#utility.yul\":5707:5785   */\n      tag_170\n      jump\t// in\n    tag_262:\n        /* \"#utility.yul\":5699:5785   */\n      swap1\n      pop\n        /* \"#utility.yul\":5479:5792   */\n      swap3\n      swap2\n      pop\n      pop\n      jump\t// out\n        /* \"#utility.yul\":5798:6020   */\n    tag_51:\n        /* \"#utility.yul\":5891:5895   */\n      0x00\n        /* \"#utility.yul\":5929:5931   */\n      0x20\n        /* \"#utility.yul\":5918:5927   */\n      dup3\n        /* \"#utility.yul\":5914:5932   */\n      add\n        /* \"#utility.yul\":5906:5932   */\n      swap1\n      pop\n        /* \"#utility.yul\":5942:6013   */\n      tag_264\n        /* \"#utility.yul\":6010:6011   */\n      0x00\n        /* \"#utility.yul\":5999:6008   */\n      dup4\n        /* \"#utility.yul\":5995:6012   */\n      add\n        /* \"#utility.yul\":5986:5992   */\n      dup5\n        /* \"#utility.yul\":5942:6013   */\n      tag_172\n      jump\t// in\n    tag_264:\n        /* \"#utility.yul\":5798:6020   */\n      swap3\n      swap2\n      pop\n      pop\n      jump\t// out\n        /* \"#utility.yul\":6026:6248   */\n    tag_60:\n        /* \"#utility.yul\":6119:6123   */\n      0x00\n        /* \"#utility.yul\":6157:6159   */\n      0x20\n        /* \"#utility.yul\":6146:6155   */\n      dup3\n        /* \"#utility.yul\":6142:6160   */\n      add\n        /* \"#utility.yul\":6134:6160   */\n      swap1\n      pop\n        /* \"#utility.yul\":6170:6241   */\n      tag_266\n        /* \"#utility.yul\":6238:6239   */\n      0x00\n        /* \"#utility.yul\":6227:6236   */\n      dup4\n        /* \"#utility.yul\":6223:6240   */\n      add\n        /* \"#utility.yul\":6214:6220   */\n      dup5\n        /* \"#utility.yul\":6170:6241   */\n      tag_171\n      jump\t// in\n    tag_266:\n        /* \"#utility.yul\":6026:6248   */\n      swap3\n      swap2\n      pop\n      pop\n      jump\t// out\n        /* \"#utility.yul\":6254:6371   */\n    tag_173:\n        /* \"#utility.yul\":6363:6364   */\n      0x00\n        /* \"#utility.yul\":6360:6361   */\n      dup1\n        /* \"#utility.yul\":6353:6365   */\n      revert\n        /* \"#utility.yul\":6377:6494   */\n    tag_174:\n        /* \"#utility.yul\":6486:6487   */\n      0x00\n        /* \"#utility.yul\":6483:6484   */\n      dup1\n        /* \"#utility.yul\":6476:6488   */\n      revert\n        /* \"#utility.yul\":6500:6680   */\n    tag_175:\n        /* \"#utility.yul\":6548:6625   */\n      0x4e487b7100000000000000000000000000000000000000000000000000000000\n        /* \"#utility.yul\":6545:6546   */\n      0x00\n        /* \"#utility.yul\":6538:6626   */\n      mstore\n        /* \"#utility.yul\":6645:6649   */\n      0x41\n        /* \"#utility.yul\":6642:6643   */\n      0x04\n        /* \"#utility.yul\":6635:6650   */\n      mstore\n        /* \"#utility.yul\":6669:6673   */\n      0x24\n        /* \"#utility.yul\":6666:6667   */\n      0x00\n        /* \"#utility.yul\":6659:6674   */\n      revert\n        /* \"#utility.yul\":6686:6967   */\n    tag_176:\n        /* \"#utility.yul\":6769:6796   */\n      tag_271\n        /* \"#utility.yul\":6791:6795   */\n      dup3\n        /* \"#utility.yul\":6769:6796   */\n      tag_169\n      jump\t// in\n    tag_271:\n        /* \"#utility.yul\":6761:6767   */\n      dup2\n        /* \"#utility.yul\":6757:6797   */\n      add\n        /* \"#utility.yul\":6899:6905   */\n      dup2\n        /* \"#utility.yul\":6887:6897   */\n      dup2\n        /* \"#utility.yul\":6884:6906   */\n      lt\n        /* \"#utility.yul\":6863:6881   */\n      0xffffffffffffffff\n        /* \"#utility.yul\":6851:6861   */\n      dup3\n        /* \"#utility.yul\":6848:6882   */\n      gt\n        /* \"#utility.yul\":6845:6907   */\n      or\n        /* \"#utility.yul\":6842:6930   */\n      iszero\n      tag_272\n      jumpi\n        /* \"#utility.yul\":6910:6928   */\n      tag_273\n      tag_175\n      jump\t// in\n    tag_273:\n        /* \"#utility.yul\":6842:6930   */\n    tag_272:\n        /* \"#utility.yul\":6950:6960   */\n      dup1\n        /* \"#utility.yul\":6946:6948   */\n      0x40\n        /* \"#utility.yul\":6939:6961   */\n      mstore\n        /* \"#utility.yul\":6729:6967   */\n      pop\n        /* \"#utility.yul\":6686:6967   */\n      pop\n      pop\n      jump\t// out\n        /* \"#utility.yul\":6973:7102   */\n    tag_177:\n        /* \"#utility.yul\":7007:7013   */\n      0x00\n        /* \"#utility.yul\":7034:7054   */\n      tag_275\n      tag_154\n      jump\t// in\n    tag_275:\n        /* \"#utility.yul\":7024:7054   */\n      swap1\n      pop\n        /* \"#utility.yul\":7063:7096   */\n      tag_276\n        /* \"#utility.yul\":7091:7095   */\n      dup3\n        /* \"#utility.yul\":7083:7089   */\n      dup3\n        /* \"#utility.yul\":7063:7096   */\n      tag_176\n      jump\t// in\n    tag_276:\n        /* \"#utility.yul\":6973:7102   */\n      swap2\n      swap1\n      pop\n      jump\t// out\n        /* \"#utility.yul\":7108:7416   */\n    tag_178:\n        /* \"#utility.yul\":7170:7174   */\n      0x00\n        /* \"#utility.yul\":7260:7278   */\n      0xffffffffffffffff\n        /* \"#utility.yul\":7252:7258   */\n      dup3\n        /* \"#utility.yul\":7249:7279   */\n      gt\n        /* \"#utility.yul\":7246:7302   */\n      iszero\n      tag_278\n      jumpi\n        /* \"#utility.yul\":7282:7300   */\n      tag_279\n      tag_175\n      jump\t// in\n    tag_279:\n        /* \"#utility.yul\":7246:7302   */\n    tag_278:\n        /* \"#utility.yul\":7320:7349   */\n      tag_280\n        /* \"#utility.yul\":7342:7348   */\n      dup3\n        /* \"#utility.yul\":7320:7349   */\n      tag_169\n      jump\t// in\n    tag_280:\n        /* \"#utility.yul\":7312:7349   */\n      swap1\n      pop\n        /* \"#utility.yul\":7404:7408   */\n      0x20\n        /* \"#utility.yul\":7398:7402   */\n      dup2\n        /* \"#utility.yul\":7394:7409   */\n      add\n        /* \"#utility.yul\":7386:7409   */\n      swap1\n      pop\n        /* \"#utility.yul\":7108:7416   */\n      swap2\n      swap1\n      pop\n      jump\t// out\n        /* \"#utility.yul\":7422:7568   */\n    tag_179:\n        /* \"#utility.yul\":7519:7525   */\n      dup3\n        /* \"#utility.yul\":7514:7517   */\n      dup2\n        /* \"#utility.yul\":7509:7512   */\n      dup4\n        /* \"#utility.yul\":7496:7526   */\n      calldatacopy\n        /* \"#utility.yul\":7560:7561   */\n      0x00\n        /* \"#utility.yul\":7551:7557   */\n      dup4\n        /* \"#utility.yul\":7546:7549   */\n      dup4\n        /* \"#utility.yul\":7542:7558   */\n      add\n        /* \"#utility.yul\":7535:7562   */\n      mstore\n        /* \"#utility.yul\":7422:7568   */\n      pop\n      pop\n      pop\n      jump\t// out\n        /* \"#utility.yul\":7574:7999   */\n    tag_180:\n        /* \"#utility.yul\":7652:7657   */\n      0x00\n        /* \"#utility.yul\":7677:7743   */\n      tag_283\n        /* \"#utility.yul\":7693:7742   */\n      tag_284\n        /* \"#utility.yul\":7735:7741   */\n      dup5\n        /* \"#utility.yul\":7693:7742   */\n      tag_178\n      jump\t// in\n    tag_284:\n        /* \"#utility.yul\":7677:7743   */\n      tag_177\n      jump\t// in\n    tag_283:\n        /* \"#utility.yul\":7668:7743   */\n      swap1\n      pop\n        /* \"#utility.yul\":7766:7772   */\n      dup3\n        /* \"#utility.yul\":7759:7764   */\n      dup2\n        /* \"#utility.yul\":7752:7773   */\n      mstore\n        /* \"#utility.yul\":7804:7808   */\n      0x20\n        /* \"#utility.yul\":7797:7802   */\n      dup2\n        /* \"#utility.yul\":7793:7809   */\n      add\n        /* \"#utility.yul\":7842:7845   */\n      dup5\n        /* \"#utility.yul\":7833:7839   */\n      dup5\n        /* \"#utility.yul\":7828:7831   */\n      dup5\n        /* \"#utility.yul\":7824:7840   */\n      add\n        /* \"#utility.yul\":7821:7846   */\n      gt\n        /* \"#utility.yul\":7818:7930   */\n      iszero\n      tag_285\n      jumpi\n        /* \"#utility.yul\":7849:7928   */\n      tag_286\n      tag_174\n      jump\t// in\n    tag_286:\n        /* \"#utility.yul\":7818:7930   */\n    tag_285:\n        /* \"#utility.yul\":7939:7993   */\n      tag_287\n        /* \"#utility.yul\":7986:7992   */\n      dup5\n        /* \"#utility.yul\":7981:7984   */\n      dup3\n        /* \"#utility.yul\":7976:7979   */\n      dup6\n        /* \"#utility.yul\":7939:7993   */\n      tag_179\n      jump\t// in\n    tag_287:\n        /* \"#utility.yul\":7658:7999   */\n      pop\n        /* \"#utility.yul\":7574:7999   */\n      swap4\n      swap3\n      pop\n      pop\n      pop\n      jump\t// out\n        /* \"#utility.yul\":8019:8359   */\n    tag_181:\n        /* \"#utility.yul\":8075:8080   */\n      0x00\n        /* \"#utility.yul\":8124:8127   */\n      dup3\n        /* \"#utility.yul\":8117:8121   */\n      0x1f\n        /* \"#utility.yul\":8109:8115   */\n      dup4\n        /* \"#utility.yul\":8105:8122   */\n      add\n        /* \"#utility.yul\":8101:8128   */\n      slt\n        /* \"#utility.yul\":8091:8213   */\n      tag_289\n      jumpi\n        /* \"#utility.yul\":8132:8211   */\n      tag_290\n      tag_173\n      jump\t// in\n    tag_290:\n        /* \"#utility.yul\":8091:8213   */\n    tag_289:\n        /* \"#utility.yul\":8249:8255   */\n      dup2\n        /* \"#utility.yul\":8236:8256   */\n      calldataload\n        /* \"#utility.yul\":8274:8353   */\n      tag_291\n        /* \"#utility.yul\":8349:8352   */\n      dup5\n        /* \"#utility.yul\":8341:8347   */\n      dup3\n        /* \"#utility.yul\":8334:8338   */\n      0x20\n        /* \"#utility.yul\":8326:8332   */\n      dup7\n        /* \"#utility.yul\":8322:8339   */\n      add\n        /* \"#utility.yul\":8274:8353   */\n      tag_180\n      jump\t// in\n    tag_291:\n        /* \"#utility.yul\":8265:8353   */\n      swap2\n      pop\n        /* \"#utility.yul\":8081:8359   */\n      pop\n        /* \"#utility.yul\":8019:8359   */\n      swap3\n      swap2\n      pop\n      pop\n      jump\t// out\n        /* \"#utility.yul\":8365:9019   */\n    tag_82:\n        /* \"#utility.yul\":8443:8449   */\n      0x00\n        /* \"#utility.yul\":8451:8457   */\n      dup1\n        /* \"#utility.yul\":8500:8502   */\n      0x40\n        /* \"#utility.yul\":8488:8497   */\n      dup4\n        /* \"#utility.yul\":8479:8486   */\n      dup6\n        /* \"#utility.yul\":8475:8498   */\n      sub\n        /* \"#utility.yul\":8471:8503   */\n      slt\n        /* \"#utility.yul\":8468:8587   */\n      iszero\n      tag_293\n      jumpi\n        /* \"#utility.yul\":8506:8585   */\n      tag_294\n      tag_155\n      jump\t// in\n    tag_294:\n        /* \"#utility.yul\":8468:8587   */\n    tag_293:\n        /* \"#utility.yul\":8654:8655   */\n      0x00\n        /* \"#utility.yul\":8643:8652   */\n      dup4\n        /* \"#utility.yul\":8639:8656   */\n      add\n        /* \"#utility.yul\":8626:8657   */\n      calldataload\n        /* \"#utility.yul\":8684:8702   */\n      0xffffffffffffffff\n        /* \"#utility.yul\":8676:8682   */\n      dup2\n        /* \"#utility.yul\":8673:8703   */\n      gt\n        /* \"#utility.yul\":8670:8787   */\n      iszero\n      tag_295\n      jumpi\n        /* \"#utility.yul\":8706:8785   */\n      tag_296\n      tag_156\n      jump\t// in\n    tag_296:\n        /* \"#utility.yul\":8670:8787   */\n    tag_295:\n        /* \"#utility.yul\":8811:8874   */\n      tag_297\n        /* \"#utility.yul\":8866:8873   */\n      dup6\n        /* \"#utility.yul\":8857:8863   */\n      dup3\n        /* \"#utility.yul\":8846:8855   */\n      dup7\n        /* \"#utility.yul\":8842:8864   */\n      add\n        /* \"#utility.yul\":8811:8874   */\n      tag_181\n      jump\t// in\n    tag_297:\n        /* \"#utility.yul\":8801:8874   */\n      swap3\n      pop\n        /* \"#utility.yul\":8597:8884   */\n      pop\n        /* \"#utility.yul\":8923:8925   */\n      0x20\n        /* \"#utility.yul\":8949:9002   */\n      tag_298\n        /* \"#utility.yul\":8994:9001   */\n      dup6\n        /* \"#utility.yul\":8985:8991   */\n      dup3\n        /* \"#utility.yul\":8974:8983   */\n      dup7\n        /* \"#utility.yul\":8970:8992   */\n      add\n        /* \"#utility.yul\":8949:9002   */\n      tag_165\n      jump\t// in\n    tag_298:\n        /* \"#utility.yul\":8939:9002   */\n      swap2\n      pop\n        /* \"#utility.yul\":8894:9012   */\n      pop\n        /* \"#utility.yul\":8365:9019   */\n      swap3\n      pop\n      swap3\n      swap1\n      pop\n      jump\t// out\n        /* \"#utility.yul\":9025:9205   */\n    tag_89:\n        /* \"#utility.yul\":9073:9150   */\n      0x4e487b7100000000000000000000000000000000000000000000000000000000\n        /* \"#utility.yul\":9070:9071   */\n      0x00\n        /* \"#utility.yul\":9063:9151   */\n      mstore\n        /* \"#utility.yul\":9170:9174   */\n      0x32\n        /* \"#utility.yul\":9167:9168   */\n      0x04\n        /* \"#utility.yul\":9160:9175   */\n      mstore\n        /* \"#utility.yul\":9194:9198   */\n      0x24\n        /* \"#utility.yul\":9191:9192   */\n      0x00\n        /* \"#utility.yul\":9184:9199   */\n      revert\n        /* \"#utility.yul\":9211:9391   */\n    tag_182:\n        /* \"#utility.yul\":9259:9336   */\n      0x4e487b7100000000000000000000000000000000000000000000000000000000\n        /* \"#utility.yul\":9256:9257   */\n      0x00\n        /* \"#utility.yul\":9249:9337   */\n      mstore\n        /* \"#utility.yul\":9356:9360   */\n      0x12\n        /* \"#utility.yul\":9353:9354   */\n      0x04\n        /* \"#utility.yul\":9346:9361   */\n      mstore\n        /* \"#utility.yul\":9380:9384   */\n      0x24\n        /* \"#utility.yul\":9377:9378   */\n      0x00\n        /* \"#utility.yul\":9370:9385   */\n      revert\n        /* \"#utility.yul\":9397:9577   */\n    tag_183:\n        /* \"#utility.yul\":9445:9522   */\n      0x4e487b7100000000000000000000000000000000000000000000000000000000\n        /* \"#utility.yul\":9442:9443   */\n      0x00\n        /* \"#utility.yul\":9435:9523   */\n      mstore\n        /* \"#utility.yul\":9542:9546   */\n      0x11\n        /* \"#utility.yul\":9539:9540   */\n      0x04\n        /* \"#utility.yul\":9532:9547   */\n      mstore\n        /* \"#utility.yul\":9566:9570   */\n      0x24\n        /* \"#utility.yul\":9563:9564   */\n      0x00\n        /* \"#utility.yul\":9556:9571   */\n      revert\n        /* \"#utility.yul\":9583:9768   */\n    tag_92:\n        /* \"#utility.yul\":9623:9624   */\n      0x00\n        /* \"#utility.yul\":9640:9660   */\n      tag_303\n        /* \"#utility.yul\":9658:9659   */\n      dup3\n        /* \"#utility.yul\":9640:9660   */\n      tag_163\n      jump\t// in\n    tag_303:\n        /* \"#utility.yul\":9635:9660   */\n      swap2\n      pop\n        /* \"#utility.yul\":9674:9694   */\n      tag_304\n        /* \"#utility.yul\":9692:9693   */\n      dup4\n        /* \"#utility.yul\":9674:9694   */\n      tag_163\n      jump\t// in\n    tag_304:\n        /* \"#utility.yul\":9669:9694   */\n      swap3\n      pop\n        /* \"#utility.yul\":9713:9714   */\n      dup3\n        /* \"#utility.yul\":9703:9738   */\n      tag_305\n      jumpi\n        /* \"#utility.yul\":9718:9736   */\n      tag_306\n      tag_182\n      jump\t// in\n    tag_306:\n        /* \"#utility.yul\":9703:9738   */\n    tag_305:\n        /* \"#utility.yul\":9760:9761   */\n      dup3\n        /* \"#utility.yul\":9757:9758   */\n      dup3\n        /* \"#utility.yul\":9753:9762   */\n      div\n        /* \"#utility.yul\":9748:9762   */\n      swap1\n      pop\n        /* \"#utility.yul\":9583:9768   */\n      swap3\n      swap2\n      pop\n      pop\n      jump\t// out\n        /* \"#utility.yul\":9774:9954   */\n    tag_184:\n        /* \"#utility.yul\":9822:9899   */\n      0x4e487b7100000000000000000000000000000000000000000000000000000000\n        /* \"#utility.yul\":9819:9820   */\n      0x00\n        /* \"#utility.yul\":9812:9900   */\n      mstore\n        /* \"#utility.yul\":9919:9923   */\n      0x22\n        /* \"#utility.yul\":9916:9917   */\n      0x04\n        /* \"#utility.yul\":9909:9924   */\n      mstore\n        /* \"#utility.yul\":9943:9947   */\n      0x24\n        /* \"#utility.yul\":9940:9941   */\n      0x00\n        /* \"#utility.yul\":9933:9948   */\n      revert\n        /* \"#utility.yul\":9960:10280   */\n    tag_99:\n        /* \"#utility.yul\":10004:10010   */\n      0x00\n        /* \"#utility.yul\":10041:10042   */\n      0x02\n        /* \"#utility.yul\":10035:10039   */\n      dup3\n        /* \"#utility.yul\":10031:10043   */\n      div\n        /* \"#utility.yul\":10021:10043   */\n      swap1\n      pop\n        /* \"#utility.yul\":10088:10089   */\n      0x01\n        /* \"#utility.yul\":10082:10086   */\n      dup3\n        /* \"#utility.yul\":10078:10090   */\n      and\n        /* \"#utility.yul\":10109:10127   */\n      dup1\n        /* \"#utility.yul\":10099:10180   */\n      tag_309\n      jumpi\n        /* \"#utility.yul\":10165:10169   */\n      0x7f\n        /* \"#utility.yul\":10157:10163   */\n      dup3\n        /* \"#utility.yul\":10153:10170   */\n      and\n        /* \"#utility.yul\":10143:10170   */\n      swap2\n      pop\n        /* \"#utility.yul\":10099:10180   */\n    tag_309:\n        /* \"#utility.yul\":10227:10229   */\n      0x20\n        /* \"#utility.yul\":10219:10225   */\n      dup3\n        /* \"#utility.yul\":10216:10230   */\n      lt\n        /* \"#utility.yul\":10196:10214   */\n      dup2\n        /* \"#utility.yul\":10193:10231   */\n      sub\n        /* \"#utility.yul\":10190:10274   */\n      tag_310\n      jumpi\n        /* \"#utility.yul\":10246:10264   */\n      tag_311\n      tag_184\n      jump\t// in\n    tag_311:\n        /* \"#utility.yul\":10190:10274   */\n    tag_310:\n        /* \"#utility.yul\":10011:10280   */\n      pop\n        /* \"#utility.yul\":9960:10280   */\n      swap2\n      swap1\n      pop\n      jump\t// out\n        /* \"#utility.yul\":10286:10519   */\n    tag_138:\n        /* \"#utility.yul\":10325:10328   */\n      0x00\n        /* \"#utility.yul\":10348:10372   */\n      tag_313\n        /* \"#utility.yul\":10366:10371   */\n      dup3\n        /* \"#utility.yul\":10348:10372   */\n      tag_163\n      jump\t// in\n    tag_313:\n        /* \"#utility.yul\":10339:10372   */\n      swap2\n      pop\n        /* \"#utility.yul\":10394:10460   */\n      0xffffffffffffffffffffffffffffffffffffffffffffffffffffffffffffffff\n        /* \"#utility.yul\":10387:10392   */\n      dup3\n        /* \"#utility.yul\":10384:10461   */\n      sub\n        /* \"#utility.yul\":10381:10484   */\n      tag_314\n      jumpi\n        /* \"#utility.yul\":10464:10482   */\n      tag_315\n      tag_183\n      jump\t// in\n    tag_315:\n        /* \"#utility.yul\":10381:10484   */\n    tag_314:\n        /* \"#utility.yul\":10511:10512   */\n      0x01\n        /* \"#utility.yul\":10504:10509   */\n      dup3\n        /* \"#utility.yul\":10500:10513   */\n      add\n        /* \"#utility.yul\":10493:10513   */\n      swap1\n      pop\n        /* \"#utility.yul\":10286:10519   */\n      swap2\n      swap1\n      pop\n      jump\t// out\n        /* \"#utility.yul\":10525:10666   */\n    tag_185:\n        /* \"#utility.yul\":10574:10578   */\n      0x00\n        /* \"#utility.yul\":10597:10600   */\n      dup2\n        /* \"#utility.yul\":10589:10600   */\n      swap1\n      pop\n        /* \"#utility.yul\":10620:10623   */\n      dup2\n        /* \"#utility.yul\":10617:10618   */\n      0x00\n        /* \"#utility.yul\":10610:10624   */\n      mstore\n        /* \"#utility.yul\":10654:10658   */\n      0x20\n        /* \"#utility.yul\":10651:10652   */\n      0x00\n        /* \"#utility.yul\":10641:10659   */\n      keccak256\n        /* \"#utility.yul\":10633:10659   */\n      swap1\n      pop\n        /* \"#utility.yul\":10525:10666   */\n      swap2\n      swap1\n      pop\n      jump\t// out\n        /* \"#utility.yul\":10672:10765   */\n    tag_186:\n        /* \"#utility.yul\":10709:10715   */\n      0x00\n        /* \"#utility.yul\":10756:10758   */\n      0x20\n        /* \"#utility.yul\":10751:10753   */\n      0x1f\n        /* \"#utility.yul\":10744:10749   */\n      dup4\n        /* \"#utility.yul\":10740:10754   */\n      add\n        /* \"#utility.yul\":10736:10759   */\n      div\n        /* \"#utility.yul\":10726:10759   */\n      swap1\n      pop\n        /* \"#utility.yul\":10672:10765   */\n      swap2\n      swap1\n      pop\n      jump\t// out\n        /* \"#utility.yul\":10771:10878   */\n    tag_187:\n        /* \"#utility.yul\":10815:10823   */\n      0x00\n        /* \"#utility.yul\":10865:10870   */\n      dup3\n        /* \"#utility.yul\":10859:10863   */\n      dup3\n        /* \"#utility.yul\":10855:10871   */\n      shl\n        /* \"#utility.yul\":10834:10871   */\n      swap1\n      pop\n        /* \"#utility.yul\":10771:10878   */\n      swap3\n      swap2\n      pop\n      pop\n      jump\t// out\n        /* \"#utility.yul\":10884:11277   */\n    tag_188:\n        /* \"#utility.yul\":10953:10959   */\n      0x00\n        /* \"#utility.yul\":11003:11004   */\n      0x08\n        /* \"#utility.yul\":10991:11001   */\n      dup4\n        /* \"#utility.yul\":10987:11005   */\n      mul\n        /* \"#utility.yul\":11026:11123   */\n      tag_320\n        /* \"#utility.yul\":11056:11122   */\n      0xffffffffffffffffffffffffffffffffffffffffffffffffffffffffffffffff\n        /* \"#utility.yul\":11045:11054   */\n      dup3\n        /* \"#utility.yul\":11026:11123   */\n      tag_187\n      jump\t// in\n    tag_320:\n        /* \"#utility.yul\":11144:11183   */\n      tag_321\n        /* \"#utility.yul\":11174:11182   */\n      dup7\n        /* \"#utility.yul\":11163:11172   */\n      dup4\n        /* \"#utility.yul\":11144:11183   */\n      tag_187\n      jump\t// in\n    tag_321:\n        /* \"#utility.yul\":11132:11183   */\n      swap6\n      pop\n        /* \"#utility.yul\":11216:11220   */\n      dup1\n        /* \"#utility.yul\":11212:11221   */\n      not\n        /* \"#utility.yul\":11205:11210   */\n      dup5\n        /* \"#utility.yul\":11201:11222   */\n      and\n        /* \"#utility.yul\":11192:11222   */\n      swap4\n      pop\n        /* \"#utility.yul\":11265:11269   */\n      dup1\n        /* \"#utility.yul\":11255:11263   */\n      dup7\n        /* \"#utility.yul\":11251:11270   */\n      and\n        /* \"#utility.yul\":11244:11249   */\n      dup5\n        /* \"#utility.yul\":11241:11271   */\n      or\n        /* \"#utility.yul\":11231:11271   */\n      swap3\n      pop\n        /* \"#utility.yul\":10960:11277   */\n      pop\n      pop\n        /* \"#utility.yul\":10884:11277   */\n      swap4\n      swap3\n      pop\n      pop\n      pop\n      jump\t// out\n        /* \"#utility.yul\":11283:11343   */\n    tag_189:\n        /* \"#utility.yul\":11311:11314   */\n      0x00\n        /* \"#utility.yul\":11332:11337   */\n      dup2\n        /* \"#utility.yul\":11325:11337   */\n      swap1\n      pop\n        /* \"#utility.yul\":11283:11343   */\n      swap2\n      swap1\n      pop\n      jump\t// out\n        /* \"#utility.yul\":11349:11491   */\n    tag_190:\n        /* \"#utility.yul\":11399:11408   */\n      0x00\n        /* \"#utility.yul\":11432:11485   */\n      tag_324\n        /* \"#utility.yul\":11450:11484   */\n      tag_325\n        /* \"#utility.yul\":11459:11483   */\n      tag_326\n        /* \"#utility.yul\":11477:11482   */\n      dup5\n        /* \"#utility.yul\":11459:11483   */\n      tag_163\n      jump\t// in\n    tag_326:\n        /* \"#utility.yul\":11450:11484   */\n      tag_189\n      jump\t// in\n    tag_325:\n        /* \"#utility.yul\":11432:11485   */\n      tag_163\n      jump\t// in\n    tag_324:\n        /* \"#utility.yul\":11419:11485   */\n      swap1\n      pop\n        /* \"#utility.yul\":11349:11491   */\n      swap2\n      swap1\n      pop\n      jump\t// out\n        /* \"#utility.yul\":11497:11572   */\n    tag_191:\n        /* \"#utility.yul\":11540:11543   */\n      0x00\n        /* \"#utility.yul\":11561:11566   */\n      dup2\n        /* \"#utility.yul\":11554:11566   */\n      swap1\n      pop\n        /* \"#utility.yul\":11497:11572   */\n      swap2\n      swap1\n      pop\n      jump\t// out\n        /* \"#utility.yul\":11578:11847   */\n    tag_192:\n        /* \"#utility.yul\":11688:11727   */\n      tag_329\n        /* \"#utility.yul\":11719:11726   */\n      dup4\n        /* \"#utility.yul\":11688:11727   */\n      tag_190\n      jump\t// in\n    tag_329:\n        /* \"#utility.yul\":11749:11840   */\n      tag_330\n        /* \"#utility.yul\":11798:11839   */\n      tag_331\n        /* \"#utility.yul\":11822:11838   */\n      dup3\n        /* \"#utility.yul\":11798:11839   */\n      tag_191\n      jump\t// in\n    tag_331:\n        /* \"#utility.yul\":11790:11796   */\n      dup5\n        /* \"#utility.yul\":11783:11787   */\n      dup5\n        /* \"#utility.yul\":11777:11788   */\n      sload\n        /* \"#utility.yul\":11749:11840   */\n      tag_188\n      jump\t// in\n    tag_330:\n        /* \"#utility.yul\":11743:11747   */\n      dup3\n        /* \"#utility.yul\":11736:11841   */\n      sstore\n        /* \"#utility.yul\":11654:11847   */\n      pop\n        /* \"#utility.yul\":11578:11847   */\n      pop\n      pop\n      pop\n      jump\t// out\n        /* \"#utility.yul\":11853:11926   */\n    tag_193:\n        /* \"#utility.yul\":11898:11901   */\n      0x00\n        /* \"#utility.yul\":11853:11926   */\n      swap1\n      jump\t// out\n        /* \"#utility.yul\":11932:12121   */\n    tag_194:\n        /* \"#utility.yul\":12009:12041   */\n      tag_334\n      tag_193\n      jump\t// in\n    tag_334:\n        /* \"#utility.yul\":12050:12115   */\n      tag_335\n        /* \"#utility.yul\":12108:12114   */\n      dup2\n        /* \"#utility.yul\":12100:12106   */\n      dup5\n        /* \"#utility.yul\":12094:12098   */\n      dup5\n        /* \"#utility.yul\":12050:12115   */\n      tag_192\n      jump\t// in\n    tag_335:\n        /* \"#utility.yul\":11985:12121   */\n      pop\n        /* \"#utility.yul\":11932:12121   */\n      pop\n      pop\n      jump\t// out\n        /* \"#utility.yul\":12127:12313   */\n    tag_195:\n        /* \"#utility.yul\":12187:12307   */\n    tag_337:\n        /* \"#utility.yul\":12204:12207   */\n      dup2\n        /* \"#utility.yul\":12197:12202   */\n      dup2\n        /* \"#utility.yul\":12194:12208   */\n      lt\n        /* \"#utility.yul\":12187:12307   */\n      iszero\n      tag_339\n      jumpi\n        /* \"#utility.yul\":12258:12297   */\n      tag_340\n        /* \"#utility.yul\":12295:12296   */\n      0x00\n        /* \"#utility.yul\":12288:12293   */\n      dup3\n        /* \"#utility.yul\":12258:12297   */\n      tag_194\n      jump\t// in\n    tag_340:\n        /* \"#utility.yul\":12231:12232   */\n      0x01\n        /* \"#utility.yul\":12224:12229   */\n      dup2\n        /* \"#utility.yul\":12220:12233   */\n      add\n        /* \"#utility.yul\":12211:12233   */\n      swap1\n      pop\n        /* \"#utility.yul\":12187:12307   */\n      jump(tag_337)\n    tag_339:\n        /* \"#utility.yul\":12127:12313   */\n      pop\n      pop\n      jump\t// out\n        /* \"#utility.yul\":12319:12862   */\n    tag_196:\n        /* \"#utility.yul\":12420:12422   */\n      0x1f\n        /* \"#utility.yul\":12415:12418   */\n      dup3\n        /* \"#utility.yul\":12412:12423   */\n      gt\n        /* \"#utility.yul\":12409:12855   */\n      iszero\n      tag_342\n      jumpi\n        /* \"#utility.yul\":12454:12492   */\n      tag_343\n        /* \"#utility.yul\":12486:12491   */\n      dup2\n        /* \"#utility.yul\":12454:12492   */\n      tag_185\n      jump\t// in\n    tag_343:\n        /* \"#utility.yul\":12538:12567   */\n      tag_344\n        /* \"#utility.yul\":12556:12566   */\n      dup5\n        /* \"#utility.yul\":12538:12567   */\n      tag_186\n      jump\t// in\n    tag_344:\n        /* \"#utility.yul\":12528:12536   */\n      dup2\n        /* \"#utility.yul\":12524:12568   */\n      add\n        /* \"#utility.yul\":12721:12723   */\n      0x20\n        /* \"#utility.yul\":12709:12719   */\n      dup6\n        /* \"#utility.yul\":12706:12724   */\n      lt\n        /* \"#utility.yul\":12703:12752   */\n      iszero\n      tag_345\n      jumpi\n        /* \"#utility.yul\":12742:12750   */\n      dup2\n        /* \"#utility.yul\":12727:12750   */\n      swap1\n      pop\n        /* \"#utility.yul\":12703:12752   */\n    tag_345:\n        /* \"#utility.yul\":12765:12845   */\n      tag_346\n        /* \"#utility.yul\":12821:12843   */\n      tag_347\n        /* \"#utility.yul\":12839:12842   */\n      dup6\n        /* \"#utility.yul\":12821:12843   */\n      tag_186\n      jump\t// in\n    tag_347:\n        /* \"#utility.yul\":12811:12819   */\n      dup4\n        /* \"#utility.yul\":12807:12844   */\n      add\n        /* \"#utility.yul\":12794:12805   */\n      dup3\n        /* \"#utility.yul\":12765:12845   */\n      tag_195\n      jump\t// in\n    tag_346:\n        /* \"#utility.yul\":12424:12855   */\n      pop\n      pop\n        /* \"#utility.yul\":12409:12855   */\n    tag_342:\n        /* \"#utility.yul\":12319:12862   */\n      pop\n      pop\n      pop\n      jump\t// out\n        /* \"#utility.yul\":12868:12985   */\n    tag_197:\n        /* \"#utility.yul\":12922:12930   */\n      0x00\n        /* \"#utility.yul\":12972:12977   */\n      dup3\n        /* \"#utility.yul\":12966:12970   */\n      dup3\n        /* \"#utility.yul\":12962:12978   */\n      shr\n        /* \"#utility.yul\":12941:12978   */\n      swap1\n      pop\n        /* \"#utility.yul\":12868:12985   */\n      swap3\n      swap2\n      pop\n      pop\n      jump\t// out\n        /* \"#utility.yul\":12991:13160   */\n    tag_198:\n        /* \"#utility.yul\":13035:13041   */\n      0x00\n        /* \"#utility.yul\":13068:13119   */\n      tag_350\n        /* \"#utility.yul\":13116:13117   */\n      0x00\n        /* \"#utility.yul\":13112:13118   */\n      not\n        /* \"#utility.yul\":13104:13109   */\n      dup5\n        /* \"#utility.yul\":13101:13102   */\n      0x08\n        /* \"#utility.yul\":13097:13110   */\n      mul\n        /* \"#utility.yul\":13068:13119   */\n      tag_197\n      jump\t// in\n    tag_350:\n        /* \"#utility.yul\":13064:13120   */\n      not\n        /* \"#utility.yul\":13149:13153   */\n      dup1\n        /* \"#utility.yul\":13143:13147   */\n      dup4\n        /* \"#utility.yul\":13139:13154   */\n      and\n        /* \"#utility.yul\":13129:13154   */\n      swap2\n      pop\n        /* \"#utility.yul\":13042:13160   */\n      pop\n        /* \"#utility.yul\":12991:13160   */\n      swap3\n      swap2\n      pop\n      pop\n      jump\t// out\n        /* \"#utility.yul\":13165:13460   */\n    tag_199:\n        /* \"#utility.yul\":13241:13245   */\n      0x00\n        /* \"#utility.yul\":13387:13416   */\n      tag_352\n        /* \"#utility.yul\":13412:13415   */\n      dup4\n        /* \"#utility.yul\":13406:13410   */\n      dup4\n        /* \"#utility.yul\":13387:13416   */\n      tag_198\n      jump\t// in\n    tag_352:\n        /* \"#utility.yul\":13379:13416   */\n      swap2\n      pop\n        /* \"#utility.yul\":13449:13452   */\n      dup3\n        /* \"#utility.yul\":13446:13447   */\n      0x02\n        /* \"#utility.yul\":13442:13453   */\n      mul\n        /* \"#utility.yul\":13436:13440   */\n      dup3\n        /* \"#utility.yul\":13433:13454   */\n      or\n        /* \"#utility.yul\":13425:13454   */\n      swap1\n      pop\n        /* \"#utility.yul\":13165:13460   */\n      swap3\n      swap2\n      pop\n      pop\n      jump\t// out\n        /* \"#utility.yul\":13465:14860   */\n    tag_153:\n        /* \"#utility.yul\":13582:13619   */\n      tag_354\n        /* \"#utility.yul\":13615:13618   */\n      dup3\n        /* \"#utility.yul\":13582:13619   */\n      tag_166\n      jump\t// in\n    tag_354:\n        /* \"#utility.yul\":13684:13702   */\n      0xffffffffffffffff\n        /* \"#utility.yul\":13676:13682   */\n      dup2\n        /* \"#utility.yul\":13673:13703   */\n      gt\n        /* \"#utility.yul\":13670:13726   */\n      iszero\n      tag_355\n      jumpi\n        /* \"#utility.yul\":13706:13724   */\n      tag_356\n      tag_175\n      jump\t// in\n    tag_356:\n        /* \"#utility.yul\":13670:13726   */\n    tag_355:\n        /* \"#utility.yul\":13750:13788   */\n      tag_357\n        /* \"#utility.yul\":13782:13786   */\n      dup3\n        /* \"#utility.yul\":13776:13787   */\n      sload\n        /* \"#utility.yul\":13750:13788   */\n      tag_99\n      jump\t// in\n    tag_357:\n        /* \"#utility.yul\":13835:13902   */\n      tag_358\n        /* \"#utility.yul\":13895:13901   */\n      dup3\n        /* \"#utility.yul\":13887:13893   */\n      dup3\n        /* \"#utility.yul\":13881:13885   */\n      dup6\n        /* \"#utility.yul\":13835:13902   */\n      tag_196\n      jump\t// in\n    tag_358:\n        /* \"#utility.yul\":13929:13930   */\n      0x00\n        /* \"#utility.yul\":13953:13957   */\n      0x20\n        /* \"#utility.yul\":13940:13957   */\n      swap1\n      pop\n        /* \"#utility.yul\":13985:13987   */\n      0x1f\n        /* \"#utility.yul\":13977:13983   */\n      dup4\n        /* \"#utility.yul\":13974:13988   */\n      gt\n        /* \"#utility.yul\":14002:14003   */\n      0x01\n        /* \"#utility.yul\":13997:14615   */\n      dup2\n      eq\n      tag_360\n      jumpi\n        /* \"#utility.yul\":14659:14660   */\n      0x00\n        /* \"#utility.yul\":14676:14682   */\n      dup5\n        /* \"#utility.yul\":14673:14750   */\n      iszero\n      tag_361\n      jumpi\n        /* \"#utility.yul\":14725:14734   */\n      dup3\n        /* \"#utility.yul\":14720:14723   */\n      dup8\n        /* \"#utility.yul\":14716:14735   */\n      add\n        /* \"#utility.yul\":14710:14736   */\n      mload\n        /* \"#utility.yul\":14701:14736   */\n      swap1\n      pop\n        /* \"#utility.yul\":14673:14750   */\n    tag_361:\n        /* \"#utility.yul\":14776:14843   */\n      tag_362\n        /* \"#utility.yul\":14836:14842   */\n      dup6\n        /* \"#utility.yul\":14829:14834   */\n      dup3\n        /* \"#utility.yul\":14776:14843   */\n      tag_199\n      jump\t// in\n    tag_362:\n        /* \"#utility.yul\":14770:14774   */\n      dup7\n        /* \"#utility.yul\":14763:14844   */\n      sstore\n        /* \"#utility.yul\":14632:14854   */\n      pop\n        /* \"#utility.yul\":13967:14854   */\n      jump(tag_359)\n        /* \"#utility.yul\":13997:14615   */\n    tag_360:\n        /* \"#utility.yul\":14049:14053   */\n      0x1f\n        /* \"#utility.yul\":14045:14054   */\n      not\n        /* \"#utility.yul\":14037:14043   */\n      dup5\n        /* \"#utility.yul\":14033:14055   */\n      and\n        /* \"#utility.yul\":14083:14120   */\n      tag_363\n        /* \"#utility.yul\":14115:14119   */\n      dup7\n        /* \"#utility.yul\":14083:14120   */\n      tag_185\n      jump\t// in\n    tag_363:\n        /* \"#utility.yul\":14142:14143   */\n      0x00\n        /* \"#utility.yul\":14156:14364   */\n    tag_364:\n        /* \"#utility.yul\":14170:14177   */\n      dup3\n        /* \"#utility.yul\":14167:14168   */\n      dup2\n        /* \"#utility.yul\":14164:14178   */\n      lt\n        /* \"#utility.yul\":14156:14364   */\n      iszero\n      tag_366\n      jumpi\n        /* \"#utility.yul\":14249:14258   */\n      dup5\n        /* \"#utility.yul\":14244:14247   */\n      dup10\n        /* \"#utility.yul\":14240:14259   */\n      add\n        /* \"#utility.yul\":14234:14260   */\n      mload\n        /* \"#utility.yul\":14226:14232   */\n      dup3\n        /* \"#utility.yul\":14219:14261   */\n      sstore\n        /* \"#utility.yul\":14300:14301   */\n      0x01\n        /* \"#utility.yul\":14292:14298   */\n      dup3\n        /* \"#utility.yul\":14288:14302   */\n      add\n        /* \"#utility.yul\":14278:14302   */\n      swap2\n      pop\n        /* \"#utility.yul\":14347:14349   */\n      0x20\n        /* \"#utility.yul\":14336:14345   */\n      dup6\n        /* \"#utility.yul\":14332:14350   */\n      add\n        /* \"#utility.yul\":14319:14350   */\n      swap5\n      pop\n        /* \"#utility.yul\":14193:14197   */\n      0x20\n        /* \"#utility.yul\":14190:14191   */\n      dup2\n        /* \"#utility.yul\":14186:14198   */\n      add\n        /* \"#utility.yul\":14181:14198   */\n      swap1\n      pop\n        /* \"#utility.yul\":14156:14364   */\n      jump(tag_364)\n    tag_366:\n        /* \"#utility.yul\":14392:14398   */\n      dup7\n        /* \"#utility.yul\":14383:14390   */\n      dup4\n        /* \"#utility.yul\":14380:14399   */\n      lt\n        /* \"#utility.yul\":14377:14556   */\n      iszero\n      tag_367\n      jumpi\n        /* \"#utility.yul\":14450:14459   */\n      dup5\n        /* \"#utility.yul\":14445:14448   */\n      dup10\n        /* \"#utility.yul\":14441:14460   */\n      add\n        /* \"#utility.yul\":14435:14461   */\n      mload\n        /* \"#utility.yul\":14493:14541   */\n      tag_368\n        /* \"#utility.yul\":14535:14539   */\n      0x1f\n        /* \"#utility.yul\":14527:14533   */\n      dup10\n        /* \"#utility.yul\":14523:14540   */\n      and\n        /* \"#utility.yul\":14512:14521   */\n      dup3\n        /* \"#utility.yul\":14493:14541   */\n      tag_198\n      jump\t// in\n    tag_368:\n        /* \"#utility.yul\":14485:14491   */\n      dup4\n        /* \"#utility.yul\":14478:14542   */\n      sstore\n        /* \"#utility.yul\":14400:14556   */\n      pop\n        /* \"#utility.yul\":14377:14556   */\n    tag_367:\n        /* \"#utility.yul\":14602:14603   */\n      0x01\n        /* \"#utility.yul\":14598:14599   */\n      0x02\n        /* \"#utility.yul\":14590:14596   */\n      dup9\n        /* \"#utility.yul\":14586:14600   */\n      mul\n        /* \"#utility.yul\":14582:14604   */\n      add\n        /* \"#utility.yul\":14576:14580   */\n      dup9\n        /* \"#utility.yul\":14569:14605   */\n      sstore\n        /* \"#utility.yul\":14004:14615   */\n      pop\n      pop\n      pop\n        /* \"#utility.yul\":13967:14854   */\n    tag_359:\n      pop\n        /* \"#utility.yul\":13557:14860   */\n      pop\n      pop\n      pop\n        /* \"#utility.yul\":13465:14860   */\n      pop\n      pop\n      jump\t// out\n\n    auxdata: 0xa264697066735822122096e1abc0f4787a90c6fa59a51f9752739ebc0a27ade19a7ebaaa464aa85df24464736f6c63430008130033\n}\n","bytecode":{"linkReferences":{},"object":"60806040523480156200001157600080fd5b5060405162001bd738038062001bd78339818101604052810190620000379190620002fa565b8460028190555083600390816200004f919062000620565b50826004908162000061919062000620565b50816005908162000073919062000620565b508460028190555080600160006101000a81548173ffffffffffffffffffffffffffffffffffffffff021916908373ffffffffffffffffffffffffffffffffffffffff160217905550505050505062000707565b6000604051905090565b600080fd5b600080fd5b6000819050919050565b620000f081620000db565b8114620000fc57600080fd5b50565b6000815190506200011081620000e5565b92915050565b600080fd5b600080fd5b6000601f19601f8301169050919050565b7f4e487b7100000000000000000000000000000000000000000000000000000000600052604160045260246000fd5b6200016b8262000120565b810181811067ffffffffffffffff821117156200018d576200018c62000131565b5b80604052505050565b6000620001a2620000c7565b9050620001b0828262000160565b919050565b600067ffffffffffffffff821115620001d357620001d262000131565b5b620001de8262000120565b9050602081019050919050565b60005b838110156200020b578082015181840152602081019050620001ee565b60008484015250505050565b60006200022e6200022884620001b5565b62000196565b9050828152602081018484840111156200024d576200024c6200011b565b5b6200025a848285620001eb565b509392505050565b600082601f8301126200027a576200027962000116565b5b81516200028c84826020860162000217565b91505092915050565b600073ffffffffffffffffffffffffffffffffffffffff82169050919050565b6000620002c28262000295565b9050919050565b620002d481620002b5565b8114620002e057600080fd5b50565b600081519050620002f481620002c9565b92915050565b600080600080600060a08688031215620003195762000318620000d1565b5b60006200032988828901620000ff565b955050602086015167ffffffffffffffff8111156200034d576200034c620000d6565b5b6200035b8882890162000262565b945050604086015167ffffffffffffffff8111156200037f576200037e620000d6565b5b6200038d8882890162000262565b935050606086015167ffffffffffffffff811115620003b157620003b0620000d6565b5b620003bf8882890162000262565b9250506080620003d288828901620002e3565b9150509295509295909350565b600081519050919050565b7f4e487b7100000000000000000000000000000000000000000000000000000000600052602260045260246000fd5b600060028204905060018216806200043257607f821691505b602082108103620004485762000447620003ea565b5b50919050565b60008190508160005260206000209050919050565b60006020601f8301049050919050565b600082821b905092915050565b600060088302620004b27fffffffffffffffffffffffffffffffffffffffffffffffffffffffffffffffff8262000473565b620004be868362000473565b95508019841693508086168417925050509392505050565b6000819050919050565b600062000501620004fb620004f584620000db565b620004d6565b620000db565b9050919050565b6000819050919050565b6200051d83620004e0565b620005356200052c8262000508565b84845462000480565b825550505050565b600090565b6200054c6200053d565b6200055981848462000512565b505050565b5b8181101562000581576200057560008262000542565b6001810190506200055f565b5050565b601f821115620005d0576200059a816200044e565b620005a58462000463565b81016020851015620005b5578190505b620005cd620005c48562000463565b8301826200055e565b50505b505050565b600082821c905092915050565b6000620005f560001984600802620005d5565b1980831691505092915050565b6000620006108383620005e2565b9150826002028217905092915050565b6200062b82620003df565b67ffffffffffffffff81111562000647576200064662000131565b5b62000653825462000419565b6200066082828562000585565b600060209050601f83116001811462000698576000841562000683578287015190505b6200068f858262000602565b865550620006ff565b601f198416620006a8866200044e565b60005b82811015620006d257848901518255600182019150602085019450602081019050620006ab565b86831015620006f25784890151620006ee601f891682620005e2565b8355505b6001600288020188555050505b505050505050565b6114c080620007176000396000f3fe6080604052600436106100dd5760003560e01c806382fde0931161007f578063a9c3184011610059578063a9c31840146102ba578063d7bb99ba146102e5578063dfd693ad146102ef578063f9ade79a1461031a576100dd565b806382fde0931461023b578063937e09b114610266578063a578182c14610291576100dd565b8063496c8ada116100bb578063496c8ada1461017a578063564d45cb146101ba57806366d003ac146101e55780637284e41614610210576100dd565b80630a144391146100e25780630db56ccd1461011f5780634051ddac14610148575b600080fd5b3480156100ee57600080fd5b5061010960048036038101906101049190610c6a565b610343565b6040516101169190610cb2565b60405180910390f35b34801561012b57600080fd5b5061014660048036038101906101419190610d03565b610363565b005b34801561015457600080fd5b5061015d6104aa565b604051610171989796959493929190610dde565b60405180910390f35b34801561018657600080fd5b506101a1600480360381019061019c9190610d03565b6106ab565b6040516101b19493929190610e71565b60405180910390f35b3480156101c657600080fd5b506101cf610780565b6040516101dc9190610ebd565b60405180910390f35b3480156101f157600080fd5b506101fa61080e565b6040516102079190610edf565b60405180910390f35b34801561021c57600080fd5b50610225610834565b6040516102329190610ebd565b60405180910390f35b34801561024757600080fd5b506102506108c2565b60405161025d9190610efa565b60405180910390f35b34801561027257600080fd5b5061027b6108c8565b6040516102889190610efa565b60405180910390f35b34801561029d57600080fd5b506102b860048036038101906102b39190610d03565b6108ce565b005b3480156102c657600080fd5b506102cf610a1a565b6040516102dc9190610efa565b60405180910390f35b6102ed610a26565b005b3480156102fb57600080fd5b50610304610aa6565b6040516103119190610ebd565b60405180910390f35b34801561032657600080fd5b50610341600480360381019061033c919061104a565b610b34565b005b60066020528060005260406000206000915054906101000a900460ff1681565b600160009054906101000a900473ffffffffffffffffffffffffffffffffffffffff1673ffffffffffffffffffffffffffffffffffffffff163373ffffffffffffffffffffffffffffffffffffffff16146103bd57600080fd5b60008082815481106103d2576103d16110a6565b5b9060005260206000209060050201905060026007546103f19190611133565b81600301541161040057600080fd5b8060020160009054906101000a900460ff161561041c57600080fd5b600160009054906101000a900473ffffffffffffffffffffffffffffffffffffffff1673ffffffffffffffffffffffffffffffffffffffff166108fc82600101549081150290604051600060405180830381858888f19350505050158015610488573d6000803e3d6000fd5b5060018160020160006101000a81548160ff0219169083151502179055505050565b6060806060600080600080600060036004600560025447600080549050600754600160009054906101000a900473ffffffffffffffffffffffffffffffffffffffff168780546104f990611193565b80601f016020809104026020016040519081016040528092919081815260200182805461052590611193565b80156105725780601f1061054757610100808354040283529160200191610572565b820191906000526020600020905b81548152906001019060200180831161055557829003601f168201915b5050505050975086805461058590611193565b80601f01602080910402602001604051908101604052809291908181526020018280546105b190611193565b80156105fe5780601f106105d3576101008083540402835291602001916105fe565b820191906000526020600020905b8154815290600101906020018083116105e157829003601f168201915b5050505050965085805461061190611193565b80601f016020809104026020016040519081016040528092919081815260200182805461063d90611193565b801561068a5780601f1061065f5761010080835404028352916020019161068a565b820191906000526020600020905b81548152906001019060200180831161066d57829003601f168201915b50505050509550975097509750975097509750975097509091929394959697565b600081815481106106bb57600080fd5b90600052602060002090600502016000915090508060000180546106de90611193565b80601f016020809104026020016040519081016040528092919081815260200182805461070a90611193565b80156107575780601f1061072c57610100808354040283529160200191610757565b820191906000526020600020905b81548152906001019060200180831161073a57829003601f168201915b5050505050908060010154908060020160009054906101000a900460ff16908060030154905084565b6003805461078d90611193565b80601f01602080910402602001604051908101604052809291908181526020018280546107b990611193565b80156108065780601f106107db57610100808354040283529160200191610806565b820191906000526020600020905b8154815290600101906020018083116107e957829003601f168201915b505050505081565b600160009054906101000a900473ffffffffffffffffffffffffffffffffffffffff1681565b6005805461084190611193565b80601f016020809104026020016040519081016040528092919081815260200182805461086d90611193565b80156108ba5780601f1061088f576101008083540402835291602001916108ba565b820191906000526020600020905b81548152906001019060200180831161089d57829003601f168201915b505050505081565b60075481565b60025481565b60008082815481106108e3576108e26110a6565b5b90600052602060002090600502019050600660003373ffffffffffffffffffffffffffffffffffffffff1673ffffffffffffffffffffffffffffffffffffffff16815260200190815260200160002060009054906101000a900460ff1661094957600080fd5b8060040160003373ffffffffffffffffffffffffffffffffffffffff1673ffffffffffffffffffffffffffffffffffffffff16815260200190815260200160002060009054906101000a900460ff16156109a257600080fd5b60018160040160003373ffffffffffffffffffffffffffffffffffffffff1673ffffffffffffffffffffffffffffffffffffffff16815260200190815260200160002060006101000a81548160ff021916908315150217905550806003016000815480929190610a11906111c4565b91905055505050565b60008080549050905090565b6002543411610a3457600080fd5b6001600660003373ffffffffffffffffffffffffffffffffffffffff1673ffffffffffffffffffffffffffffffffffffffff16815260200190815260200160002060006101000a81548160ff02191690831515021790555060076000815480929190610a9f906111c4565b9190505550565b60048054610ab390611193565b80601f0160208091040260200160405190810160405280929190818152602001828054610adf90611193565b8015610b2c5780601f10610b0157610100808354040283529160200191610b2c565b820191906000526020600020905b815481529060010190602001808311610b0f57829003601f168201915b505050505081565b600160009054906101000a900473ffffffffffffffffffffffffffffffffffffffff1673ffffffffffffffffffffffffffffffffffffffff163373ffffffffffffffffffffffffffffffffffffffff1614610b8e57600080fd5b600080600181600181540180825580915050039060005260206000209060050201905082816000019081610bc291906113b8565b5081816001018190555060008160020160006101000a81548160ff02191690831515021790555060008160030181905550505050565b6000604051905090565b600080fd5b600080fd5b600073ffffffffffffffffffffffffffffffffffffffff82169050919050565b6000610c3782610c0c565b9050919050565b610c4781610c2c565b8114610c5257600080fd5b50565b600081359050610c6481610c3e565b92915050565b600060208284031215610c8057610c7f610c02565b5b6000610c8e84828501610c55565b91505092915050565b60008115159050919050565b610cac81610c97565b82525050565b6000602082019050610cc76000830184610ca3565b92915050565b6000819050919050565b610ce081610ccd565b8114610ceb57600080fd5b50565b600081359050610cfd81610cd7565b92915050565b600060208284031215610d1957610d18610c02565b5b6000610d2784828501610cee565b91505092915050565b600081519050919050565b600082825260208201905092915050565b60005b83811015610d6a578082015181840152602081019050610d4f565b60008484015250505050565b6000601f19601f8301169050919050565b6000610d9282610d30565b610d9c8185610d3b565b9350610dac818560208601610d4c565b610db581610d76565b840191505092915050565b610dc981610ccd565b82525050565b610dd881610c2c565b82525050565b6000610100820190508181036000830152610df9818b610d87565b90508181036020830152610e0d818a610d87565b90508181036040830152610e218189610d87565b9050610e306060830188610dc0565b610e3d6080830187610dc0565b610e4a60a0830186610dc0565b610e5760c0830185610dc0565b610e6460e0830184610dcf565b9998505050505050505050565b60006080820190508181036000830152610e8b8187610d87565b9050610e9a6020830186610dc0565b610ea76040830185610ca3565b610eb46060830184610dc0565b95945050505050565b60006020820190508181036000830152610ed78184610d87565b905092915050565b6000602082019050610ef46000830184610dcf565b92915050565b6000602082019050610f0f6000830184610dc0565b92915050565b600080fd5b600080fd5b7f4e487b7100000000000000000000000000000000000000000000000000000000600052604160045260246000fd5b610f5782610d76565b810181811067ffffffffffffffff82111715610f7657610f75610f1f565b5b80604052505050565b6000610f89610bf8565b9050610f958282610f4e565b919050565b600067ffffffffffffffff821115610fb557610fb4610f1f565b5b610fbe82610d76565b9050602081019050919050565b82818337600083830152505050565b6000610fed610fe884610f9a565b610f7f565b90508281526020810184848401111561100957611008610f1a565b5b611014848285610fcb565b509392505050565b600082601f83011261103157611030610f15565b5b8135611041848260208601610fda565b91505092915050565b6000806040838503121561106157611060610c02565b5b600083013567ffffffffffffffff81111561107f5761107e610c07565b5b61108b8582860161101c565b925050602061109c85828601610cee565b9150509250929050565b7f4e487b7100000000000000000000000000000000000000000000000000000000600052603260045260246000fd5b7f4e487b7100000000000000000000000000000000000000000000000000000000600052601260045260246000fd5b7f4e487b7100000000000000000000000000000000000000000000000000000000600052601160045260246000fd5b600061113e82610ccd565b915061114983610ccd565b925082611159576111586110d5565b5b828204905092915050565b7f4e487b7100000000000000000000000000000000000000000000000000000000600052602260045260246000fd5b600060028204905060018216806111ab57607f821691505b6020821081036111be576111bd611164565b5b50919050565b60006111cf82610ccd565b91507fffffffffffffffffffffffffffffffffffffffffffffffffffffffffffffffff820361120157611200611104565b5b600182019050919050565b60008190508160005260206000209050919050565b60006020601f8301049050919050565b600082821b905092915050565b60006008830261126e7fffffffffffffffffffffffffffffffffffffffffffffffffffffffffffffffff82611231565b6112788683611231565b95508019841693508086168417925050509392505050565b6000819050919050565b60006112b56112b06112ab84610ccd565b611290565b610ccd565b9050919050565b6000819050919050565b6112cf8361129a565b6112e36112db826112bc565b84845461123e565b825550505050565b600090565b6112f86112eb565b6113038184846112c6565b505050565b5b818110156113275761131c6000826112f0565b600181019050611309565b5050565b601f82111561136c5761133d8161120c565b61134684611221565b81016020851015611355578190505b61136961136185611221565b830182611308565b50505b505050565b600082821c905092915050565b600061138f60001984600802611371565b1980831691505092915050565b60006113a8838361137e565b9150826002028217905092915050565b6113c182610d30565b67ffffffffffffffff8111156113da576113d9610f1f565b5b6113e48254611193565b6113ef82828561132b565b600060209050601f8311600181146114225760008415611410578287015190505b61141a858261139c565b865550611482565b601f1984166114308661120c565b60005b8281101561145857848901518255600182019150602085019450602081019050611433565b868310156114755784890151611471601f89168261137e565b8355505b6001600288020188555050505b50505050505056fea264697066735822122096e1abc0f4787a90c6fa59a51f9752739ebc0a27ade19a7ebaaa464aa85df24464736f6c63430008130033","opcodes":"PUSH1 0x80 PUSH1 0x40 MSTORE CALLVALUE DUP1 ISZERO PUSH3 0x11 JUMPI PUSH1 0x0 DUP1 REVERT JUMPDEST POP PUSH1 0x40 MLOAD PUSH3 0x1BD7 CODESIZE SUB DUP1 PUSH3 0x1BD7 DUP4 CODECOPY DUP2 DUP2 ADD PUSH1 0x40 MSTORE DUP2 ADD SWAP1 PUSH3 0x37 SWAP2 SWAP1 PUSH3 0x2FA JUMP JUMPDEST DUP5 PUSH1 0x2 DUP2 SWAP1 SSTORE POP DUP4 PUSH1 0x3 SWAP1 DUP2 PUSH3 0x4F SWAP2 SWAP1 PUSH3 0x620 JUMP JUMPDEST POP DUP3 PUSH1 0x4 SWAP1 DUP2 PUSH3 0x61 SWAP2 SWAP1 PUSH3 0x620 JUMP JUMPDEST POP DUP2 PUSH1 0x5 SWAP1 DUP2 PUSH3 0x73 SWAP2 SWAP1 PUSH3 0x620 JUMP JUMPDEST POP DUP5 PUSH1 0x2 DUP2 SWAP1 SSTORE POP DUP1 PUSH1 0x1 PUSH1 0x0 PUSH2 0x100 EXP DUP2 SLOAD DUP2 PUSH20 0xFFFFFFFFFFFFFFFFFFFFFFFFFFFFFFFFFFFFFFFF MUL NOT AND SWAP1 DUP4 PUSH20 0xFFFFFFFFFFFFFFFFFFFFFFFFFFFFFFFFFFFFFFFF AND MUL OR SWAP1 SSTORE POP POP POP POP POP POP PUSH3 0x707 JUMP JUMPDEST PUSH1 0x0 PUSH1 0x40 MLOAD SWAP1 POP SWAP1 JUMP JUMPDEST PUSH1 0x0 DUP1 REVERT JUMPDEST PUSH1 0x0 DUP1 REVERT JUMPDEST PUSH1 0x0 DUP2 SWAP1 POP SWAP2 SWAP1 POP JUMP JUMPDEST PUSH3 0xF0 DUP2 PUSH3 0xDB JUMP JUMPDEST DUP2 EQ PUSH3 0xFC JUMPI PUSH1 0x0 DUP1 REVERT JUMPDEST POP JUMP JUMPDEST PUSH1 0x0 DUP2 MLOAD SWAP1 POP PUSH3 0x110 DUP2 PUSH3 0xE5 JUMP JUMPDEST SWAP3 SWAP2 POP POP JUMP JUMPDEST PUSH1 0x0 DUP1 REVERT JUMPDEST PUSH1 0x0 DUP1 REVERT JUMPDEST PUSH1 0x0 PUSH1 0x1F NOT PUSH1 0x1F DUP4 ADD AND SWAP1 POP SWAP2 SWAP1 POP JUMP JUMPDEST PUSH32 0x4E487B7100000000000000000000000000000000000000000000000000000000 PUSH1 0x0 MSTORE PUSH1 0x41 PUSH1 0x4 MSTORE PUSH1 0x24 PUSH1 0x0 REVERT JUMPDEST PUSH3 0x16B DUP3 PUSH3 0x120 JUMP JUMPDEST DUP2 ADD DUP2 DUP2 LT PUSH8 0xFFFFFFFFFFFFFFFF DUP3 GT OR ISZERO PUSH3 0x18D JUMPI PUSH3 0x18C PUSH3 0x131 JUMP JUMPDEST JUMPDEST DUP1 PUSH1 0x40 MSTORE POP POP POP JUMP JUMPDEST PUSH1 0x0 PUSH3 0x1A2 PUSH3 0xC7 JUMP JUMPDEST SWAP1 POP PUSH3 0x1B0 DUP3 DUP3 PUSH3 0x160 JUMP JUMPDEST SWAP2 SWAP1 POP JUMP JUMPDEST PUSH1 0x0 PUSH8 0xFFFFFFFFFFFFFFFF DUP3 GT ISZERO PUSH3 0x1D3 JUMPI PUSH3 0x1D2 PUSH3 0x131 JUMP JUMPDEST JUMPDEST PUSH3 0x1DE DUP3 PUSH3 0x120 JUMP JUMPDEST SWAP1 POP PUSH1 0x20 DUP2 ADD SWAP1 POP SWAP2 SWAP1 POP JUMP JUMPDEST PUSH1 0x0 JUMPDEST DUP4 DUP2 LT ISZERO PUSH3 0x20B JUMPI DUP1 DUP3 ADD MLOAD DUP2 DUP5 ADD MSTORE PUSH1 0x20 DUP2 ADD SWAP1 POP PUSH3 0x1EE JUMP JUMPDEST PUSH1 0x0 DUP5 DUP5 ADD MSTORE POP POP POP POP JUMP JUMPDEST PUSH1 0x0 PUSH3 0x22E PUSH3 0x228 DUP5 PUSH3 0x1B5 JUMP JUMPDEST PUSH3 0x196 JUMP JUMPDEST SWAP1 POP DUP3 DUP2 MSTORE PUSH1 0x20 DUP2 ADD DUP5 DUP5 DUP5 ADD GT ISZERO PUSH3 0x24D JUMPI PUSH3 0x24C PUSH3 0x11B JUMP JUMPDEST JUMPDEST PUSH3 0x25A DUP5 DUP3 DUP6 PUSH3 0x1EB JUMP JUMPDEST POP SWAP4 SWAP3 POP POP POP JUMP JUMPDEST PUSH1 0x0 DUP3 PUSH1 0x1F DUP4 ADD SLT PUSH3 0x27A JUMPI PUSH3 0x279 PUSH3 0x116 JUMP JUMPDEST JUMPDEST DUP2 MLOAD PUSH3 0x28C DUP5 DUP3 PUSH1 0x20 DUP7 ADD PUSH3 0x217 JUMP JUMPDEST SWAP2 POP POP SWAP3 SWAP2 POP POP JUMP JUMPDEST PUSH1 0x0 PUSH20 0xFFFFFFFFFFFFFFFFFFFFFFFFFFFFFFFFFFFFFFFF DUP3 AND SWAP1 POP SWAP2 SWAP1 POP JUMP JUMPDEST PUSH1 0x0 PUSH3 0x2C2 DUP3 PUSH3 0x295 JUMP JUMPDEST SWAP1 POP SWAP2 SWAP1 POP JUMP JUMPDEST PUSH3 0x2D4 DUP2 PUSH3 0x2B5 JUMP JUMPDEST DUP2 EQ PUSH3 0x2E0 JUMPI PUSH1 0x0 DUP1 REVERT JUMPDEST POP JUMP JUMPDEST PUSH1 0x0 DUP2 MLOAD SWAP1 POP PUSH3 0x2F4 DUP2 PUSH3 0x2C9 JUMP JUMPDEST SWAP3 SWAP2 POP POP JUMP JUMPDEST PUSH1 0x0 DUP1 PUSH1 0x0 DUP1 PUSH1 0x0 PUSH1 0xA0 DUP7 DUP9 SUB SLT ISZERO PUSH3 0x319 JUMPI PUSH3 0x318 PUSH3 0xD1 JUMP JUMPDEST JUMPDEST PUSH1 0x0 PUSH3 0x329 DUP9 DUP3 DUP10 ADD PUSH3 0xFF JUMP JUMPDEST SWAP6 POP POP PUSH1 0x20 DUP7 ADD MLOAD PUSH8 0xFFFFFFFFFFFFFFFF DUP2 GT ISZERO PUSH3 0x34D JUMPI PUSH3 0x34C PUSH3 0xD6 JUMP JUMPDEST JUMPDEST PUSH3 0x35B DUP9 DUP3 DUP10 ADD PUSH3 0x262 JUMP JUMPDEST SWAP5 POP POP PUSH1 0x40 DUP7 ADD MLOAD PUSH8 0xFFFFFFFFFFFFFFFF DUP2 GT ISZERO PUSH3 0x37F JUMPI PUSH3 0x37E PUSH3 0xD6 JUMP JUMPDEST JUMPDEST PUSH3 0x38D DUP9 DUP3 DUP10 ADD PUSH3 0x262 JUMP JUMPDEST SWAP4 POP POP PUSH1 0x60 DUP7 ADD MLOAD PUSH8 0xFFFFFFFFFFFFFFFF DUP2 GT ISZERO PUSH3 0x3B1 JUMPI PUSH3 0x3B0 PUSH3 0xD6 JUMP JUMPDEST JUMPDEST PUSH3 0x3BF DUP9 DUP3 DUP10 ADD PUSH3 0x262 JUMP JUMPDEST SWAP3 POP POP PUSH1 0x80 PUSH3 0x3D2 DUP9 DUP3 DUP10 ADD PUSH3 0x2E3 JUMP JUMPDEST SWAP2 POP POP SWAP3 SWAP6 POP SWAP3 SWAP6 SWAP1 SWAP4 POP JUMP JUMPDEST PUSH1 0x0 DUP2 MLOAD SWAP1 POP SWAP2 SWAP1 POP JUMP JUMPDEST PUSH32 0x4E487B7100000000000000000000000000000000000000000000000000000000 PUSH1 0x0 MSTORE PUSH1 0x22 PUSH1 0x4 MSTORE PUSH1 0x24 PUSH1 0x0 REVERT JUMPDEST PUSH1 0x0 PUSH1 0x2 DUP3 DIV SWAP1 POP PUSH1 0x1 DUP3 AND DUP1 PUSH3 0x432 JUMPI PUSH1 0x7F DUP3 AND SWAP2 POP JUMPDEST PUSH1 0x20 DUP3 LT DUP2 SUB PUSH3 0x448 JUMPI PUSH3 0x447 PUSH3 0x3EA JUMP JUMPDEST JUMPDEST POP SWAP2 SWAP1 POP JUMP JUMPDEST PUSH1 0x0 DUP2 SWAP1 POP DUP2 PUSH1 0x0 MSTORE PUSH1 0x20 PUSH1 0x0 KECCAK256 SWAP1 POP SWAP2 SWAP1 POP JUMP JUMPDEST PUSH1 0x0 PUSH1 0x20 PUSH1 0x1F DUP4 ADD DIV SWAP1 POP SWAP2 SWAP1 POP JUMP JUMPDEST PUSH1 0x0 DUP3 DUP3 SHL SWAP1 POP SWAP3 SWAP2 POP POP JUMP JUMPDEST PUSH1 0x0 PUSH1 0x8 DUP4 MUL PUSH3 0x4B2 PUSH32 0xFFFFFFFFFFFFFFFFFFFFFFFFFFFFFFFFFFFFFFFFFFFFFFFFFFFFFFFFFFFFFFFF DUP3 PUSH3 0x473 JUMP JUMPDEST PUSH3 0x4BE DUP7 DUP4 PUSH3 0x473 JUMP JUMPDEST SWAP6 POP DUP1 NOT DUP5 AND SWAP4 POP DUP1 DUP7 AND DUP5 OR SWAP3 POP POP POP SWAP4 SWAP3 POP POP POP JUMP JUMPDEST PUSH1 0x0 DUP2 SWAP1 POP SWAP2 SWAP1 POP JUMP JUMPDEST PUSH1 0x0 PUSH3 0x501 PUSH3 0x4FB PUSH3 0x4F5 DUP5 PUSH3 0xDB JUMP JUMPDEST PUSH3 0x4D6 JUMP JUMPDEST PUSH3 0xDB JUMP JUMPDEST SWAP1 POP SWAP2 SWAP1 POP JUMP JUMPDEST PUSH1 0x0 DUP2 SWAP1 POP SWAP2 SWAP1 POP JUMP JUMPDEST PUSH3 0x51D DUP4 PUSH3 0x4E0 JUMP JUMPDEST PUSH3 0x535 PUSH3 0x52C DUP3 PUSH3 0x508 JUMP JUMPDEST DUP5 DUP5 SLOAD PUSH3 0x480 JUMP JUMPDEST DUP3 SSTORE POP POP POP POP JUMP JUMPDEST PUSH1 0x0 SWAP1 JUMP JUMPDEST PUSH3 0x54C PUSH3 0x53D JUMP JUMPDEST PUSH3 0x559 DUP2 DUP5 DUP5 PUSH3 0x512 JUMP JUMPDEST POP POP POP JUMP JUMPDEST JUMPDEST DUP2 DUP2 LT ISZERO PUSH3 0x581 JUMPI PUSH3 0x575 PUSH1 0x0 DUP3 PUSH3 0x542 JUMP JUMPDEST PUSH1 0x1 DUP2 ADD SWAP1 POP PUSH3 0x55F JUMP JUMPDEST POP POP JUMP JUMPDEST PUSH1 0x1F DUP3 GT ISZERO PUSH3 0x5D0 JUMPI PUSH3 0x59A DUP2 PUSH3 0x44E JUMP JUMPDEST PUSH3 0x5A5 DUP5 PUSH3 0x463 JUMP JUMPDEST DUP2 ADD PUSH1 0x20 DUP6 LT ISZERO PUSH3 0x5B5 JUMPI DUP2 SWAP1 POP JUMPDEST PUSH3 0x5CD PUSH3 0x5C4 DUP6 PUSH3 0x463 JUMP JUMPDEST DUP4 ADD DUP3 PUSH3 0x55E JUMP JUMPDEST POP POP JUMPDEST POP POP POP JUMP JUMPDEST PUSH1 0x0 DUP3 DUP3 SHR SWAP1 POP SWAP3 SWAP2 POP POP JUMP JUMPDEST PUSH1 0x0 PUSH3 0x5F5 PUSH1 0x0 NOT DUP5 PUSH1 0x8 MUL PUSH3 0x5D5 JUMP JUMPDEST NOT DUP1 DUP4 AND SWAP2 POP POP SWAP3 SWAP2 POP POP JUMP JUMPDEST PUSH1 0x0 PUSH3 0x610 DUP4 DUP4 PUSH3 0x5E2 JUMP JUMPDEST SWAP2 POP DUP3 PUSH1 0x2 MUL DUP3 OR SWAP1 POP SWAP3 SWAP2 POP POP JUMP JUMPDEST PUSH3 0x62B DUP3 PUSH3 0x3DF JUMP JUMPDEST PUSH8 0xFFFFFFFFFFFFFFFF DUP2 GT ISZERO PUSH3 0x647 JUMPI PUSH3 0x646 PUSH3 0x131 JUMP JUMPDEST JUMPDEST PUSH3 0x653 DUP3 SLOAD PUSH3 0x419 JUMP JUMPDEST PUSH3 0x660 DUP3 DUP3 DUP6 PUSH3 0x585 JUMP JUMPDEST PUSH1 0x0 PUSH1 0x20 SWAP1 POP PUSH1 0x1F DUP4 GT PUSH1 0x1 DUP2 EQ PUSH3 0x698 JUMPI PUSH1 0x0 DUP5 ISZERO PUSH3 0x683 JUMPI DUP3 DUP8 ADD MLOAD SWAP1 POP JUMPDEST PUSH3 0x68F DUP6 DUP3 PUSH3 0x602 JUMP JUMPDEST DUP7 SSTORE POP PUSH3 0x6FF JUMP JUMPDEST PUSH1 0x1F NOT DUP5 AND PUSH3 0x6A8 DUP7 PUSH3 0x44E JUMP JUMPDEST PUSH1 0x0 JUMPDEST DUP3 DUP2 LT ISZERO PUSH3 0x6D2 JUMPI DUP5 DUP10 ADD MLOAD DUP3 SSTORE PUSH1 0x1 DUP3 ADD SWAP2 POP PUSH1 0x20 DUP6 ADD SWAP5 POP PUSH1 0x20 DUP2 ADD SWAP1 POP PUSH3 0x6AB JUMP JUMPDEST DUP7 DUP4 LT ISZERO PUSH3 0x6F2 JUMPI DUP5 DUP10 ADD MLOAD PUSH3 0x6EE PUSH1 0x1F DUP10 AND DUP3 PUSH3 0x5E2 JUMP JUMPDEST DUP4 SSTORE POP JUMPDEST PUSH1 0x1 PUSH1 0x2 DUP9 MUL ADD DUP9 SSTORE POP POP POP JUMPDEST POP POP POP POP POP POP JUMP JUMPDEST PUSH2 0x14C0 DUP1 PUSH3 0x717 PUSH1 0x0 CODECOPY PUSH1 0x0 RETURN INVALID PUSH1 0x80 PUSH1 0x40 MSTORE PUSH1 0x4 CALLDATASIZE LT PUSH2 0xDD JUMPI PUSH1 0x0 CALLDATALOAD PUSH1 0xE0 SHR DUP1 PUSH4 0x82FDE093 GT PUSH2 0x7F JUMPI DUP1 PUSH4 0xA9C31840 GT PUSH2 0x59 JUMPI DUP1 PUSH4 0xA9C31840 EQ PUSH2 0x2BA JUMPI DUP1 PUSH4 0xD7BB99BA EQ PUSH2 0x2E5 JUMPI DUP1 PUSH4 0xDFD693AD EQ PUSH2 0x2EF JUMPI DUP1 PUSH4 0xF9ADE79A EQ PUSH2 0x31A JUMPI PUSH2 0xDD JUMP JUMPDEST DUP1 PUSH4 0x82FDE093 EQ PUSH2 0x23B JUMPI DUP1 PUSH4 0x937E09B1 EQ PUSH2 0x266 JUMPI DUP1 PUSH4 0xA578182C EQ PUSH2 0x291 JUMPI PUSH2 0xDD JUMP JUMPDEST DUP1 PUSH4 0x496C8ADA GT PUSH2 0xBB JUMPI DUP1 PUSH4 0x496C8ADA EQ PUSH2 0x17A JUMPI DUP1 PUSH4 0x564D45CB EQ PUSH2 0x1BA JUMPI DUP1 PUSH4 0x66D003AC EQ PUSH2 0x1E5 JUMPI DUP1 PUSH4 0x7284E416 EQ PUSH2 0x210 JUMPI PUSH2 0xDD JUMP JUMPDEST DUP1 PUSH4 0xA144391 EQ PUSH2 0xE2 JUMPI DUP1 PUSH4 0xDB56CCD EQ PUSH2 0x11F JUMPI DUP1 PUSH4 0x4051DDAC EQ PUSH2 0x148 JUMPI JUMPDEST PUSH1 0x0 DUP1 REVERT JUMPDEST CALLVALUE DUP1 ISZERO PUSH2 0xEE JUMPI PUSH1 0x0 DUP1 REVERT JUMPDEST POP PUSH2 0x109 PUSH1 0x4 DUP1 CALLDATASIZE SUB DUP2 ADD SWAP1 PUSH2 0x104 SWAP2 SWAP1 PUSH2 0xC6A JUMP JUMPDEST PUSH2 0x343 JUMP JUMPDEST PUSH1 0x40 MLOAD PUSH2 0x116 SWAP2 SWAP1 PUSH2 0xCB2 JUMP JUMPDEST PUSH1 0x40 MLOAD DUP1 SWAP2 SUB SWAP1 RETURN JUMPDEST CALLVALUE DUP1 ISZERO PUSH2 0x12B JUMPI PUSH1 0x0 DUP1 REVERT JUMPDEST POP PUSH2 0x146 PUSH1 0x4 DUP1 CALLDATASIZE SUB DUP2 ADD SWAP1 PUSH2 0x141 SWAP2 SWAP1 PUSH2 0xD03 JUMP JUMPDEST PUSH2 0x363 JUMP JUMPDEST STOP JUMPDEST CALLVALUE DUP1 ISZERO PUSH2 0x154 JUMPI PUSH1 0x0 DUP1 REVERT JUMPDEST POP PUSH2 0x15D PUSH2 0x4AA JUMP JUMPDEST PUSH1 0x40 MLOAD PUSH2 0x171 SWAP9 SWAP8 SWAP7 SWAP6 SWAP5 SWAP4 SWAP3 SWAP2 SWAP1 PUSH2 0xDDE JUMP JUMPDEST PUSH1 0x40 MLOAD DUP1 SWAP2 SUB SWAP1 RETURN JUMPDEST CALLVALUE DUP1 ISZERO PUSH2 0x186 JUMPI PUSH1 0x0 DUP1 REVERT JUMPDEST POP PUSH2 0x1A1 PUSH1 0x4 DUP1 CALLDATASIZE SUB DUP2 ADD SWAP1 PUSH2 0x19C SWAP2 SWAP1 PUSH2 0xD03 JUMP JUMPDEST PUSH2 0x6AB JUMP JUMPDEST PUSH1 0x40 MLOAD PUSH2 0x1B1 SWAP5 SWAP4 SWAP3 SWAP2 SWAP1 PUSH2 0xE71 JUMP JUMPDEST PUSH1 0x40 MLOAD DUP1 SWAP2 SUB SWAP1 RETURN JUMPDEST CALLVALUE DUP1 ISZERO PUSH2 0x1C6 JUMPI PUSH1 0x0 DUP1 REVERT JUMPDEST POP PUSH2 0x1CF PUSH2 0x780 JUMP JUMPDEST PUSH1 0x40 MLOAD PUSH2 0x1DC SWAP2 SWAP1 PUSH2 0xEBD JUMP JUMPDEST PUSH1 0x40 MLOAD DUP1 SWAP2 SUB SWAP1 RETURN JUMPDEST CALLVALUE DUP1 ISZERO PUSH2 0x1F1 JUMPI PUSH1 0x0 DUP1 REVERT JUMPDEST POP PUSH2 0x1FA PUSH2 0x80E JUMP JUMPDEST PUSH1 0x40 MLOAD PUSH2 0x207 SWAP2 SWAP1 PUSH2 0xEDF JUMP JUMPDEST PUSH1 0x40 MLOAD DUP1 SWAP2 SUB SWAP1 RETURN JUMPDEST CALLVALUE DUP1 ISZERO PUSH2 0x21C JUMPI PUSH1 0x0 DUP1 REVERT JUMPDEST POP PUSH2 0x225 PUSH2 0x834 JUMP JUMPDEST PUSH1 0x40 MLOAD PUSH2 0x232 SWAP2 SWAP1 PUSH2 0xEBD JUMP JUMPDEST PUSH1 0x40 MLOAD DUP1 SWAP2 SUB SWAP1 RETURN JUMPDEST CALLVALUE DUP1 ISZERO PUSH2 0x247 JUMPI PUSH1 0x0 DUP1 REVERT JUMPDEST POP PUSH2 0x250 PUSH2 0x8C2 JUMP JUMPDEST PUSH1 0x40 MLOAD PUSH2 0x25D SWAP2 SWAP1 PUSH2 0xEFA JUMP JUMPDEST PUSH1 0x40 MLOAD DUP1 SWAP2 SUB SWAP1 RETURN JUMPDEST CALLVALUE DUP1 ISZERO PUSH2 0x272 JUMPI PUSH1 0x0 DUP1 REVERT JUMPDEST POP PUSH2 0x27B PUSH2 0x8C8 JUMP JUMPDEST PUSH1 0x40 MLOAD PUSH2 0x288 SWAP2 SWAP1 PUSH2 0xEFA JUMP JUMPDEST PUSH1 0x40 MLOAD DUP1 SWAP2 SUB SWAP1 RETURN JUMPDEST CALLVALUE DUP1 ISZERO PUSH2 0x29D JUMPI PUSH1 0x0 DUP1 REVERT JUMPDEST POP PUSH2 0x2B8 PUSH1 0x4 DUP1 CALLDATASIZE SUB DUP2 ADD SWAP1 PUSH2 0x2B3 SWAP2 SWAP1 PUSH2 0xD03 JUMP JUMPDEST PUSH2 0x8CE JUMP JUMPDEST STOP JUMPDEST CALLVALUE DUP1 ISZERO PUSH2 0x2C6 JUMPI PUSH1 0x0 DUP1 REVERT JUMPDEST POP PUSH2 0x2CF PUSH2 0xA1A JUMP JUMPDEST PUSH1 0x40 MLOAD PUSH2 0x2DC SWAP2 SWAP1 PUSH2 0xEFA JUMP JUMPDEST PUSH1 0x40 MLOAD DUP1 SWAP2 SUB SWAP1 RETURN JUMPDEST PUSH2 0x2ED PUSH2 0xA26 JUMP JUMPDEST STOP JUMPDEST CALLVALUE DUP1 ISZERO PUSH2 0x2FB JUMPI PUSH1 0x0 DUP1 REVERT JUMPDEST POP PUSH2 0x304 PUSH2 0xAA6 JUMP JUMPDEST PUSH1 0x40 MLOAD PUSH2 0x311 SWAP2 SWAP1 PUSH2 0xEBD JUMP JUMPDEST PUSH1 0x40 MLOAD DUP1 SWAP2 SUB SWAP1 RETURN JUMPDEST CALLVALUE DUP1 ISZERO PUSH2 0x326 JUMPI PUSH1 0x0 DUP1 REVERT JUMPDEST POP PUSH2 0x341 PUSH1 0x4 DUP1 CALLDATASIZE SUB DUP2 ADD SWAP1 PUSH2 0x33C SWAP2 SWAP1 PUSH2 0x104A JUMP JUMPDEST PUSH2 0xB34 JUMP JUMPDEST STOP JUMPDEST PUSH1 0x6 PUSH1 0x20 MSTORE DUP1 PUSH1 0x0 MSTORE PUSH1 0x40 PUSH1 0x0 KECCAK256 PUSH1 0x0 SWAP2 POP SLOAD SWAP1 PUSH2 0x100 EXP SWAP1 DIV PUSH1 0xFF AND DUP2 JUMP JUMPDEST PUSH1 0x1 PUSH1 0x0 SWAP1 SLOAD SWAP1 PUSH2 0x100 EXP SWAP1 DIV PUSH20 0xFFFFFFFFFFFFFFFFFFFFFFFFFFFFFFFFFFFFFFFF AND PUSH20 0xFFFFFFFFFFFFFFFFFFFFFFFFFFFFFFFFFFFFFFFF AND CALLER PUSH20 0xFFFFFFFFFFFFFFFFFFFFFFFFFFFFFFFFFFFFFFFF AND EQ PUSH2 0x3BD JUMPI PUSH1 0x0 DUP1 REVERT JUMPDEST PUSH1 0x0 DUP1 DUP3 DUP2 SLOAD DUP2 LT PUSH2 0x3D2 JUMPI PUSH2 0x3D1 PUSH2 0x10A6 JUMP JUMPDEST JUMPDEST SWAP1 PUSH1 0x0 MSTORE PUSH1 0x20 PUSH1 0x0 KECCAK256 SWAP1 PUSH1 0x5 MUL ADD SWAP1 POP PUSH1 0x2 PUSH1 0x7 SLOAD PUSH2 0x3F1 SWAP2 SWAP1 PUSH2 0x1133 JUMP JUMPDEST DUP2 PUSH1 0x3 ADD SLOAD GT PUSH2 0x400 JUMPI PUSH1 0x0 DUP1 REVERT JUMPDEST DUP1 PUSH1 0x2 ADD PUSH1 0x0 SWAP1 SLOAD SWAP1 PUSH2 0x100 EXP SWAP1 DIV PUSH1 0xFF AND ISZERO PUSH2 0x41C JUMPI PUSH1 0x0 DUP1 REVERT JUMPDEST PUSH1 0x1 PUSH1 0x0 SWAP1 SLOAD SWAP1 PUSH2 0x100 EXP SWAP1 DIV PUSH20 0xFFFFFFFFFFFFFFFFFFFFFFFFFFFFFFFFFFFFFFFF AND PUSH20 0xFFFFFFFFFFFFFFFFFFFFFFFFFFFFFFFFFFFFFFFF AND PUSH2 0x8FC DUP3 PUSH1 0x1 ADD SLOAD SWAP1 DUP2 ISZERO MUL SWAP1 PUSH1 0x40 MLOAD PUSH1 0x0 PUSH1 0x40 MLOAD DUP1 DUP4 SUB DUP2 DUP6 DUP9 DUP9 CALL SWAP4 POP POP POP POP ISZERO DUP1 ISZERO PUSH2 0x488 JUMPI RETURNDATASIZE PUSH1 0x0 DUP1 RETURNDATACOPY RETURNDATASIZE PUSH1 0x0 REVERT JUMPDEST POP PUSH1 0x1 DUP2 PUSH1 0x2 ADD PUSH1 0x0 PUSH2 0x100 EXP DUP2 SLOAD DUP2 PUSH1 0xFF MUL NOT AND SWAP1 DUP4 ISZERO ISZERO MUL OR SWAP1 SSTORE POP POP POP JUMP JUMPDEST PUSH1 0x60 DUP1 PUSH1 0x60 PUSH1 0x0 DUP1 PUSH1 0x0 DUP1 PUSH1 0x0 PUSH1 0x3 PUSH1 0x4 PUSH1 0x5 PUSH1 0x2 SLOAD SELFBALANCE PUSH1 0x0 DUP1 SLOAD SWAP1 POP PUSH1 0x7 SLOAD PUSH1 0x1 PUSH1 0x0 SWAP1 SLOAD SWAP1 PUSH2 0x100 EXP SWAP1 DIV PUSH20 0xFFFFFFFFFFFFFFFFFFFFFFFFFFFFFFFFFFFFFFFF AND DUP8 DUP1 SLOAD PUSH2 0x4F9 SWAP1 PUSH2 0x1193 JUMP JUMPDEST DUP1 PUSH1 0x1F ADD PUSH1 0x20 DUP1 SWAP2 DIV MUL PUSH1 0x20 ADD PUSH1 0x40 MLOAD SWAP1 DUP2 ADD PUSH1 0x40 MSTORE DUP1 SWAP3 SWAP2 SWAP1 DUP2 DUP2 MSTORE PUSH1 0x20 ADD DUP3 DUP1 SLOAD PUSH2 0x525 SWAP1 PUSH2 0x1193 JUMP JUMPDEST DUP1 ISZERO PUSH2 0x572 JUMPI DUP1 PUSH1 0x1F LT PUSH2 0x547 JUMPI PUSH2 0x100 DUP1 DUP4 SLOAD DIV MUL DUP4 MSTORE SWAP2 PUSH1 0x20 ADD SWAP2 PUSH2 0x572 JUMP JUMPDEST DUP3 ADD SWAP2 SWAP1 PUSH1 0x0 MSTORE PUSH1 0x20 PUSH1 0x0 KECCAK256 SWAP1 JUMPDEST DUP2 SLOAD DUP2 MSTORE SWAP1 PUSH1 0x1 ADD SWAP1 PUSH1 0x20 ADD DUP1 DUP4 GT PUSH2 0x555 JUMPI DUP3 SWAP1 SUB PUSH1 0x1F AND DUP3 ADD SWAP2 JUMPDEST POP POP POP POP POP SWAP8 POP DUP7 DUP1 SLOAD PUSH2 0x585 SWAP1 PUSH2 0x1193 JUMP JUMPDEST DUP1 PUSH1 0x1F ADD PUSH1 0x20 DUP1 SWAP2 DIV MUL PUSH1 0x20 ADD PUSH1 0x40 MLOAD SWAP1 DUP2 ADD PUSH1 0x40 MSTORE DUP1 SWAP3 SWAP2 SWAP1 DUP2 DUP2 MSTORE PUSH1 0x20 ADD DUP3 DUP1 SLOAD PUSH2 0x5B1 SWAP1 PUSH2 0x1193 JUMP JUMPDEST DUP1 ISZERO PUSH2 0x5FE JUMPI DUP1 PUSH1 0x1F LT PUSH2 0x5D3 JUMPI PUSH2 0x100 DUP1 DUP4 SLOAD DIV MUL DUP4 MSTORE SWAP2 PUSH1 0x20 ADD SWAP2 PUSH2 0x5FE JUMP JUMPDEST DUP3 ADD SWAP2 SWAP1 PUSH1 0x0 MSTORE PUSH1 0x20 PUSH1 0x0 KECCAK256 SWAP1 JUMPDEST DUP2 SLOAD DUP2 MSTORE SWAP1 PUSH1 0x1 ADD SWAP1 PUSH1 0x20 ADD DUP1 DUP4 GT PUSH2 0x5E1 JUMPI DUP3 SWAP1 SUB PUSH1 0x1F AND DUP3 ADD SWAP2 JUMPDEST POP POP POP POP POP SWAP7 POP DUP6 DUP1 SLOAD PUSH2 0x611 SWAP1 PUSH2 0x1193 JUMP JUMPDEST DUP1 PUSH1 0x1F ADD PUSH1 0x20 DUP1 SWAP2 DIV MUL PUSH1 0x20 ADD PUSH1 0x40 MLOAD SWAP1 DUP2 ADD PUSH1 0x40 MSTORE DUP1 SWAP3 SWAP2 SWAP1 DUP2 DUP2 MSTORE PUSH1 0x20 ADD DUP3 DUP1 SLOAD PUSH2 0x63D SWAP1 PUSH2 0x1193 JUMP JUMPDEST DUP1 ISZERO PUSH2 0x68A JUMPI DUP1 PUSH1 0x1F LT PUSH2 0x65F JUMPI PUSH2 0x100 DUP1 DUP4 SLOAD DIV MUL DUP4 MSTORE SWAP2 PUSH1 0x20 ADD SWAP2 PUSH2 0x68A JUMP JUMPDEST DUP3 ADD SWAP2 SWAP1 PUSH1 0x0 MSTORE PUSH1 0x20 PUSH1 0x0 KECCAK256 SWAP1 JUMPDEST DUP2 SLOAD DUP2 MSTORE SWAP1 PUSH1 0x1 ADD SWAP1 PUSH1 0x20 ADD DUP1 DUP4 GT PUSH2 0x66D JUMPI DUP3 SWAP1 SUB PUSH1 0x1F AND DUP3 ADD SWAP2 JUMPDEST POP POP POP POP POP SWAP6 POP SWAP8 POP SWAP8 POP SWAP8 POP SWAP8 POP SWAP8 POP SWAP8 POP SWAP8 POP SWAP8 POP SWAP1 SWAP2 SWAP3 SWAP4 SWAP5 SWAP6 SWAP7 SWAP8 JUMP JUMPDEST PUSH1 0x0 DUP2 DUP2 SLOAD DUP2 LT PUSH2 0x6BB JUMPI PUSH1 0x0 DUP1 REVERT JUMPDEST SWAP1 PUSH1 0x0 MSTORE PUSH1 0x20 PUSH1 0x0 KECCAK256 SWAP1 PUSH1 0x5 MUL ADD PUSH1 0x0 SWAP2 POP SWAP1 POP DUP1 PUSH1 0x0 ADD DUP1 SLOAD PUSH2 0x6DE SWAP1 PUSH2 0x1193 JUMP JUMPDEST DUP1 PUSH1 0x1F ADD PUSH1 0x20 DUP1 SWAP2 DIV MUL PUSH1 0x20 ADD PUSH1 0x40 MLOAD SWAP1 DUP2 ADD PUSH1 0x40 MSTORE DUP1 SWAP3 SWAP2 SWAP1 DUP2 DUP2 MSTORE PUSH1 0x20 ADD DUP3 DUP1 SLOAD PUSH2 0x70A SWAP1 PUSH2 0x1193 JUMP JUMPDEST DUP1 ISZERO PUSH2 0x757 JUMPI DUP1 PUSH1 0x1F LT PUSH2 0x72C JUMPI PUSH2 0x100 DUP1 DUP4 SLOAD DIV MUL DUP4 MSTORE SWAP2 PUSH1 0x20 ADD SWAP2 PUSH2 0x757 JUMP JUMPDEST DUP3 ADD SWAP2 SWAP1 PUSH1 0x0 MSTORE PUSH1 0x20 PUSH1 0x0 KECCAK256 SWAP1 JUMPDEST DUP2 SLOAD DUP2 MSTORE SWAP1 PUSH1 0x1 ADD SWAP1 PUSH1 0x20 ADD DUP1 DUP4 GT PUSH2 0x73A JUMPI DUP3 SWAP1 SUB PUSH1 0x1F AND DUP3 ADD SWAP2 JUMPDEST POP POP POP POP POP SWAP1 DUP1 PUSH1 0x1 ADD SLOAD SWAP1 DUP1 PUSH1 0x2 ADD PUSH1 0x0 SWAP1 SLOAD SWAP1 PUSH2 0x100 EXP SWAP1 DIV PUSH1 0xFF AND SWAP1 DUP1 PUSH1 0x3 ADD SLOAD SWAP1 POP DUP5 JUMP JUMPDEST PUSH1 0x3 DUP1 SLOAD PUSH2 0x78D SWAP1 PUSH2 0x1193 JUMP JUMPDEST DUP1 PUSH1 0x1F ADD PUSH1 0x20 DUP1 SWAP2 DIV MUL PUSH1 0x20 ADD PUSH1 0x40 MLOAD SWAP1 DUP2 ADD PUSH1 0x40 MSTORE DUP1 SWAP3 SWAP2 SWAP1 DUP2 DUP2 MSTORE PUSH1 0x20 ADD DUP3 DUP1 SLOAD PUSH2 0x7B9 SWAP1 PUSH2 0x1193 JUMP JUMPDEST DUP1 ISZERO PUSH2 0x806 JUMPI DUP1 PUSH1 0x1F LT PUSH2 0x7DB JUMPI PUSH2 0x100 DUP1 DUP4 SLOAD DIV MUL DUP4 MSTORE SWAP2 PUSH1 0x20 ADD SWAP2 PUSH2 0x806 JUMP JUMPDEST DUP3 ADD SWAP2 SWAP1 PUSH1 0x0 MSTORE PUSH1 0x20 PUSH1 0x0 KECCAK256 SWAP1 JUMPDEST DUP2 SLOAD DUP2 MSTORE SWAP1 PUSH1 0x1 ADD SWAP1 PUSH1 0x20 ADD DUP1 DUP4 GT PUSH2 0x7E9 JUMPI DUP3 SWAP1 SUB PUSH1 0x1F AND DUP3 ADD SWAP2 JUMPDEST POP POP POP POP POP DUP2 JUMP JUMPDEST PUSH1 0x1 PUSH1 0x0 SWAP1 SLOAD SWAP1 PUSH2 0x100 EXP SWAP1 DIV PUSH20 0xFFFFFFFFFFFFFFFFFFFFFFFFFFFFFFFFFFFFFFFF AND DUP2 JUMP JUMPDEST PUSH1 0x5 DUP1 SLOAD PUSH2 0x841 SWAP1 PUSH2 0x1193 JUMP JUMPDEST DUP1 PUSH1 0x1F ADD PUSH1 0x20 DUP1 SWAP2 DIV MUL PUSH1 0x20 ADD PUSH1 0x40 MLOAD SWAP1 DUP2 ADD PUSH1 0x40 MSTORE DUP1 SWAP3 SWAP2 SWAP1 DUP2 DUP2 MSTORE PUSH1 0x20 ADD DUP3 DUP1 SLOAD PUSH2 0x86D SWAP1 PUSH2 0x1193 JUMP JUMPDEST DUP1 ISZERO PUSH2 0x8BA JUMPI DUP1 PUSH1 0x1F LT PUSH2 0x88F JUMPI PUSH2 0x100 DUP1 DUP4 SLOAD DIV MUL DUP4 MSTORE SWAP2 PUSH1 0x20 ADD SWAP2 PUSH2 0x8BA JUMP JUMPDEST DUP3 ADD SWAP2 SWAP1 PUSH1 0x0 MSTORE PUSH1 0x20 PUSH1 0x0 KECCAK256 SWAP1 JUMPDEST DUP2 SLOAD DUP2 MSTORE SWAP1 PUSH1 0x1 ADD SWAP1 PUSH1 0x20 ADD DUP1 DUP4 GT PUSH2 0x89D JUMPI DUP3 SWAP1 SUB PUSH1 0x1F AND DUP3 ADD SWAP2 JUMPDEST POP POP POP POP POP DUP2 JUMP JUMPDEST PUSH1 0x7 SLOAD DUP2 JUMP JUMPDEST PUSH1 0x2 SLOAD DUP2 JUMP JUMPDEST PUSH1 0x0 DUP1 DUP3 DUP2 SLOAD DUP2 LT PUSH2 0x8E3 JUMPI PUSH2 0x8E2 PUSH2 0x10A6 JUMP JUMPDEST JUMPDEST SWAP1 PUSH1 0x0 MSTORE PUSH1 0x20 PUSH1 0x0 KECCAK256 SWAP1 PUSH1 0x5 MUL ADD SWAP1 POP PUSH1 0x6 PUSH1 0x0 CALLER PUSH20 0xFFFFFFFFFFFFFFFFFFFFFFFFFFFFFFFFFFFFFFFF AND PUSH20 0xFFFFFFFFFFFFFFFFFFFFFFFFFFFFFFFFFFFFFFFF AND DUP2 MSTORE PUSH1 0x20 ADD SWAP1 DUP2 MSTORE PUSH1 0x20 ADD PUSH1 0x0 KECCAK256 PUSH1 0x0 SWAP1 SLOAD SWAP1 PUSH2 0x100 EXP SWAP1 DIV PUSH1 0xFF AND PUSH2 0x949 JUMPI PUSH1 0x0 DUP1 REVERT JUMPDEST DUP1 PUSH1 0x4 ADD PUSH1 0x0 CALLER PUSH20 0xFFFFFFFFFFFFFFFFFFFFFFFFFFFFFFFFFFFFFFFF AND PUSH20 0xFFFFFFFFFFFFFFFFFFFFFFFFFFFFFFFFFFFFFFFF AND DUP2 MSTORE PUSH1 0x20 ADD SWAP1 DUP2 MSTORE PUSH1 0x20 ADD PUSH1 0x0 KECCAK256 PUSH1 0x0 SWAP1 SLOAD SWAP1 PUSH2 0x100 EXP SWAP1 DIV PUSH1 0xFF AND ISZERO PUSH2 0x9A2 JUMPI PUSH1 0x0 DUP1 REVERT JUMPDEST PUSH1 0x1 DUP2 PUSH1 0x4 ADD PUSH1 0x0 CALLER PUSH20 0xFFFFFFFFFFFFFFFFFFFFFFFFFFFFFFFFFFFFFFFF AND PUSH20 0xFFFFFFFFFFFFFFFFFFFFFFFFFFFFFFFFFFFFFFFF AND DUP2 MSTORE PUSH1 0x20 ADD SWAP1 DUP2 MSTORE PUSH1 0x20 ADD PUSH1 0x0 KECCAK256 PUSH1 0x0 PUSH2 0x100 EXP DUP2 SLOAD DUP2 PUSH1 0xFF MUL NOT AND SWAP1 DUP4 ISZERO ISZERO MUL OR SWAP1 SSTORE POP DUP1 PUSH1 0x3 ADD PUSH1 0x0 DUP2 SLOAD DUP1 SWAP3 SWAP2 SWAP1 PUSH2 0xA11 SWAP1 PUSH2 0x11C4 JUMP JUMPDEST SWAP2 SWAP1 POP SSTORE POP POP POP JUMP JUMPDEST PUSH1 0x0 DUP1 DUP1 SLOAD SWAP1 POP SWAP1 POP SWAP1 JUMP JUMPDEST PUSH1 0x2 SLOAD CALLVALUE GT PUSH2 0xA34 JUMPI PUSH1 0x0 DUP1 REVERT JUMPDEST PUSH1 0x1 PUSH1 0x6 PUSH1 0x0 CALLER PUSH20 0xFFFFFFFFFFFFFFFFFFFFFFFFFFFFFFFFFFFFFFFF AND PUSH20 0xFFFFFFFFFFFFFFFFFFFFFFFFFFFFFFFFFFFFFFFF AND DUP2 MSTORE PUSH1 0x20 ADD SWAP1 DUP2 MSTORE PUSH1 0x20 ADD PUSH1 0x0 KECCAK256 PUSH1 0x0 PUSH2 0x100 EXP DUP2 SLOAD DUP2 PUSH1 0xFF MUL NOT AND SWAP1 DUP4 ISZERO ISZERO MUL OR SWAP1 SSTORE POP PUSH1 0x7 PUSH1 0x0 DUP2 SLOAD DUP1 SWAP3 SWAP2 SWAP1 PUSH2 0xA9F SWAP1 PUSH2 0x11C4 JUMP JUMPDEST SWAP2 SWAP1 POP SSTORE POP JUMP JUMPDEST PUSH1 0x4 DUP1 SLOAD PUSH2 0xAB3 SWAP1 PUSH2 0x1193 JUMP JUMPDEST DUP1 PUSH1 0x1F ADD PUSH1 0x20 DUP1 SWAP2 DIV MUL PUSH1 0x20 ADD PUSH1 0x40 MLOAD SWAP1 DUP2 ADD PUSH1 0x40 MSTORE DUP1 SWAP3 SWAP2 SWAP1 DUP2 DUP2 MSTORE PUSH1 0x20 ADD DUP3 DUP1 SLOAD PUSH2 0xADF SWAP1 PUSH2 0x1193 JUMP JUMPDEST DUP1 ISZERO PUSH2 0xB2C JUMPI DUP1 PUSH1 0x1F LT PUSH2 0xB01 JUMPI PUSH2 0x100 DUP1 DUP4 SLOAD DIV MUL DUP4 MSTORE SWAP2 PUSH1 0x20 ADD SWAP2 PUSH2 0xB2C JUMP JUMPDEST DUP3 ADD SWAP2 SWAP1 PUSH1 0x0 MSTORE PUSH1 0x20 PUSH1 0x0 KECCAK256 SWAP1 JUMPDEST DUP2 SLOAD DUP2 MSTORE SWAP1 PUSH1 0x1 ADD SWAP1 PUSH1 0x20 ADD DUP1 DUP4 GT PUSH2 0xB0F JUMPI DUP3 SWAP1 SUB PUSH1 0x1F AND DUP3 ADD SWAP2 JUMPDEST POP POP POP POP POP DUP2 JUMP JUMPDEST PUSH1 0x1 PUSH1 0x0 SWAP1 SLOAD SWAP1 PUSH2 0x100 EXP SWAP1 DIV PUSH20 0xFFFFFFFFFFFFFFFFFFFFFFFFFFFFFFFFFFFFFFFF AND PUSH20 0xFFFFFFFFFFFFFFFFFFFFFFFFFFFFFFFFFFFFFFFF AND CALLER PUSH20 0xFFFFFFFFFFFFFFFFFFFFFFFFFFFFFFFFFFFFFFFF AND EQ PUSH2 0xB8E JUMPI PUSH1 0x0 DUP1 REVERT JUMPDEST PUSH1 0x0 DUP1 PUSH1 0x1 DUP2 PUSH1 0x1 DUP2 SLOAD ADD DUP1 DUP3 SSTORE DUP1 SWAP2 POP POP SUB SWAP1 PUSH1 0x0 MSTORE PUSH1 0x20 PUSH1 0x0 KECCAK256 SWAP1 PUSH1 0x5 MUL ADD SWAP1 POP DUP3 DUP2 PUSH1 0x0 ADD SWAP1 DUP2 PUSH2 0xBC2 SWAP2 SWAP1 PUSH2 0x13B8 JUMP JUMPDEST POP DUP2 DUP2 PUSH1 0x1 ADD DUP2 SWAP1 SSTORE POP PUSH1 0x0 DUP2 PUSH1 0x2 ADD PUSH1 0x0 PUSH2 0x100 EXP DUP2 SLOAD DUP2 PUSH1 0xFF MUL NOT AND SWAP1 DUP4 ISZERO ISZERO MUL OR SWAP1 SSTORE POP PUSH1 0x0 DUP2 PUSH1 0x3 ADD DUP2 SWAP1 SSTORE POP POP POP POP JUMP JUMPDEST PUSH1 0x0 PUSH1 0x40 MLOAD SWAP1 POP SWAP1 JUMP JUMPDEST PUSH1 0x0 DUP1 REVERT JUMPDEST PUSH1 0x0 DUP1 REVERT JUMPDEST PUSH1 0x0 PUSH20 0xFFFFFFFFFFFFFFFFFFFFFFFFFFFFFFFFFFFFFFFF DUP3 AND SWAP1 POP SWAP2 SWAP1 POP JUMP JUMPDEST PUSH1 0x0 PUSH2 0xC37 DUP3 PUSH2 0xC0C JUMP JUMPDEST SWAP1 POP SWAP2 SWAP1 POP JUMP JUMPDEST PUSH2 0xC47 DUP2 PUSH2 0xC2C JUMP JUMPDEST DUP2 EQ PUSH2 0xC52 JUMPI PUSH1 0x0 DUP1 REVERT JUMPDEST POP JUMP JUMPDEST PUSH1 0x0 DUP2 CALLDATALOAD SWAP1 POP PUSH2 0xC64 DUP2 PUSH2 0xC3E JUMP JUMPDEST SWAP3 SWAP2 POP POP JUMP JUMPDEST PUSH1 0x0 PUSH1 0x20 DUP3 DUP5 SUB SLT ISZERO PUSH2 0xC80 JUMPI PUSH2 0xC7F PUSH2 0xC02 JUMP JUMPDEST JUMPDEST PUSH1 0x0 PUSH2 0xC8E DUP5 DUP3 DUP6 ADD PUSH2 0xC55 JUMP JUMPDEST SWAP2 POP POP SWAP3 SWAP2 POP POP JUMP JUMPDEST PUSH1 0x0 DUP2 ISZERO ISZERO SWAP1 POP SWAP2 SWAP1 POP JUMP JUMPDEST PUSH2 0xCAC DUP2 PUSH2 0xC97 JUMP JUMPDEST DUP3 MSTORE POP POP JUMP JUMPDEST PUSH1 0x0 PUSH1 0x20 DUP3 ADD SWAP1 POP PUSH2 0xCC7 PUSH1 0x0 DUP4 ADD DUP5 PUSH2 0xCA3 JUMP JUMPDEST SWAP3 SWAP2 POP POP JUMP JUMPDEST PUSH1 0x0 DUP2 SWAP1 POP SWAP2 SWAP1 POP JUMP JUMPDEST PUSH2 0xCE0 DUP2 PUSH2 0xCCD JUMP JUMPDEST DUP2 EQ PUSH2 0xCEB JUMPI PUSH1 0x0 DUP1 REVERT JUMPDEST POP JUMP JUMPDEST PUSH1 0x0 DUP2 CALLDATALOAD SWAP1 POP PUSH2 0xCFD DUP2 PUSH2 0xCD7 JUMP JUMPDEST SWAP3 SWAP2 POP POP JUMP JUMPDEST PUSH1 0x0 PUSH1 0x20 DUP3 DUP5 SUB SLT ISZERO PUSH2 0xD19 JUMPI PUSH2 0xD18 PUSH2 0xC02 JUMP JUMPDEST JUMPDEST PUSH1 0x0 PUSH2 0xD27 DUP5 DUP3 DUP6 ADD PUSH2 0xCEE JUMP JUMPDEST SWAP2 POP POP SWAP3 SWAP2 POP POP JUMP JUMPDEST PUSH1 0x0 DUP2 MLOAD SWAP1 POP SWAP2 SWAP1 POP JUMP JUMPDEST PUSH1 0x0 DUP3 DUP3 MSTORE PUSH1 0x20 DUP3 ADD SWAP1 POP SWAP3 SWAP2 POP POP JUMP JUMPDEST PUSH1 0x0 JUMPDEST DUP4 DUP2 LT ISZERO PUSH2 0xD6A JUMPI DUP1 DUP3 ADD MLOAD DUP2 DUP5 ADD MSTORE PUSH1 0x20 DUP2 ADD SWAP1 POP PUSH2 0xD4F JUMP JUMPDEST PUSH1 0x0 DUP5 DUP5 ADD MSTORE POP POP POP POP JUMP JUMPDEST PUSH1 0x0 PUSH1 0x1F NOT PUSH1 0x1F DUP4 ADD AND SWAP1 POP SWAP2 SWAP1 POP JUMP JUMPDEST PUSH1 0x0 PUSH2 0xD92 DUP3 PUSH2 0xD30 JUMP JUMPDEST PUSH2 0xD9C DUP2 DUP6 PUSH2 0xD3B JUMP JUMPDEST SWAP4 POP PUSH2 0xDAC DUP2 DUP6 PUSH1 0x20 DUP7 ADD PUSH2 0xD4C JUMP JUMPDEST PUSH2 0xDB5 DUP2 PUSH2 0xD76 JUMP JUMPDEST DUP5 ADD SWAP2 POP POP SWAP3 SWAP2 POP POP JUMP JUMPDEST PUSH2 0xDC9 DUP2 PUSH2 0xCCD JUMP JUMPDEST DUP3 MSTORE POP POP JUMP JUMPDEST PUSH2 0xDD8 DUP2 PUSH2 0xC2C JUMP JUMPDEST DUP3 MSTORE POP POP JUMP JUMPDEST PUSH1 0x0 PUSH2 0x100 DUP3 ADD SWAP1 POP DUP2 DUP2 SUB PUSH1 0x0 DUP4 ADD MSTORE PUSH2 0xDF9 DUP2 DUP12 PUSH2 0xD87 JUMP JUMPDEST SWAP1 POP DUP2 DUP2 SUB PUSH1 0x20 DUP4 ADD MSTORE PUSH2 0xE0D DUP2 DUP11 PUSH2 0xD87 JUMP JUMPDEST SWAP1 POP DUP2 DUP2 SUB PUSH1 0x40 DUP4 ADD MSTORE PUSH2 0xE21 DUP2 DUP10 PUSH2 0xD87 JUMP JUMPDEST SWAP1 POP PUSH2 0xE30 PUSH1 0x60 DUP4 ADD DUP9 PUSH2 0xDC0 JUMP JUMPDEST PUSH2 0xE3D PUSH1 0x80 DUP4 ADD DUP8 PUSH2 0xDC0 JUMP JUMPDEST PUSH2 0xE4A PUSH1 0xA0 DUP4 ADD DUP7 PUSH2 0xDC0 JUMP JUMPDEST PUSH2 0xE57 PUSH1 0xC0 DUP4 ADD DUP6 PUSH2 0xDC0 JUMP JUMPDEST PUSH2 0xE64 PUSH1 0xE0 DUP4 ADD DUP5 PUSH2 0xDCF JUMP JUMPDEST SWAP10 SWAP9 POP POP POP POP POP POP POP POP POP JUMP JUMPDEST PUSH1 0x0 PUSH1 0x80 DUP3 ADD SWAP1 POP DUP2 DUP2 SUB PUSH1 0x0 DUP4 ADD MSTORE PUSH2 0xE8B DUP2 DUP8 PUSH2 0xD87 JUMP JUMPDEST SWAP1 POP PUSH2 0xE9A PUSH1 0x20 DUP4 ADD DUP7 PUSH2 0xDC0 JUMP JUMPDEST PUSH2 0xEA7 PUSH1 0x40 DUP4 ADD DUP6 PUSH2 0xCA3 JUMP JUMPDEST PUSH2 0xEB4 PUSH1 0x60 DUP4 ADD DUP5 PUSH2 0xDC0 JUMP JUMPDEST SWAP6 SWAP5 POP POP POP POP POP JUMP JUMPDEST PUSH1 0x0 PUSH1 0x20 DUP3 ADD SWAP1 POP DUP2 DUP2 SUB PUSH1 0x0 DUP4 ADD MSTORE PUSH2 0xED7 DUP2 DUP5 PUSH2 0xD87 JUMP JUMPDEST SWAP1 POP SWAP3 SWAP2 POP POP JUMP JUMPDEST PUSH1 0x0 PUSH1 0x20 DUP3 ADD SWAP1 POP PUSH2 0xEF4 PUSH1 0x0 DUP4 ADD DUP5 PUSH2 0xDCF JUMP JUMPDEST SWAP3 SWAP2 POP POP JUMP JUMPDEST PUSH1 0x0 PUSH1 0x20 DUP3 ADD SWAP1 POP PUSH2 0xF0F PUSH1 0x0 DUP4 ADD DUP5 PUSH2 0xDC0 JUMP JUMPDEST SWAP3 SWAP2 POP POP JUMP JUMPDEST PUSH1 0x0 DUP1 REVERT JUMPDEST PUSH1 0x0 DUP1 REVERT JUMPDEST PUSH32 0x4E487B7100000000000000000000000000000000000000000000000000000000 PUSH1 0x0 MSTORE PUSH1 0x41 PUSH1 0x4 MSTORE PUSH1 0x24 PUSH1 0x0 REVERT JUMPDEST PUSH2 0xF57 DUP3 PUSH2 0xD76 JUMP JUMPDEST DUP2 ADD DUP2 DUP2 LT PUSH8 0xFFFFFFFFFFFFFFFF DUP3 GT OR ISZERO PUSH2 0xF76 JUMPI PUSH2 0xF75 PUSH2 0xF1F JUMP JUMPDEST JUMPDEST DUP1 PUSH1 0x40 MSTORE POP POP POP JUMP JUMPDEST PUSH1 0x0 PUSH2 0xF89 PUSH2 0xBF8 JUMP JUMPDEST SWAP1 POP PUSH2 0xF95 DUP3 DUP3 PUSH2 0xF4E JUMP JUMPDEST SWAP2 SWAP1 POP JUMP JUMPDEST PUSH1 0x0 PUSH8 0xFFFFFFFFFFFFFFFF DUP3 GT ISZERO PUSH2 0xFB5 JUMPI PUSH2 0xFB4 PUSH2 0xF1F JUMP JUMPDEST JUMPDEST PUSH2 0xFBE DUP3 PUSH2 0xD76 JUMP JUMPDEST SWAP1 POP PUSH1 0x20 DUP2 ADD SWAP1 POP SWAP2 SWAP1 POP JUMP JUMPDEST DUP3 DUP2 DUP4 CALLDATACOPY PUSH1 0x0 DUP4 DUP4 ADD MSTORE POP POP POP JUMP JUMPDEST PUSH1 0x0 PUSH2 0xFED PUSH2 0xFE8 DUP5 PUSH2 0xF9A JUMP JUMPDEST PUSH2 0xF7F JUMP JUMPDEST SWAP1 POP DUP3 DUP2 MSTORE PUSH1 0x20 DUP2 ADD DUP5 DUP5 DUP5 ADD GT ISZERO PUSH2 0x1009 JUMPI PUSH2 0x1008 PUSH2 0xF1A JUMP JUMPDEST JUMPDEST PUSH2 0x1014 DUP5 DUP3 DUP6 PUSH2 0xFCB JUMP JUMPDEST POP SWAP4 SWAP3 POP POP POP JUMP JUMPDEST PUSH1 0x0 DUP3 PUSH1 0x1F DUP4 ADD SLT PUSH2 0x1031 JUMPI PUSH2 0x1030 PUSH2 0xF15 JUMP JUMPDEST JUMPDEST DUP2 CALLDATALOAD PUSH2 0x1041 DUP5 DUP3 PUSH1 0x20 DUP7 ADD PUSH2 0xFDA JUMP JUMPDEST SWAP2 POP POP SWAP3 SWAP2 POP POP JUMP JUMPDEST PUSH1 0x0 DUP1 PUSH1 0x40 DUP4 DUP6 SUB SLT ISZERO PUSH2 0x1061 JUMPI PUSH2 0x1060 PUSH2 0xC02 JUMP JUMPDEST JUMPDEST PUSH1 0x0 DUP4 ADD CALLDATALOAD PUSH8 0xFFFFFFFFFFFFFFFF DUP2 GT ISZERO PUSH2 0x107F JUMPI PUSH2 0x107E PUSH2 0xC07 JUMP JUMPDEST JUMPDEST PUSH2 0x108B DUP6 DUP3 DUP7 ADD PUSH2 0x101C JUMP JUMPDEST SWAP3 POP POP PUSH1 0x20 PUSH2 0x109C DUP6 DUP3 DUP7 ADD PUSH2 0xCEE JUMP JUMPDEST SWAP2 POP POP SWAP3 POP SWAP3 SWAP1 POP JUMP JUMPDEST PUSH32 0x4E487B7100000000000000000000000000000000000000000000000000000000 PUSH1 0x0 MSTORE PUSH1 0x32 PUSH1 0x4 MSTORE PUSH1 0x24 PUSH1 0x0 REVERT JUMPDEST PUSH32 0x4E487B7100000000000000000000000000000000000000000000000000000000 PUSH1 0x0 MSTORE PUSH1 0x12 PUSH1 0x4 MSTORE PUSH1 0x24 PUSH1 0x0 REVERT JUMPDEST PUSH32 0x4E487B7100000000000000000000000000000000000000000000000000000000 PUSH1 0x0 MSTORE PUSH1 0x11 PUSH1 0x4 MSTORE PUSH1 0x24 PUSH1 0x0 REVERT JUMPDEST PUSH1 0x0 PUSH2 0x113E DUP3 PUSH2 0xCCD JUMP JUMPDEST SWAP2 POP PUSH2 0x1149 DUP4 PUSH2 0xCCD JUMP JUMPDEST SWAP3 POP DUP3 PUSH2 0x1159 JUMPI PUSH2 0x1158 PUSH2 0x10D5 JUMP JUMPDEST JUMPDEST DUP3 DUP3 DIV SWAP1 POP SWAP3 SWAP2 POP POP JUMP JUMPDEST PUSH32 0x4E487B7100000000000000000000000000000000000000000000000000000000 PUSH1 0x0 MSTORE PUSH1 0x22 PUSH1 0x4 MSTORE PUSH1 0x24 PUSH1 0x0 REVERT JUMPDEST PUSH1 0x0 PUSH1 0x2 DUP3 DIV SWAP1 POP PUSH1 0x1 DUP3 AND DUP1 PUSH2 0x11AB JUMPI PUSH1 0x7F DUP3 AND SWAP2 POP JUMPDEST PUSH1 0x20 DUP3 LT DUP2 SUB PUSH2 0x11BE JUMPI PUSH2 0x11BD PUSH2 0x1164 JUMP JUMPDEST JUMPDEST POP SWAP2 SWAP1 POP JUMP JUMPDEST PUSH1 0x0 PUSH2 0x11CF DUP3 PUSH2 0xCCD JUMP JUMPDEST SWAP2 POP PUSH32 0xFFFFFFFFFFFFFFFFFFFFFFFFFFFFFFFFFFFFFFFFFFFFFFFFFFFFFFFFFFFFFFFF DUP3 SUB PUSH2 0x1201 JUMPI PUSH2 0x1200 PUSH2 0x1104 JUMP JUMPDEST JUMPDEST PUSH1 0x1 DUP3 ADD SWAP1 POP SWAP2 SWAP1 POP JUMP JUMPDEST PUSH1 0x0 DUP2 SWAP1 POP DUP2 PUSH1 0x0 MSTORE PUSH1 0x20 PUSH1 0x0 KECCAK256 SWAP1 POP SWAP2 SWAP1 POP JUMP JUMPDEST PUSH1 0x0 PUSH1 0x20 PUSH1 0x1F DUP4 ADD DIV SWAP1 POP SWAP2 SWAP1 POP JUMP JUMPDEST PUSH1 0x0 DUP3 DUP3 SHL SWAP1 POP SWAP3 SWAP2 POP POP JUMP JUMPDEST PUSH1 0x0 PUSH1 0x8 DUP4 MUL PUSH2 0x126E PUSH32 0xFFFFFFFFFFFFFFFFFFFFFFFFFFFFFFFFFFFFFFFFFFFFFFFFFFFFFFFFFFFFFFFF DUP3 PUSH2 0x1231 JUMP JUMPDEST PUSH2 0x1278 DUP7 DUP4 PUSH2 0x1231 JUMP JUMPDEST SWAP6 POP DUP1 NOT DUP5 AND SWAP4 POP DUP1 DUP7 AND DUP5 OR SWAP3 POP POP POP SWAP4 SWAP3 POP POP POP JUMP JUMPDEST PUSH1 0x0 DUP2 SWAP1 POP SWAP2 SWAP1 POP JUMP JUMPDEST PUSH1 0x0 PUSH2 0x12B5 PUSH2 0x12B0 PUSH2 0x12AB DUP5 PUSH2 0xCCD JUMP JUMPDEST PUSH2 0x1290 JUMP JUMPDEST PUSH2 0xCCD JUMP JUMPDEST SWAP1 POP SWAP2 SWAP1 POP JUMP JUMPDEST PUSH1 0x0 DUP2 SWAP1 POP SWAP2 SWAP1 POP JUMP JUMPDEST PUSH2 0x12CF DUP4 PUSH2 0x129A JUMP JUMPDEST PUSH2 0x12E3 PUSH2 0x12DB DUP3 PUSH2 0x12BC JUMP JUMPDEST DUP5 DUP5 SLOAD PUSH2 0x123E JUMP JUMPDEST DUP3 SSTORE POP POP POP POP JUMP JUMPDEST PUSH1 0x0 SWAP1 JUMP JUMPDEST PUSH2 0x12F8 PUSH2 0x12EB JUMP JUMPDEST PUSH2 0x1303 DUP2 DUP5 DUP5 PUSH2 0x12C6 JUMP JUMPDEST POP POP POP JUMP JUMPDEST JUMPDEST DUP2 DUP2 LT ISZERO PUSH2 0x1327 JUMPI PUSH2 0x131C PUSH1 0x0 DUP3 PUSH2 0x12F0 JUMP JUMPDEST PUSH1 0x1 DUP2 ADD SWAP1 POP PUSH2 0x1309 JUMP JUMPDEST POP POP JUMP JUMPDEST PUSH1 0x1F DUP3 GT ISZERO PUSH2 0x136C JUMPI PUSH2 0x133D DUP2 PUSH2 0x120C JUMP JUMPDEST PUSH2 0x1346 DUP5 PUSH2 0x1221 JUMP JUMPDEST DUP2 ADD PUSH1 0x20 DUP6 LT ISZERO PUSH2 0x1355 JUMPI DUP2 SWAP1 POP JUMPDEST PUSH2 0x1369 PUSH2 0x1361 DUP6 PUSH2 0x1221 JUMP JUMPDEST DUP4 ADD DUP3 PUSH2 0x1308 JUMP JUMPDEST POP POP JUMPDEST POP POP POP JUMP JUMPDEST PUSH1 0x0 DUP3 DUP3 SHR SWAP1 POP SWAP3 SWAP2 POP POP JUMP JUMPDEST PUSH1 0x0 PUSH2 0x138F PUSH1 0x0 NOT DUP5 PUSH1 0x8 MUL PUSH2 0x1371 JUMP JUMPDEST NOT DUP1 DUP4 AND SWAP2 POP POP SWAP3 SWAP2 POP POP JUMP JUMPDEST PUSH1 0x0 PUSH2 0x13A8 DUP4 DUP4 PUSH2 0x137E JUMP JUMPDEST SWAP2 POP DUP3 PUSH1 0x2 MUL DUP3 OR SWAP1 POP SWAP3 SWAP2 POP POP JUMP JUMPDEST PUSH2 0x13C1 DUP3 PUSH2 0xD30 JUMP JUMPDEST PUSH8 0xFFFFFFFFFFFFFFFF DUP2 GT ISZERO PUSH2 0x13DA JUMPI PUSH2 0x13D9 PUSH2 0xF1F JUMP JUMPDEST JUMPDEST PUSH2 0x13E4 DUP3 SLOAD PUSH2 0x1193 JUMP JUMPDEST PUSH2 0x13EF DUP3 DUP3 DUP6 PUSH2 0x132B JUMP JUMPDEST PUSH1 0x0 PUSH1 0x20 SWAP1 POP PUSH1 0x1F DUP4 GT PUSH1 0x1 DUP2 EQ PUSH2 0x1422 JUMPI PUSH1 0x0 DUP5 ISZERO PUSH2 0x1410 JUMPI DUP3 DUP8 ADD MLOAD SWAP1 POP JUMPDEST PUSH2 0x141A DUP6 DUP3 PUSH2 0x139C JUMP JUMPDEST DUP7 SSTORE POP PUSH2 0x1482 JUMP JUMPDEST PUSH1 0x1F NOT DUP5 AND PUSH2 0x1430 DUP7 PUSH2 0x120C JUMP JUMPDEST PUSH1 0x0 JUMPDEST DUP3 DUP2 LT ISZERO PUSH2 0x1458 JUMPI DUP5 DUP10 ADD MLOAD DUP3 SSTORE PUSH1 0x1 DUP3 ADD SWAP2 POP PUSH1 0x20 DUP6 ADD SWAP5 POP PUSH1 0x20 DUP2 ADD SWAP1 POP PUSH2 0x1433 JUMP JUMPDEST DUP7 DUP4 LT ISZERO PUSH2 0x1475 JUMPI DUP5 DUP10 ADD MLOAD PUSH2 0x1471 PUSH1 0x1F DUP10 AND DUP3 PUSH2 0x137E JUMP JUMPDEST DUP4 SSTORE POP JUMPDEST PUSH1 0x1 PUSH1 0x2 DUP9 MUL ADD DUP9 SSTORE POP POP POP JUMPDEST POP POP POP POP POP POP JUMP INVALID LOG2 PUSH5 0x6970667358 0x22 SLT KECCAK256 SWAP7 0xE1 0xAB 0xC0 DELEGATECALL PUSH25 0x7A90C6FA59A51F9752739EBC0A27ADE19A7EBAAA464AA85DF2 PREVRANDAO PUSH5 0x736F6C6343 STOP ADDMOD SGT STOP CALLER "},"gasEstimates":{"creation":{"codeDepositCost":"1062400","executionCost":"infinite","totalCost":"infinite"},"external":{"approveSpendRequest(uint256)":"infinite","approvers(address)":"2869","approversCount()":"2452","contribute()":"50999","createSpendRequest(string,uint256)":"infinite","description()":"infinite","endSpendRequest(uint256)":"infinite","fundraisingReason()":"infinite","getSpendRequestsCount()":"2467","getSummary()":"infinite","minimumContribution()":"2474","recipient()":"2581","recipientName()":"infinite","spendRequests(uint256)":"infinite"}},"methodIdentifiers":{"approveSpendRequest(uint256)":"a578182c","approvers(address)":"0a144391","approversCount()":"82fde093","contribute()":"d7bb99ba","createSpendRequest(string,uint256)":"f9ade79a","description()":"7284e416","endSpendRequest(uint256)":"0db56ccd","fundraisingReason()":"dfd693ad","getSpendRequestsCount()":"a9c31840","getSummary()":"4051ddac","minimumContribution()":"937e09b1","recipient()":"66d003ac","recipientName()":"564d45cb","spendRequests(uint256)":"496c8ada"}},"storageLayout":{"storage":[{"astId":68,"contract":"Donate.sol:Donate","label":"spendRequests","offset":0,"slot":"0","type":"t_array(t_struct(SpendRequest)64_storage)dyn_storage"},{"astId":70,"contract":"Donate.sol:Donate","label":"recipient","offset":0,"slot":"1","type":"t_address"},{"astId":72,"contract":"Donate.sol:Donate","label":"minimumContribution","offset":0,"slot":"2","type":"t_uint256"},{"astId":74,"contract":"Donate.sol:Donate","label":"recipientName","offset":0,"slot":"3","type":"t_string_storage"},{"astId":76,"contract":"Donate.sol:Donate","label":"fundraisingReason","offset":0,"slot":"4","type":"t_string_storage"},{"astId":78,"contract":"Donate.sol:Donate","label":"description","offset":0,"slot":"5","type":"t_string_storage"},{"astId":82,"contract":"Donate.sol:Donate","label":"approvers","offset":0,"slot":"6","type":"t_mapping(t_address,t_bool)"},{"astId":84,"contract":"Donate.sol:Donate","label":"approversCount","offset":0,"slot":"7","type":"t_uint256"}],"types":{"t_address":{"encoding":"inplace","label":"address","numberOfBytes":"20"},"t_array(t_struct(SpendRequest)64_storage)dyn_storage":{"base":"t_struct(SpendRequest)64_storage","encoding":"dynamic_array","label":"struct Donate.SpendRequest[]","numberOfBytes":"32"},"t_bool":{"encoding":"inplace","label":"bool","numberOfBytes":"1"},"t_mapping(t_address,t_bool)":{"encoding":"mapping","key":"t_address","label":"mapping(address => bool)","numberOfBytes":"32","value":"t_bool"},"t_string_storage":{"encoding":"bytes","label":"string","numberOfBytes":"32"},"t_struct(SpendRequest)64_storage":{"encoding":"inplace","label":"struct Donate.SpendRequest","members":[{"astId":53,"contract":"Donate.sol:Donate","label":"description","offset":0,"slot":"0","type":"t_string_storage"},{"astId":55,"contract":"Donate.sol:Donate","label":"value","offset":0,"slot":"1","type":"t_uint256"},{"astId":57,"contract":"Donate.sol:Donate","label":"finish","offset":0,"slot":"2","type":"t_bool"},{"astId":59,"contract":"Donate.sol:Donate","label":"approvalCount","offset":0,"slot":"3","type":"t_uint256"},{"astId":63,"contract":"Donate.sol:Donate","label":"approvals","offset":0,"slot":"4","type":"t_mapping(t_address,t_bool)"}],"numberOfBytes":"160"},"t_uint256":{"encoding":"inplace","label":"uint256","numberOfBytes":"32"}}},"userdoc":{"kind":"user","methods":{},"version":1}}